:100000000C9409020C9431020C9431020C94E60910
:100010000C94E6090C94E6090C9431020C9431021C
:100020000C9431020C9431020C9431020C94310284
:100030000C9431020C9431020C9431020C94310274
:100040000C9406290C9431020C94912B0C94C32B24
:100050000C9431020C9431020C9431020C94310254
:100060000C948B0D0C943102036EDB363D9A9999FA
:10007000993DABAAAA2A3E000000803F072C7AA532
:10008000BA6CC590DA3B9365FC8BBC53F810FD3C11
:100090005692834DBD879D3AB63DCBC9BF5BBE73BB
:1000A000DA0FC93F05A84CCDB2D44EB93836A902F3
:1000B0000C50B9918688083CA6AAAA2ABE00000066
:1000C000803F0664EC1B3C04BC163E3BE5B93CC9D2
:1000D0003C37C29E5A3D660498083EEA69AAAA3E89
:1000E000000000803F001F1C1F1E1F1E1F1F1E1F21
:1000F0001E1F726563656976652062756666657246
:10010000206F766572666C6F77213A200052414D00
:1001100020436F6D706C6574696E672073657475CC
:10012000703A2000496E697469616C697A696E671A
:1001300020747261636B6572004C6F6164696E67F5
:1001400020636F6E66696775726174696F6E0052C5
:100150005443206E6F742072756E6E696E67210055
:1001600052414D204174207374617274206F662077
:1001700073657475703A20007D0066616C7365006C
:1001800074727565002C22616E223A002C227376FF
:10019000223A002C227368223A002C226C76223AF2
:1001A000002C226C68223A002C2278223A002C2261
:1001B0006E223A002C2277223A002C2265223A0045
:1001C0002C226F223A002C2261223A0066616C7365
:1001D000650074727565002264223A0043667C7B78
:1001E0000053617665642073657474696E6773008B
:1001F000436865636B73756D206661696C65642C1B
:10020000206C6F6164696E672064656661756C74EB
:100210002073657474696E677300436865636B73FC
:10022000756D207061737365642C206C6F616469F7
:100230006E672073617665642073657474696E6798
:10024000730020746F3A20004D6F766520002061A6
:1002500063747561746F72204D6F7665496E20000E
:10026000206163747561746F72204D6F76654F7590
:10027000742000206163747561746F722074726100
:10028000636B696E6720636F6D706C6574652000C9
:10029000205F63757272656E74506F736974696FF5
:1002A0006E3A20002064656C74613A2000205F7211
:1002B0006571756573746564416E676C653A20009D
:1002C00020747261636B696E672063757272656E0C
:1002D00074416E676C653A200020616374756174C7
:1002E0006F722072657472616374656420616E64FC
:1002F00020696E697469616C697A6564006461740F
:1003000061206F766572666C6F772100436F6D6D4B
:10031000616E64206F766572666C6F77210054722F
:1003200061636B546F53756E200057616974696E19
:100330006720466F72204D6F726E696E670045725E
:10034000726F722064657465637465642C205472E6
:1003500061636B6572206D6F76696E6720746F20C4
:1003600064656661756C7420706F736974696F6E13
:100370000000000008000201000003040700000064
:100380000000000000010204081020408001020467
:1003900008102001020408102004040404040404CA
:1003A000040202020202020303030303030000002B
:1003B0000023002600290000000000250028002B53
:1003C0000000000000240027002A004E414E494E44
:1003D000495459494E46CDCCCC3D0AD7233C17B79A
:1003E000D13877CC2B329595E6241FB14F0A000007
:1003F00020410000C84200401C4620BCBE4CCA1B25
:100400000E5AAEC59D743302C702A10CCC10F32B5B
:10041000021111241FBECFEFD8E0DEBFCDBF12E026
:10042000A0E0B1E0E4E0F5E702C005900D92A83C41
:10043000B107D9F725E0A8ECB2E001C01D92A237C0
:10044000B207E1F714E0C0E1D4E004C02297FE0156
:100450000E94C034C630D107C9F70E94372C0C94D3
:10046000753A0C9400001092C9021092C8021092C2
:10047000CB021092CA020895DB01109749F0ED916A
:10048000FC9111970190F081E02DBC01CD01099400
:1004900080E090E00895CF93DF93EC01BC0184E00D
:1004A00090E00E943C02FC01009729F0D183C083B8
:1004B0001382128202C088EC92E0DF91CF910895FE
:1004C000CF93DF93EC01BC0184E090E00E943C02FA
:1004D000FC01009729F0D183C0831382128202C0ED
:1004E0008CEC92E0DF91CF910895CF93DF93CDB75D
:1004F000DEB727970FB6F894DEBF0FBECDBF9A8345
:1005000089836115710519F488EB92E001C0CB0174
:100510009C838B837E836D834F83CE0101960E94E3
:10052000D80327960FB6F894DEBF0FBECDBFDF917C
:10053000CF9108950F931F93CF93DF938B01FC010D
:10054000C281D381209759F0B8018A819B810E9492
:10055000C639892B39F00990D881C02DF3CF80E0BE
:1005600090E001C0CE01DF91CF911F910F910895CE
:10057000CF93DF93EC010E949A02009729F4CE01F9
:10058000DF91CF910C94F704DF91CF9108951092F1
:10059000CD021092CC021092CF021092CE0208959A
:1005A000FC0180819181873091052CF062817381FB
:1005B0008481958108959C012350310922303105B1
:1005C00038F462817381848195810E94DB310895C2
:1005D0000197029740F482819381009721F060E0B7
:1005E00070E00C94CF3660E070E0CB010895CF93BB
:1005F000DF93FC01808191819C01235031092230DD
:10060000310528F4628173818481958129C0873006
:1006100091053CF062817381848195810E94A831AB
:100620001FC001970297A0F4C281D381209781F067
:10063000BE018CE091E00E94C639892B69F04AE046
:1006400050E060E070E0CE01DF91CF910C94323841
:1006500060E070E0CB0104C061E070E080E090E019
:10066000DF91CF910895FC0120812D3051F024F4C9
:100670002950223030F505C0203219F02F3219F000
:1006800008950196F0CFFC0121812A3219F02F3212
:1006900079F008950296FC012081222321F32A3269
:1006A00029F421812F3211F40296DDCF0196F3CF88
:1006B000FC013296CF0121912223A9F22A30D1F7F1
:1006C000D2CF08950F931F93CF93DF931F92CDB78F
:1006D000DEB78C01FC018281938169830E94330320
:1006E000FC0120816981261308C001960E94330312
:1006F000F8019383828381E001C080E00F90DF9155
:10070000CF911F910F910895CF93DF93EC01AA81B0
:10071000BB814C813D812C91273219F4C42FD32FFA
:1007200015C02232D9F3C42FD32FFD012AC03C3586
:1007300059F4FD01329612963C91ABE1B1E06C9117
:10074000611110C0332339F13993DF01AE01FD018E
:10075000319611963C9111973323E9F03213E7CF8C
:10076000319619C0631303C011963C91EBCF1296DA
:10077000E6CF322F3F7D31543A3148F429933196F8
:100780002081AE0130ED320F3A30C0F3F2CF33EDBD
:10079000320F323098F3DA011D92EC012C813D8149
:1007A000FB83EA83BD83AC83C901DF91CF910895B8
:1007B000BF92CF92DF92EF92FF920F931F93CF934E
:1007C000DF9300D000D000D0CDB7DEB78C01FC01A4
:1007D000808191810E9460026C016BE7C8010E94D8
:1007E0006203882309F440C06DE7C8010E946203D8
:1007F000811138C086E0B82EC8010E9484037C01B4
:10080000009791F16AE3C8010E946203882361F1B5
:100810001A821982BE016F5F7F4FC8010E94460491
:10082000882311F1B701C6010E94B802DC010097CC
:10083000D9F01396FC92EE921297FE01319614961F
:100840008B2D01900D928A95E1F76DE7C8010E940A
:100850006203811107C06CE2C8010E94620381112A
:10086000CBCF02C0C60102C08CEC92E026960FB638
:10087000F894DEBF0FBECDBFDF91CF911F910F91D6
:10088000FF90EF90DF90CF90BF900895FF920F936D
:100890001F93CF93DF93EC018B018E81882309F4A2
:1008A00047C081508E838A819B810E9433039B8342
:1008B0008A83FC0180818B3519F08B3761F01CC075
:1008C000CE010E949F04FC0120813181232B59F12C
:1008D00025E030E00AC0CE010E94D803FC0120814F
:1008E0003181232B01F126E030E0F80131832083B0
:1008F0009383828381E018C0873231F091E08232A5
:1009000009F090E0F92E02C0FF24F394CE010E947A
:100910008403009741F0FF2019F022E030E0E5CF9A
:1009200021E030E0E2CF80E09E819F5F9E8301C0A6
:1009300080E0DF91CF911F910F91FF900895DF929A
:10094000EF92FF920F931F93CF93DF9300D000D0CD
:1009500000D0CDB7DEB78C01FC01808191810E946F
:100960004B027C016BE5C8010E946203882379F188
:100970006DE5C8010E946203811127C096E0D92E5F
:100980001A821982BE016F5F7F4FC8010E94460420
:100990008823E9F0C7010E941A050097C1F0FE0103
:1009A0003196DC0112968D2D01900D928A95E1F71A
:1009B0006DE5C8010E946203811107C06CE2C801A5
:1009C0000E9462038111DCCF02C0C70102C088EC23
:1009D00092E026960FB6F894DEBF0FBECDBFDF9132
:1009E000CF911F910F91FF90EF90DF900895CF93DB
:1009F000DF93EC01688179818AE090E00E943C02FB
:100A0000009729F0FC011182108215821482EA817C
:100A1000FB81309751F0208131812115310511F092
:100A2000F901F9CF9183808302C09B838A83DF9190
:100A3000CF910895CF93DF93EC016881798188E0AD
:100A400090E00E943C02009729F0FC011182108284
:100A500013821282EA81FB81309751F0208131812B
:100A60002115310511F0F901F9CF9183808302C07E
:100A70009B838A83DF91CF9108950F931F93FC018D
:100A80004283538364837583068117812085318572
:100A9000040F151F261F371F0287138724873587EA
:100AA0001F910F9108950F931F93FC0102851385E9
:100AB00024853585401B510B620B730B77FD02C0FB
:100AC000808901C080E01F910F9108950F931F93BB
:100AD000CF93DF93EC01EE85FF85309709F0099500
:100AE0000E9450296E837F83888799870A811B81A2
:100AF0002C813D81060F171F281F391F0A871B876E
:100B00002C873D87DF91CF911F910F910895FC01B4
:100B10008AE291E09183808381E0808B778766878A
:100B20001682178210861186F28BE18B2283338323
:100B300044835583228733874487558708950F93CD
:100B40001F93FC014683578360877187028113815D
:100B500024813581040F151F261F371F0287138735
:100B6000248735871F910F910895FC017787668749
:100B700008958F929F92AF92BF92CF92DF92EF92A1
:100B8000FF920F931F93CF93DF93EC01EE85FF85C8
:100B9000309709F009950E9450296B017C018E0164
:100BA0005E012EE1A20EB11C812C912C89A99AA97B
:100BB0008815990524F1D80153968D919C915497ED
:100BC0000097C1F0BFEF8B1A9B0ADC01ED91FC91FD
:100BD0000280F381E02DB701A6010995882351F029
:100BE000F80183899489DC01ED91FC910480F58101
:100BF000E02D09950E5F1F4F0A151B05B9F60E94DF
:100C00005029AB01BC01CE01DF91CF911F910F9113
:100C1000FF90EF90DF90CF90BF90AF909F908F901C
:100C20000C949F0520E030E0FC01E20FF31F0388E5
:100C3000F489E02D309759F00188F289E02DDB012D
:100C400051964D915C915297E417F50719F12E5F7B
:100C50003F4F2E31310541F7FC0120E030E0438960
:100C60005489452B79F4F901EE0FFF1FE80FF91FA6
:100C7000748B638BFC0121A932A92F5F3F4F32ABEC
:100C800021AB08C02F5F3F4F32962F30310539F727
:100C900080E0089581E0089520E030E0FC01E20F5B
:100CA000F31F148A138A2E5F3F4F2E313105B1F79F
:100CB000FC0112AA11AA0895CF92DF92EF92FF923F
:100CC000CF93DF93EC016A017B0120E030E0A901C2
:100CD00060E070E00E94870584E391E09983888357
:100CE0001AAA19AACE010E944C06E881F981019046
:100CF000F081E02DB701A601CE01DF91CF91FF90E9
:100D0000EF90DF90CF900994803D27E0920710F09C
:100D1000805D974050E0E6EEF0E021E02E1B322FA0
:100D20003E0F361728F43491430F511D3196F7CFFB
:100D3000633038F09C0123703327232B11F44F5F6D
:100D40005F4F6DE671E0869F9001879F300D969F03
:100D5000300D11242150310903969695879596956B
:100D60008795280F391FC901840F951F0895DC014D
:100D7000ED91FC910190F081E02D0994CF92DF92EA
:100D8000EF92FF92CF93DF93EC01405853446D46AE
:100D90007843ECE3CE2ED12CE12CF12CCB01BA011F
:100DA000A70196010E947D346D83CA01B901A70194
:100DB00096010E947D346C83CA01B90128E130E0BC
:100DC00040E050E00E947D346B83188243E95EEF7F
:100DD000E8818E2F8370A1E009F0A0E08A2F90E0D7
:100DE000BC0163597E4F2617370740F0BA01681BD4
:100DF000790B260F371FEF5FE883EACF81E0898305
:100E00008981E82FF0E0EB51FF4FE491AA2319F01C
:100E1000823009F4EF5FF0E02E173F0720F02E1B21
:100E20003F0B8F5FECCF2F5F2A83DF91CF91FF9035
:100E3000EF90DF90CF900895CF92EF920F93FC0147
:100E4000603D87E0780710F0605D77406083418304
:100E500022830383E482C5820F91EF90CF9008959F
:100E6000CF93DF93EC0188814A81698190E00E94F1
:100E700084069C01A8E1B0E00E94C4349B01AC014F
:100E80008B81280F311D411D511DACE3B0E00E9444
:100E9000D3349B01AC018C81280F311D411D511DA4
:100EA0000E94D3342D81620F711D811D911D6058E8
:100EB0007C4B8249974CDF91CF91089584E193E078
:100EC0000E940E0C81E008951F93CF93DF93EC01F5
:100ED00068E670E084E193E00E94220C60E084E127
:100EE00093E00E94CF0B2D811AE0822F612F0E9488
:100EF0004934682F660F680F660F620F84E193E034
:100F00000E94CF0B2C81822F612F0E944934682FC1
:100F1000660F680F660F620F84E193E00E94CF0BAB
:100F20002B81822F612F0E944934682F660F680F32
:100F3000660F620F84E193E00E94CF0B60E084E1D2
:100F400093E00E94CF0B2A81822F612F0E944934A7
:100F5000682F660F680F660F620F84E193E00E94AE
:100F6000CF0B2981822F612F0E944934682F660F91
:100F7000680F660F620F84E193E00E94CF0B288117
:100F8000822F612F0E944934682F660F680F660F09
:100F9000620F84E193E00E94CF0B84E193E0DF9144
:100FA000CF911F910C949E0CEF92FF920F931F9381
:100FB000CF93DF9300D0CDB7DEB7062F122F68E6B0
:100FC00070E084E193E049835A830E94220C602FF1
:100FD00070E0685F7F4F84E193E00E94B70649812B
:100FE000042FE42E5A81F52E8E2D801B811740F49C
:100FF000F70161917F0184E193E00E94CF0BF4CF70
:1010000084E193E00F900F90DF91CF911F910F91AA
:10101000FF90EF900C949E0CCF93DF9368E670E006
:1010200084E193E00E94220C60E084E193E00E945E
:10103000CF0B84E193E00E949E0C41E050E068E613
:1010400070E084E193E00E949B0C84E193E00E94B5
:101050007F0B87FB882780F9C82F80E0D82F81E09D
:10106000C8278C2FDF91CF910895CF92DF92EF9216
:10107000FF920F931F93CF93DF93EC0168E670E02C
:1010800084E193E00E94220C60E084E193E00E94FE
:10109000CF0B84E193E00E949E0C47E050E068E6AD
:1010A00070E084E193E00E949B0C84E193E00E9455
:1010B0007F0B8F77982F92959F701AEF082F919F33
:1010C000000D112484E193E00E947F0B9C013327E3
:1010D000F4E035952795FA95E1F7F82E129FF00C7C
:1010E000112484E193E00E947F0B9C013327A4E04C
:1010F00035952795AA95E1F7E82E129FE00C11246B
:1011000084E193E00E947F0B84E193E00E947F0BD7
:101110009C013327B4E035952795BA95E1F7D82E91
:10112000129FD00C112484E193E00E947F0B9C015C
:10113000332794E0359527959A95E1F7C82E129FAD
:10114000C00C112484E193E00E947F0B9C013327A3
:1011500044E0359527954A95E1F7129F800D1124BB
:101160008883C982DA82EB82FC820D83CE01DF9113
:10117000CF911F910F91FF90EF90DF90CF90089546
:10118000CF92DF92EF92FF920F931F93CF93DF9353
:101190001F92CDB7DEB7062FF72E142F68E670E04A
:1011A00084E193E029830E94220C2981622F70E060
:1011B000685F7F4F84E193E00E94B70684E193E08B
:1011C0000E949E0C412F68E684E193E00E94980CF7
:1011D000E02EC02EDF2C8C2D8E19811740F484E177
:1011E00093E00E947F0BF60181936F01F4CF0F9083
:1011F000DF91CF911F910F91FF90EF90DF90CF90F3
:101200000895209112033091130328173907B9F478
:101210009091D0028091D102981789F0E091D0028C
:10122000F0E0EE52FD4F80812091D00230E02F5F40
:101230003F4F2F7333272093D00290E008958FEF14
:101240009FEF08951F93CF93DF93DC015C968D9100
:101250009C915D97009749F481E090E013969C93F0
:101260008E93129780E090E03BC05196ED91FC91F7
:10127000529750962C915097322F30951FB75E960B
:101280004C915E9741FB772770F941FD6095F8948A
:101290004081772311F0422B01C043234083EC01AE
:1012A0002197F1F748E0508160FF02C0522B01C046
:1012B00053235083EC012197F1F76695415099F73C
:1012C0008081772311F0832301C0822B80831FBF8D
:1012D0005C968D919C915D970197F1F781E090E08C
:1012E000DF91CF911F9108950895209112033091BD
:1012F00013032817390781F49091D0028091D1020D
:10130000981751F0E091D002F0E0EE52FD4F80814D
:10131000992787FD909508958FEF9FEF089520916D
:101320001203309113032817390771F48091D10209
:101330002091D00290E0805C9F4F821B910960E475
:1013400070E00E946934089580E090E00895E09193
:101350001203F0911303E817F90769F4A389B4891C
:101360009C918589809589238C9310921303109208
:10137000120381E0089580E00895CF93DF93EC019C
:101380008A8D9B8D892BF1F080911203909113032C
:101390008C179D07B9F0009711F00E94A7098E8D58
:1013A0008E7F8E8F1092D1021092D002D0931303B1
:1013B000C0931203EB89FC8980819D89892B8083EE
:1013C00081E001C080E0DF91CF9108951F920F92DC
:1013D0000FB60F9211242F933F934F935F936F9308
:1013E0007F938F939F93AF93BF93EF93FF93E0917E
:1013F0001203F0911303309709F451C0868DA6852E
:10140000B785958581FF04C08C91892329F447C055
:101410008C91892309F043C0A389B4899C91858963
:10142000809589238C93868997890197F1F7208D80
:10143000318DA685B785758558E040E0C9010197D3
:10144000F1F7842F90E095958795482F6C9167234D
:1014500009F04068515091F7868D81FD409580914B
:10146000D10290E001968F7399272091D00228171E
:1014700049F0A091D102B0E0AE52BD4F4C938093A1
:10148000D10203C0868D8160868F828D938D0197F6
:10149000F1F7A389B4898C919589892B8C93FF915D
:1014A000EF91BF91AF919F918F917F916F915F91DC
:1014B0004F913F912F910F900FBE0F901F90189555
:1014C0002EE331E0FC01318320830C94A7091F93A4
:1014D000CF93DF93EC01162F6E8D6695617081E0DE
:1014E0006827812F0E94162A61E0812F0E94DD2942
:1014F000812F90E0FC01EB57FC4FE491E88BFC015D
:10150000E756FC4FE491F0E0EE0FFF1FE954FC4F6B
:10151000859194919A8B898BDF91CF911F9108953A
:101520001F93CF93DF93EC01162F60E0812F0E9471
:10153000DD298E8D81FD04C061E0812F0E94162A75
:101540001C87812F90E0FC01EB57FC4FE491ED8765
:10155000FC01E756FC4FE491F0E0EE0FFF1FE3556E
:10156000FC4F859194919F878E87DF91CF911F913A
:101570000895FF920F931F93CF93DF93EC01F62E04
:10158000522F1B821A8208EE13E020E030E00C8319
:101590001D832E833F838EE391E0998388831F8A86
:1015A0001E8A198E188E1B8E1A8E1D8E1C8E8E8D85
:1015B0008E7F50FB81F98E8F642FCE010E94670AC7
:1015C0006F2DCE01DF91CF911F910F91FF900C9461
:1015D000900ACF93DF93EC019A01AB011B8E1A8E18
:1015E000198E188E1F8A1E8A60E079E08DE390E0E4
:1015F0000E949F34C9012430310520F0B9016350A5
:10160000710902C061E070E07D8F6C8FEC85E6317E
:1016100008F068C0B901769567956431710518F0D6
:101620006351710902C061E070E07F8B6E8B069799
:1016300018F0C901059702C081E090E0998F888F6A
:10164000C901880F991F820F931F969587959695CC
:1016500087958D30910510F00C9702C081E090E0E5
:101660009B8F8A8F20916800E83050F091E0EE3037
:1016700008F490E081E001C0880F9A95EAF701C074
:1016800084E0822B809368002C85283038F02E303F
:1016900040F0263148F48CE690E008C08DE690E0FA
:1016A00005C08BE690E002C080E090E09C8B8B8BC5
:1016B000283030F481E001C0880F2A95EAF70DC088
:1016C000822F90E02E3010F4089701C00E9791E021
:1016D00001C0990F8A95EAF7892F8D8B8C8D9D8D8E
:1016E0000197F1F7CE01DF91CF910C94BD09809164
:1016F000440390E020914503821B910908952091B5
:10170000450380914403281750F4E22FF0E0EA5B90
:10171000FC4F808190E02F5F2093450308958FEF69
:101720009FEF0895E091450380914403E81730F45A
:10173000F0E0EA5BFC4F808190E008958FEF9FEF2F
:1017400008950895CF92DF92EF92FF920F931F9327
:10175000CF93DF937C01CB018A01209120032223C8
:1017600089F0EB016B01C40ED51ECC15DD0569F0C7
:101770006991D701ED91FC910190F081E02DC701B5
:101780000995F3CF642F0E94620DC801DF91CF91BC
:101790001F910F91FF90EF90DF90CF900895CF931E
:1017A000DF931F92CDB7DEB76983209120032223F8
:1017B000D1F020912103203240F021E030E0FC0103
:1017C0003383228380E090E015C080912203E82FCC
:1017D000F0E0ED5DFC4F998190838F5F8093220351
:1017E0008093210305C061E0CE0101960E94620D45
:1017F00081E090E00F90DF91CF910895FC0113827A
:10180000128248EE53E060E070E0448355836683C3
:1018100077838EE491E0918380830895109245034D
:101820001092440310922203109221030C94A50CF1
:1018300081E080932003609343031092220310926F
:10184000210308950C94180C0F93062F21E040916A
:10185000210363E273E0809143030E940B0D109219
:10186000220310922103109220030F9108958F926A
:101870009F92AF92BF92CF92DF92EF92FF920F931F
:101880001F93CF93DF93EC01F62ED42E480159011C
:10189000EE2019F10E94180C1E2D143008F013E0F0
:1018A0001150B8F0E881F98128E0129FB0011124AD
:1018B000A501940104C056954795379527956A95DB
:1018C000D2F7CA01B9010190F081E02DCE0109954E
:1018D000E7CF60E0CE010E94240C4D2D413208F08C
:1018E00040E22C2D66E473E08F2D0E94C30C109211
:1018F000450380934403DF91CF911F910F91FF9097
:10190000EF90DF90CF90BF90AF909F908F90089511
:10191000CF92EF920F931F93C22EE12C00E010E0C4
:1019200098010E94370C1F910F91EF90CF9008956E
:1019300021E00C94880C21E00C94880C61E00C945C
:10194000240C84E193E00C94FE0B1092D30381E00D
:101950008093D1031092D00361E082E10E94162AA5
:1019600061E083E10E94162AE9EBF0E080818E7F3E
:10197000808380818D7F808388E48093B80085E4B4
:101980008093BC000895413208F043C09091D30386
:101990009111FCCF91E09093D3032093D1032FEFCB
:1019A000209366031092AB03240F2093AA03909315
:1019B000D2039091D203880F892B8093D203809118
:1019C000D003813061F41092D0038091D2038093D0
:1019D000BB008091BC0083FDF8CF85EC01C085EE93
:1019E0008093BC008091D3038130E1F38091AB03FD
:1019F000841710F44091AB032CEA33E0FB01D901CA
:101A00008A2F821B841718F48D918193F9CF842F2C
:101A1000089580E008950F93413208F04AC09091F4
:101A2000D3039111FCCF92E09093D3030093D103A1
:101A30009FEF909366031092AB034093AA03FB01C0
:101A40006CEA73E0DB019A2F961B941718F49191BE
:101A50009D93F9CF1092D2039091D203880F892BD6
:101A60008093D2038091D003813061F41092D0032F
:101A70008091D2038093BB008091BC0083FDF8CF9E
:101A800085EC01C085EE8093BC00222321F080917B
:101A9000D3038230E1F3809166038F3F61F0809140
:101AA0006603803251F080916603803341F483E015
:101AB00007C081E005C080E003C082E001C084E08F
:101AC0000F910895613298F42091D303243089F462
:101AD00060938803FC018AE893E0DC012A2F281B2D
:101AE000261718F421912D93F9CF80E0089581E015
:101AF000089582E0089585ED8093BC008091BC003C
:101B000084FDFCCF1092D303089585EC8093BC0034
:101B10001092D30308951F920F920FB60F921124C3
:101B20002F933F934F935F936F937F938F939F93E5
:101B3000AF93BF93EF93FF938091B900887F803676
:101B400009F49EC078F5883209F45DC090F48031C4
:101B500009F456C038F4882309F4F5C0883009F434
:101B60004FC0F5C0883109F44EC0803209F45FC01F
:101B7000EEC0803409F46AC058F4803309F457C0C9
:101B8000883309F0E4C0809366030E94850DDFC0AE
:101B9000803509F44FC0883509F45DC0883409F0F8
:101BA000D6C0D3C0883909F4C4C0A8F4883709F472
:101BB00067C038F4883609F463C0803709F460C020
:101BC000C6C0883809F4B5C0803909F45FC08038D0
:101BD00009F0BDC05BC0803B09F483C038F4803A93
:101BE00009F466C0883A09F47CC0B1C0803C09F4AD
:101BF000A4C0883C09F4A1C0883B09F487C0A7C0F1
:101C00008091D20310C09091AB038091AA039817E2
:101C100070F5E091AB0381E08E0F8093AB03F0E0B1
:101C2000E455FC4F80818093BB0085EC83C080939A
:101C300066038BC0E091AB0381E08E0F8093AB0312
:101C40008091BB00F0E0E455FC4F80839091AB03A2
:101C50008091AA036BC0E091AB0381E08E0F80936B
:101C6000AB038091BB00F0E0E455FC4F8083809192
:101C7000D10381116AC081E08093D00384EA5EC001
:101C800083E08093D30310926703CFCF80916703E3
:101C9000803208F04EC0E091670381E08E0F8093A0
:101CA00067038091BB00F0E0E859FC4F8083BDCF13
:101CB0000E94850D80916703803230F4E0916703C4
:101CC000F0E0E859FC4F10826091670370E0E0910A
:101CD000CC03F091CD0388E693E009951092670359
:101CE00036C084E08093D303109289031092880356
:101CF000E091CE03F091CF03099580918803811183
:101D000005C081E08093880310928A03E0918903E3
:101D100081E08E0F80938903F0E0E657FC4F8081CD
:101D20008093BB009091890380918803981708F4F1
:101D30007CCF85E88093BC000AC085EC8093BC0012
:101D40001092D30304C0109266030E947B0DFF9192
:101D5000EF91BF91AF919F918F917F916F915F9123
:101D60004F913F912F910F900FBE0F901F9018959C
:101D7000CF92DF92EF92FF921F93CF93DF9300D029
:101D800000D000D0CDB7DEB785E094E00E946C248F
:101D9000182F80916204882309F48CC083E094E0BA
:101DA0000E945A116B017C0120E030E040E351E4D5
:101DB0000E946833181624F5CE0101960E9435085A
:101DC000CE0101960E9430076093D4037093D5032F
:101DD0008093D6039093D703C092D803D092D903AF
:101DE000E092DA03F092DB0361E085E094E00E9488
:101DF000F8222CE231E03093DD032093DC0315C0A0
:101E00002091DC033091DD03215031093093DD0353
:101E10002093DC031216130644F01092DD03109297
:101E2000DC0385E094E00E944325112309F442C0BD
:101E30006AE571E08FEC94E00E94B92C61E671E0F4
:101E40008FEC94E00E94B92C4091D4035091D503BB
:101E50006091D6037091D7032AE030E08FEC94E0D4
:101E60000E94BF2D67E671E08FEC94E00E94B92CD0
:101E700022E030E0B701A6018FEC94E00E94B72E7B
:101E80006EE671E08FEC94E00E94B92C4091D8038B
:101E90005091D9036091DA037091DB0322E030E0C6
:101EA0008FEC94E00E94B72E65E771E08FEC94E030
:101EB0000E94EA2C26960FB6F894DEBF0FBECDBF67
:101EC000DF91CF911F91FF90EF90DF90CF90089519
:101ED00082EE93E00E94600A83E094E00E94591130
:101EE00085E094E00E944E228FE594E00C949B11D3
:101EF000CF93DF9300D0CDB7DEB720916E05309140
:101F00006F052115310511F422E735E0CE01019668
:101F1000821B930B0F900F90DF91CF910895BF928A
:101F2000CF92DF92EF92FF920F931F93CF93DF93A5
:101F3000CDB7DEB762970FB6F894DEBF0FBECDBF48
:101F400026E040E855E260E070E08FEC94E00E940B
:101F50002F2B40E052EC61E070E082EE93E00E94B3
:101F6000E90A60E671E082EE93E00E94882C0E940C
:101F7000780F4AE0BC01CE0101960E94872FBE0176
:101F80006F5F7F4F82EE93E00E94D82CCE010196C6
:101F90000E94CB2E84E193E00E940E0C8CE794E02B
:101FA0000E945E078CE794E00E940C0881111BC020
:101FB0006FE471E082EE93E00E94C62CC12CE12C0C
:101FC0000CE025E146E06FED77E0CE0101960E943E
:101FD0001C07CE0101960E94640782E090E0909376
:101FE0001904809318041092D4031092D503109210
:101FF000D6031092D70368EB72E0CE010D960E94D3
:10200000392FCE0107960E943508FC84EB84DA84D0
:10201000C984B8840F8110E00053184FBE01635F7C
:102020007F4FCE0101960E94662FB801CE01019626
:102030000E94933067E771E00E946B306B2D0E9425
:10204000853067E771E00E946B306C2D0E9485300F
:102050006CE771E00E946B306D2D0E9485306CE65C
:1020600071E00E946B306E2D0E9485306CE671E04D
:102070000E946B306F2D0E94853069E771E00E94ED
:102080006B30BC01CE010D960E944F2FCE01019600
:102090000E94CB2EBE01635F7F4FCE0101960E944E
:1020A000662FBE016F5F7F4F82EE93E00E94D82CB7
:1020B000CE0101960E94CB2E69E371E082EE93E09F
:1020C0000E94C62C8FE594E00E94281368EB7EE006
:1020D00080910104909102040E94B5058091010451
:1020E00090910204DC01ED91FC910190F081E02DD2
:1020F00040ED57E060E070E0099560910104709157
:1021000002048CE294E00E94120664E271E082EE26
:1021100093E00E94C62C42EE53E06CE274E085E04E
:1021200094E00E94772385E094E00E94F52488ECF7
:1021300090E00E94DE349093E1038093E0036DE031
:1021400071E082EE93E00E94C62C0E94780F4AE074
:10215000BC01CE0101960E94872FBE016F5F7F4FA9
:1021600082EE93E00E94D82CCE0101960E94CB2EE5
:10217000CE010D960E94CB2E62960FB6F894DEBF6C
:102180000FBECDBFDF91CF911F910F91FF90EF90C8
:10219000DF90CF90BF900895CF93DF936CE774E00A
:1021A0008FE594E00E94961140E050E0BA018CE285
:1021B00094E00E945C064CE754E06FE574E085E033
:1021C00094E00E94292261E170E083E094E00E94A3
:1021D000551183E190E00E94462CEC0120E030E0B4
:1021E000A90160E070E00E948705D0930204C093CB
:1021F000010420E04DE06CE082EE93E0DF91CF91AE
:102200000C94B90A0C94680F8FEC94E00E944C2A4D
:10221000892BD1F18FEC94E00E94652AE091E003D4
:10222000F091E1032091DE033091DF03A9014F5FBC
:102230005F4F5093DF034093DE03E20FF31F808371
:102240002091DE033091DF03283C31053CF062EF42
:1022500070E08FEC94E00E94882C11C08D30A1F6C4
:10226000E091E003F091E103E20FF31F108260912F
:10227000E0037091E10385E094E00E9464261092EF
:10228000DF031092DE03C0CF08958CE294E00E9439
:10229000B90585E094E00E949E22029721F485E032
:1022A00094E00E94F5240C940411FC017183608376
:1022B00008950895CF92DF92EF92FF92FC01808102
:1022C0000E949729BC01882777FD8095982F0E944E
:1022D000DB3123E030E040EA5BE30E946C336B01CA
:1022E0007C012DEC3CEC4CEC5EE30E94393118167D
:1022F000ACF42DEC3CEC4CEC5EE3C701B6010E9463
:10230000BD3020E030E040E052E40E946C332DEC20
:102310003CEC4CEC5FE30E94403103C060E070E0B5
:10232000CB01FF90EF90DF90CF900895FC01718377
:102330006083148E08950895FC01628321E0248F48
:102340000895FC01638321E0248F08950F931F9368
:10235000FC01448355836683778300871187228736
:10236000338781E0848F1F910F9108950F931F93FE
:10237000FC017587648757874687318B208B0B3527
:1023800011051CF4138B028B04C08AE590E0938B3B
:10239000828B828993898D9724F48DE290E0938BD0
:1023A000828B2D32310524F08CE290E0918B808B72
:1023B0008089918997FF02C0118A108A77FF02C035
:1023C0001586148684859585853B910524F084EBDC
:1023D00090E095878487463B510524F486EB90E096
:1023E00097878687868597858836914024F087E68B
:1023F00091E09787868781E0848F1F910F910895E0
:102400000F931F93FC01758B648B578B468B318F19
:10241000208F138F028F81E0848F1F910F91089579
:10242000CF93DF9300D000D0CDB7DEB7FC01808121
:10243000898381818A8382818B8383818C83698173
:102440007A818B819C810F900F900F900F90DF917C
:10245000CF910895CF93DF9300D0CDB7DEB7FC01C5
:102460002081298381818A8389819A810F900F90AD
:10247000DF91CF91089520E030E080E0FB01919161
:10248000BF01890F2F5F3F4F2E313105B9F781957D
:102490000895EF92FF920F931F93CF93DF93CDB7E1
:1024A000DEB7E9970FB6F894DEBF0FBECDBF7C0153
:1024B000FE013196CE014F96AF011192E817F90750
:1024C000E1F7F7018281882319F081E0898301C057
:1024D0001982F701848595858EAB9FAB8B839C8396
:1024E000868597858CAB9DAB8D839E8380899189F2
:1024F0008AAB9BAB8F8398878289938988AB99AB92
:1025000089879A872481758166813781822F972FE9
:10251000A62FB32F8CA39DA3AEA3BFA32B878DA102
:102520008C878EA18D878FA18E878085718562852E
:102530009385082F172F262F392F08A319A32AA315
:102540003BA38F8789A1888B8AA1898B8BA18A8BDA
:10255000848995898EA79FA78B8B9C8B8689978969
:102560008CA79DA78D8B9E8B808D918D8AA79BA715
:102570008F8B988F828D938D88A799A7898F9A8F3B
:102580008381882319F081E08B8F01C01B8EBA01F3
:10259000C70148AF59AF0E943B128D8F2EE148AD65
:1025A00059AD60E0F701808191810E94D407F70165
:1025B000148E61EE71E08FEC94E00E94C62CE996D7
:1025C0000FB6F894DEBF0FBECDBFDF91CF911F9144
:1025D0000F91FF90EF900895FF920F931F93CF9369
:1025E000DF93EC01FF24F394FA82FC8E1B820AE550
:1025F00010E020E030E04EE051E06AE570E00E943B
:10260000B6118CE090E09D8B8C8B88E090E09F8BE6
:102610008E8B8FE190E0998F888F9B8F8A8FFC8EB5
:1026200081E09FEBA7E3B2E48C839D83AE83BF83FD
:1026300049EB5EE266E972EC488759876A877B87D7
:10264000CE01DF91CF911F910F91FF900C94491211
:102650000F931F93CF93DF93CDB7DEB76F970FB66E
:10266000F894DEBF0FBECDBF8C0120E04EE1BE016D
:102670006F5F7F4FFC01808191810E94C008BE0185
:102680006F5F7F4FC8010E943B12811161C06AE1F8
:1026900072E08FEC94E00E94C62C8981F8018130B1
:1026A00011F4828301C01282CE0103960E942A1285
:1026B000F80195878487CE0105960E942A12F801B9
:1026C00097878687CE0107960E942A12F801918B80
:1026D000808BCE0109960E942A12F801938B828B7F
:1026E000CE010B960E941012F801648375838683D5
:1026F0009783CE010F960E941012F80160877187B0
:1027000082879387CE0143960E942A12F801958B07
:10271000848BCE0145960E942A12F801978B868BF6
:10272000CE0147960E942A12F801918F808FCE0128
:1027300049960E942A12F801938F828F8B8D8130E7
:1027400011F4838302C0F8011382F801148E09C0CA
:1027500060EF71E08FEC94E00E94C62CC8010E94EB
:10276000EC126F960FB6F894DEBF0FBECDBFDF91AF
:10277000CF911F910F910895CF93DF93EC016CEDF2
:1027800071E08FEC94E00E94882C67ED71E08FEC93
:1027900094E00E94882C8A81882319F062ED71E010
:1027A00002C06CEC71E08FEC94E00E94882C66EC27
:1027B00071E08FEC94E00E94882C4C815D816E81E9
:1027C0007F8126E030E08FEC94E00E94B72E60EC31
:1027D00071E08FEC94E00E94882C488559856A85C9
:1027E0007B8526E030E08FEC94E00E94B72E6AEB08
:1027F00071E08FEC94E00E94882C6C857D854AE026
:1028000050E08FEC94E00E949F2D64EB71E08FEC20
:1028100094E00E94882C6E857F854AE050E08FEC22
:1028200094E00E949F2D6EEA71E08FEC94E00E948C
:10283000882C688979894AE050E08FEC94E00E9406
:102840009F2D68EA71E08FEC94E00E94882C6A89E1
:102850007B894AE050E08FEC94E00E949F2D61EA72
:1028600071E08FEC94E00E94882C6C897D894AE0AD
:1028700050E08FEC94E00E949F2D6AE971E08FECAC
:1028800094E00E94882C6E897F894AE050E08FECAA
:1028900094E00E949F2D63E971E08FEC94E00E9428
:1028A000882C688D798D4AE050E08FEC94E00E948E
:1028B0009F2D6CE871E08FEC94E00E94882C6A8D6B
:1028C0007B8D4AE050E08FEC94E00E949F2D65E8FC
:1028D00071E08FEC94E00E94882C8B81882319F0A2
:1028E00060E871E002C06AE771E08FEC94E00E945A
:1028F000882C68E771E08FEC94E0DF91CF910C9425
:10290000C62C22E831E0FC0131832083C9960C9467
:10291000CB2ECF93DF93EC010E948114CE01DF9187
:10292000CF910C94482CBF92CF92DF92EF92FF92FE
:102930000F931F93CF93DF93EC016B01B42E122FF3
:1029400020E030E0A90160E070E00E94870582E8A5
:1029500091E0998388837E0189E3E80EF11C68EB9E
:1029600072E0C7010E94392FB601C7010E944F2FA4
:102970004B2D552747FD50955E8F4D8F212F3327C7
:1029800027FD309538A32F8F112707FD10951AA327
:1029900009A31B8A1C8A1D8A1E8A83E090E0988FF7
:1029A0008F8B188A19A61AA61BA61CA61DA61EA6E2
:1029B0001FA618AA19AA1AAA1BAA1CAA1FAEDF9141
:1029C000CF911F910F91FF90EF90DF90CF90BF902C
:1029D00008950F931F93CF93DF938A01D62FC72FAC
:1029E000FC0187AD882319F120E030E044E353E493
:1029F000B8018D2F9C2F0E946833181664F420E0D4
:102A000030E044EB53E4B8018D2F9C2F0E94BD3081
:102A10009B01AC0103C098014D2F5C2F60E070E07A
:102A200084E393E40E94BD308B01D82FC92FB801F5
:102A30008D2F9C2FDF91CF911F910F910895FC0155
:102A400061A572A583A594A50895CF93DF93EC01AA
:102A500069A97AA98BA99CA90E94DB3120E030E00A
:102A60004AE754E40E9440312DA13EA14FA158A550
:102A70000E946C33DF91CF910895CF92DF92EF9255
:102A8000FF920F931F93CF93DF938C01FC018789F3
:102A9000908D892B91F1C38DD48D618D728D6C1BBE
:102AA0007D0B882777FD8095982F0E94DB316B0185
:102AB0007C01F80165A976A987A990AD0E94DB3158
:102AC0009B01AC01C701B6010E944031F80121A56C
:102AD00032A543A554A50E946C336B017C01BE0155
:102AE000882777FD8095982F0E94DB319B01AC01F0
:102AF000C701B6010E94BE3003C060E070E0CB01A8
:102B0000DF91CF911F910F91FF90EF90DF90CF90C9
:102B10000895CF93DF93EC010E943D15AB01BC01FA
:102B2000CE01DF91CF910C94E914CF93DF93EC01A8
:102B30006B8D7C8D882777FD8095982F0E94DB31E7
:102B40006B8B7C8B8D8B9E8BE881F9810190F08162
:102B5000E02D48E853E160E070E0CE01099560E0C7
:102B60008F8D0E94162A61E089A10E94162A0E9478
:102B700050296DA77EA78FA798AB61E08D8D0E942D
:102B8000162A188E1F8A81E0888BDF91CF910895D5
:102B90008F929F92AF92BF92CF92DF92EF920F935C
:102BA0001F93CF93DF93EC015B014A01690161E060
:102BB0008D8D0E94DD2961E08F8D0E94DD2961E00D
:102BC00089A10E94DD29EFAEB401882777FD8095A9
:102BD000982F0E94DB31AB01BC01CE010E94E914A9
:102BE0000E94A8317A8F698FB501882777FD80957B
:102BF000982F0E94DB31AB01BC01CE010E94E91489
:102C00000E94A8317C8F6B8F188E1F8AC601AA275D
:102C100097FDA095BA2F8DAB9EABAFABB8AFB80107
:102C2000882777FD8095982F0E94DB3120E030E0E7
:102C300048EC52E40E9440316DA37EA38FA398A775
:102C4000CE01DF91CF911F910F91EF90DF90CF9048
:102C5000BF90AF909F908F900C949515CF93DF937A
:102C6000EC0160E08F8D0E94162A61E089A10E942C
:102C7000162A61E08D8D0E94162A81E090E0988FDF
:102C80008F8BDF91CF910895CF93DF93EC0161E0BB
:102C90008F8D0E94162A60E089A10E94162A61E0A9
:102CA0008D8D0E94162A82E090E0988F8F8BDF91A5
:102CB000CF910895CF93DF93EC0160E08F8D0E9458
:102CC000162A60E089A10E94162A60E08D8D0E947C
:102CD000162A83E090E0988F8F8B188ADF91CF912E
:102CE00008954F925F926F927F92AF92BF92CF9270
:102CF000DF92EF92FF920F931F93CF93DF9300D059
:102D000000D000D0CDB7DEB78C010E945029AB01B6
:102D1000BC01C8010E949F05F8018789908D892B0D
:102D200009F044C00E945029F801C5A4D6A4E7A424
:102D3000F0A86C197D098E099F0961AB72AB83AB5A
:102D400094ABC8010E9425156B017C01F80165A9AF
:102D500076A987A990AD0E94DB319B01AC01C70128
:102D6000B6010E94683318160CF027C1F801108ACA
:102D700011A612A613A614A6C8010E945A16B801DD
:102D8000675C7F4FCE0101960E94662F69ED72E06D
:102D9000CE0101960E94A130BC018FEC94E00E940C
:102DA000D82CCE0101960E94CB2E07C1C8010E94EB
:102DB0003D152B013C01F801238934894589568949
:102DC0000E94BD306B017C0120E030E0A9010E942F
:102DD0006833181624F0F7FAF094F7F8F0945801D5
:102DE000F9E3AF0EB11CB501CE0101960E94662F2A
:102DF00060EC72E0CE0101960E94A130BC018FEC24
:102E000094E00E94AB2CCE0101960E94CB2E22E0D2
:102E100030E0B301A2018FEC94E00E94B72E6DEA7E
:102E200072E08FEC94E00E94882CF8014389548969
:102E30006589768922E030E08FEC94E00E94B72E1D
:102E400064EA72E08FEC94E00E94882C22E030E08B
:102E5000B701A6018FEC94E00E94B72E60E972E002
:102E60008FEC94E00E94882CF80141A552A563A53F
:102E700074A522E030E08FEC94E00E94B92E20E0AF
:102E800030E040E050E4C701B6010E943931181625
:102E90005CF0C8010E945A16B501CE0101960E944D
:102EA000662F63E772E042C0F801C388D488E588E2
:102EB000F688A7019601C301B2010E94393187FF4C
:102EC00017C0F8018789908D0297E9F1C8010E9427
:102ED00044160E945029F80165A776A787A790ABF2
:102EE000B501CE0101960E94662F60E672E01EC019
:102EF000A7019601C301B2010E94683318161CF5A0
:102F0000F8018789908D0197F1F0C8010E942E1673
:102F10000E945029F80165A776A787A790ABB50155
:102F2000CE0101960E94662F6EE472E0CE010196FA
:102F30000E94A130BC018FEC94E00E94D82CCE01FD
:102F400001960E94CB2E0E945029F801C5A4D6A458
:102F5000E7A4F0A89B01AC012C193D094E095F09BB
:102F600021AB32AB43AB54AB65A776A787A790AB39
:102F70008789908D8230910569F4C8010E942515DA
:102F80009B01AC01F80161A572A583A594A50E94DF
:102F9000BE300EC0019789F4C8010E9425159B011F
:102FA000AC01F80161A572A583A594A50E94BD306E
:102FB000F80161A772A783A794A726960FB6F89485
:102FC000DEBF0FBECDBFDF91CF911F910F91FF905C
:102FD000EF90DF90CF90BF90AF907F906F905F9019
:102FE0004F9008958F929F92AF92BF92CF92DF92AF
:102FF000EF92FF920F931F93CF93DF93EC010E9408
:10300000E9147B018C01CE010E943D159B01AC01AE
:10301000B701C8010E94BD304B015C0120E030E0E7
:10302000A9010E94683318165CF420E030E040EA01
:1030300050E4C501B4010E94683318165CF05EC00C
:1030400020E030E040EA50ECC501B4010E94393183
:1030500087FF54C068E472E08FEC94E00E94882CF3
:10306000BE01675C7F4F8FEC94E00E94AB2C62E462
:1030700072E08FEC94E00E94882C22E030E0A701FF
:10308000B8018FEC94E00E94B92E698D7A8D882763
:1030900077FD8095982F0E94DB315B016C019B01CD
:1030A000AC01B701C8010E9468331816A4F06B8DFB
:1030B0007C8D882777FD8095982F0E94DB315B01FE
:1030C0006C019B01AC01B701C8010E94393187FD39
:1030D00002C057016801E881F9810190F081E02D7B
:1030E00044E650E060E070E0CE010995C501D601EC
:1030F0008B8B9C8BAD8BBE8B81E0888BDF91CF91CE
:103100001F910F91FF90EF90DF90CF90BF90AF9005
:103110009F908F900895CF92DF92EF92FF920F933E
:103120001F936A017B014093960450939704609328
:10313000980470939904D901C801B05880939204FF
:1031400090939304A0939404B093950420E030E00E
:1031500044EB52ECC701B6010E94683387FD16C0EC
:103160002AE939E943EB52ECC701B6010E94393133
:1031700087FF0CC08AE999E9A3EBB2EC809396042F
:1031800090939704A0939804B0939904C0909604E8
:10319000D0909704E0909804F090990420E030E0FB
:1031A00044EB52E4C701B6010E9439311816B4F05D
:1031B0002AE939E943EB52E4C701B6010E946833BA
:1031C000181664F48AE999E9A3EBB2E480939604B3
:1031D00090939704A0939804B09399041F910F9132
:1031E000FF90EF90DF90CF90089560918E047091E2
:1031F0008F048091900490919104089560918A04C5
:1032000070918B0480918C0490918D04089580912D
:103210007D040895CF92DF92EF92FF926A017B01C5
:1032200021ED36EF4EE959E3C701B6010E946C3338
:1032300025EC30EA4CE057E40E94BE309B01AC0123
:10324000C701B6010E946C3325EB3BE34CE853E425
:103250000E94BE306B017C0120E030E044EB53E47F
:103260000E94683318164CF420E030E044EB53E43D
:10327000C701B6010E94BD30EDCF20E030E0A901CA
:10328000C701B6010E94393187FF0BC020E030E052
:1032900044EB53E4C701B6010E94BE306B017C01D0
:1032A000ECCFC701B601FF90EF90DF90CF9008956B
:1032B0004F925F926F927F928F929F92AF92BF9246
:1032C000CF92DF92EF92FF92CF93DF93CDB7DEB72D
:1032D00028970FB6F894DEBF0FBECDBF6A017B0101
:1032E00028E83AE241E259E3C701B6010E946C3393
:1032F0009B01AC016DE07FE98CE097E40E94BD305A
:103300009B01AC01C701B6010E946C332AEB33EC80
:1033100042EB53E40E94BE302BED3FE049E450E421
:103320000E946C3320E030E044E353E40E944031DB
:103330004B015C010E94CF3369837A838B839C832A
:10334000A5019401C501B4010E94BE302B013C01CE
:103350000E94CF336D837E838F839887A50194016C
:10336000C301B2010E94BE300E94CF332B013C0149
:103370002BE831EE4AE657E3C701B6010E946C33F1
:103380002DEE37ED4DE95BE30E94BE309B01AC01B1
:10339000C701B6010E946C339B01AC016EEA71E17A
:1033A00085EF9FE30E94BD309B01AC0169817A816A
:1033B0008B819C810E946C334B015C0126EF3FECBA
:1033C00043ED58E3C701B6010E946C339B01AC0189
:1033D0006CE578EC83EA9CE30E94BD309B01AC0174
:1033E0006D817E818F8198850E946C339B01AC0139
:1033F000C501B4010E94BE306B017C012CEE34E8A3
:1034000047E959E3C301B2010E946C339B01AC014F
:10341000C701B6010E94BE3028960FB6F894DEBFF1
:103420000FBECDBFDF91CF91FF90EF90DF90CF9097
:10343000BF90AF909F908F907F906F905F904F90D4
:1034400008958F929F92AF92BF92CF92DF92EF92A8
:10345000FF92CF93DF93EC016A017B010E940A196E
:103460004B015C01B701A601CE010E9458199B01D6
:10347000AC01C501B4010E94BE30DF91CF91FF9035
:10348000EF90DF90CF90BF90AF909F908F90089576
:103490004F925F926F927F928F929F92AF92BF9264
:1034A000CF92DF92EF92FF926A017B010E94211A74
:1034B0002B013C012AE534EC41EF54E4C701B6018D
:1034C0000E946C339B01AC016BE774E18AEF92E4DC
:1034D0000E94BD302BED3FE049E450E40E946C3384
:1034E00020E030E044E353E40E9440310E94CF33B7
:1034F0004B015C012EE233E74AEB5BE3C301B2010F
:103500000E94BD306B017C012CE831EA4CE95BE3A1
:10351000C501B4010E946C339B01AC01C701B60127
:103520000E94BD30FF90EF90DF90CF90BF90AF90A2
:103530009F908F907F906F905F904F900895CF9263
:10354000DF92EF92FF926A017B012FE232EA4DEEA9
:103550005AE3C701B6010E946C339B01AC016BE3D7
:103560007AEA8AE19AE30E94BD309B01AC01C7016F
:10357000B6010E946C332FE832E44BE352E40E9420
:10358000BE309B01AC01C701B6010E946C339B01A8
:10359000AC0161E875E98BEA91E40E94BD3020E05E
:1035A00030E040E752E40E94403120E030E040ED5E
:1035B00051E40E94BE3020E030E040E752E40E9437
:1035C000403120E030E048EB51E40E94BE30FF90F3
:1035D000EF90DF90CF9008958F929F92AF92BF921D
:1035E000CF92DF92EF92FF926A017B010E949F1AB5
:1035F0004B015C012AE534EC41EF54E4C701B6010C
:103600000E946C339B01AC016BE774E18AEF92E49A
:103610000E94BD302BED3FE049E450E40E946C3342
:1036200020E030E044E353E40E9440310E943D3109
:103630002CEA35EC47E25BE30E946C339B01AC0162
:10364000C501B4010E94BE30FF90EF90DF90CF9093
:10365000BF90AF909F908F9008954F925F926F921E
:103660007F928F929F92AF92BF92CF92DF92EF9212
:10367000FF925C016A017B010E94EC1A2B013C0164
:10368000B701A601C5010E94481A4B015C012BED50
:103690003FE049E450E4C301B2010E946C3320E0F2
:1036A00030E044E353E40E9440310E94CF336B0189
:1036B0007C012BED3FE049E450E4C501B4010E94D8
:1036C0006C3320E030E044E353E40E9440310E9438
:1036D000CF339B01AC01C701B6010E946C330E943D
:1036E000223120EE3EE245E652E40E946C33FF9028
:1036F000EF90DF90CF90BF90AF909F908F907F9092
:103700006F905F904F9008954F925F926F927F926B
:103710008F929F92AF92BF92CF92DF92EF92FF92E1
:10372000CF93DF93CDB7DEB764970FB6F894DEBFC3
:103730000FBECDBF5C016A017B010E94EC1A2B0118
:103740003C01B701A601C5010E940A194B015C01A9
:1037500028E03BE048E054E3C701B6010E946C3327
:1037600023EE30E540E358E30E94BE309B01AC01FC
:10377000C701B6010E946C339B01AC016CE870EE8E
:1037800088E89CE30E94BD3069837A838B839C83A5
:103790002BED3FE049E450E4C301B2010E946C33D9
:1037A00020E030E044E353E40E94403120E030E088
:1037B00040E05FE30E946C330E9417349B01AC0130
:1037C0000E946C336D837E838F8398872BED3FE05F
:1037D00049E450E4C501B4010E946C3320E030E0BC
:1037E00044E353E40E9440314B015C019B01AC0176
:1037F0000E94BE302B013C010E94CF336D877E8733
:103800008F87988B28E83AE241E259E3C701B60175
:103810000E946C339B01AC016DE07FE98CE097E482
:103820000E94BD309B01AC01C701B6010E946C3300
:103830002AEB33EC42EB53E40E94BE302BED3FE029
:1038400049E450E40E946C3320E030E044E353E468
:103850000E9440316B017C010E94CF3369877A87D7
:103860008B879C87C301B2010E943D31698B7A8BA3
:103870008B8B9C8B20E030E040E850E4C501B40124
:103880000E946C330E94CF332B013C01A7019601AB
:10389000C701B6010E94BE300E94CF334B015C01CC
:1038A0002D853E854F8558896D817E818F819885D4
:1038B0000E946C336B017C0129813A814B815C81D0
:1038C000CA01B9010E94BE3029853A854B855C85C5
:1038D0000E946C339B01AC01C701B6010E94BD3050
:1038E0006B017C0120E030E040E850E469817A819E
:1038F0008B819C810E946C332D813E814F81588544
:103900000E946C3329853A854B855C850E946C3317
:1039100029893A894B895C890E946C339B01AC01EF
:10392000C701B6010E94BE306B017C0120E030E08F
:1039300040E05FE36D817E818F8198850E946C33CA
:103940002D813E814F8158850E946C33A3019201E5
:103950000E946C339B01AC01C701B6010E94BD30CF
:103960006B017C0120E030E040EA5FE369817A810D
:103970008B819C810E946C3329813A814B815C81CF
:103980000E946C33A50194010E946C339B01AC0131
:10399000C701B6010E94BD3020EE3EE245E652E48A
:1039A0000E946C3320E030E040E850E40E946C3329
:1039B00064960FB6F894DEBF0FBECDBFDF91CF91F6
:1039C000FF90EF90DF90CF90BF90AF909F908F903F
:1039D0007F906F905F904F9008952F923F924F92FB
:1039E0005F926F927F928F929F92AF92BF92CF928F
:1039F000DF92EF92FF920F931F93CF93DF93CDB798
:103A0000DEB764970FB6F894DEBF0FBECDBF3C01A2
:103A10002B01D42EF22E1C2DCB0164E670E00E9407
:103A200069344B01AA2497FCA094BA2C8092B60466
:103A30009092B704A092B804B092B904C501B40141
:103A400024E030E040E050E00E949F342093B20434
:103A50003093B3044093B4045093B504DA01C90120
:103A600088199909AA09BB094C015D0192E0890EE8
:103A7000911CA11CB11C8092AE049092AF04A09244
:103A8000B004B092B104B20164597D4E882777FD2D
:103A90008095982F0E94DB3120E030EA46EB53E41A
:103AA0000E946C330E94A8311B012C016093AA0470
:103AB0007093AB048093AC049093AD046D2D70E0D3
:103AC0006F5F7F4F882777FD8095982F0E94DB31AD
:103AD00021E03DEC44EF51E40E946C330E94A83198
:103AE0006093A6047093A7048093A8049093A904FC
:103AF0008F0C911CA11CB11C860E971EA81EB91E0E
:103B0000820C931CA41CB51CC501B4010E94DB31BE
:103B100020E030E94EEB54E40E94BD304B015C01E3
:103B20006093A2047093A3048093A4049093A504CB
:103B30006E2D70E080E090E00E94D93120E030E00E
:103B400040E752E40E94403120E030E040EC51E494
:103B50000E9440311B012C016093C2047093C30486
:103B60008093C4049093C504602F70E080E090E0DF
:103B70000E94D93120E030E040EC51E40E94403115
:103B80006093BE047093BF048093C0049093C104FB
:103B9000A20191010E94BE309B01AC016093BA0466
:103BA0007093BB048093BC049093BD04C501B40121
:103BB0000E94BE3060939E0470939F048093A00483
:103BC0009093A10424E631EA45E15AE40E94BD3015
:103BD00020E03DEA4EE057E40E9440311B012C01F9
:103BE00060939A0470939B0480939C0490939D042B
:103BF000AB01BC01C3010E942D1B4B015C01B20152
:103C0000A101C3010E94841B2B013C0120E030E094
:103C100048EC52E40E946C330E94163220E030E0FF
:103C200048EC52E40E94403160938604709387040C
:103C3000809388049093890420E030E048EC52E4BB
:103C4000C501B4010E946C330E94163220E030E0BE
:103C500048EC52E40E9440316093820470938304E4
:103C600080938404909385046E2D70E0ACE30A9FEA
:103C7000600D711D1124882777FD8095982F0E9473
:103C8000DB316B017C01612F70E080E090E00E94ED
:103C9000DB3120E030E040E752E40E9440319B01FC
:103CA000AC01C701B6010E94BE306B017C0120E06F
:103CB00030E040E850E46091920470919304809168
:103CC0009404909195040E946C339B01AC01C30154
:103CD000B2010E94BD309B01AC01C701B6010E9438
:103CE000BE306B017C0120E030E044EB54E40E94E4
:103CF000683318164CF420E030E044EB54E4C7017C
:103D0000B6010E94BD30EDCF20E030E040E85EE338
:103D1000C701B6010E946C3320E030E044E353E475
:103D20000E94BD302B013C0120E030E044E353EC25
:103D30000E94393187FF0AC020E030E044EB53E4B1
:103D4000C301B2010E94BE302B013C018091960458
:103D500090919704A0919804B091990489839A83D3
:103D6000AB83BC832BED3FE049E450E4BC01CD01C3
:103D70000E946C3320E030E044E353E40E94403181
:103D80006B017C010E94CF3369877A878B879C8780
:103D90002BED3FE049E450E4C501B4010E946C33CF
:103DA00020E030E044E353E40E9440314B015C01E9
:103DB0000E94CF336D877E878F87988BC701B601AE
:103DC0000E943D31698B7A8B8B8B9C8BC501B40132
:103DD0000E943D314B015C012BED3FE049E450E492
:103DE000C301B2010E946C3320E030E044E353E4AD
:103DF0000E9440310E943D316D837E838F8398877E
:103E00002D853E854F85588969857A858B859C856A
:103E10000E946C336B017C01A501940169897A8948
:103E20008B899C890E946C332D813E814F815885FE
:103E30000E946C339B01AC01C701B6010E94BE30E9
:103E40006B017C0120E030E040E85FE30E946833D2
:103E500018168CF020E030E040E85FEBC701B601B7
:103E60000E94393187FF0DC0C12CD12C30E8E32EE0
:103E70003FEBF32E06C0C12CD12C40E8E42E4FE3DB
:103E8000F42EC701B6010E94AF3020EE3EE245E6B7
:103E900052E40E946C336D837E838F8398872BED71
:103EA0003FE049E450E40E946C3320E030E044E31A
:103EB00053E40E9440314B015C010E94CF339B01CF
:103EC000AC0169897A898B899C890E946C336B016A
:103ED0007C012FE632E143E85AE30E94683318166A
:103EE00054F02FE632E143E85AEBC701B6010E94D5
:103EF000393187FF59C0C501B4010E943D319B0192
:103F0000AC0169857A858B859C850E946C332D85F3
:103F10003E854F8558890E94BD30A70196010E94B9
:103F200040316B017C0120E030E040E85FE30E941B
:103F3000683318168CF020E030E040E85FEBC701F2
:103F4000B6010E94393187FF0DC0C12CD12C90E8F9
:103F5000E92E9FEBF92E06C0C12CD12C20E8E22ED1
:103F60002FE3F22EC701B6010E94AF3020EE3EE2F1
:103F700045E652E40E946C339B01AC0160E070E0C6
:103F800084E393E40E94BD306B017C0120E030E0CB
:103F9000A901C301B2010E9468331816ACF4F7FA04
:103FA000F094F7F8F09410C020E030E0A9016981A6
:103FB0007A818B819C810E94683318160CF465C14C
:103FC000C12CD12C760113C020E030E0A901C7013B
:103FD000B6010E94393187FF0AC020E030E044EB8F
:103FE00053E4C701B6010E94BE306B017C012D81F4
:103FF0003E814F81588560E070E084EB92E40E943E
:10400000BD302B013C0120E030E04AEA52E40E943E
:10401000683318160CF4B0C02BED3FE049E450E4CF
:10402000C301B2010E946C3320E030E044E353E46A
:104030000E9440310E9417344B015C0120E030E0C7
:1040400040EA50E4C301B2010E94683318160CF034
:1040500045C0A5019401C501B4010E946C33A501BE
:1040600094010E946C332B013C01A501940166E68A
:1040700076E688E692E40E94403169837A838B83F6
:104080009C83A301920169E27CE58FE89DE30E9495
:1040900040319B01AC0169817A818B819C810E94B6
:1040A000BD3069837A838B839C83A5019401C3010E
:1040B000B2010E946C33A50194010E946C339B01F4
:1040C000AC0166EE7AE584EB98E30E9440319B01F7
:1040D000AC0169817A818B819C813AC023E333E30F
:1040E00043E15FEBC301B2010E94683318169CF5EF
:1040F00029E134E046E35FE3C301B2010E946C337F
:1041000027ED33EA4CE451E40E94BD309B01AC0141
:10411000C301B2010E946C332DEC3CEC4EEC52E436
:104120000E94BE309B01AC01C301B2010E946C33FE
:104130002DEC3CE841E054E40E94BD309B01AC0111
:10414000C301B2010E946C3320E030EE48ED54E42C
:104150000E94BE3008C0A501940167E271E386EABF
:1041600091EC0E94403120E030E041E655E40E94AD
:1041700040319B01AC0103C020E030E0A9016D811A
:104180007E818F8198850E94BD304B015C0120E0CB
:1041900030E048ED52E40E94393187FF72C010923E
:1041A0007D0420E030E048EC52E4C701B6010E94F3
:1041B0006C330E94163220E030E048EC52E40E945A
:1041C000403160938E0470938F0480939004909399
:1041D0009104A501940160E070E084EB92E40E94F8
:1041E000BD3020E030E048EC52E40E946C330E9485
:1041F000163220E030E048EC52E40E9440316093F7
:104200008A0470938B0480938C0490938D0420E037
:1042100030E044EB52E4C501B4010E94393187FF1C
:1042200027C02BED3FE049E450E4C501B4010E94F2
:104230006C3320E030E044E353E40E9440310E94BC
:104240003D3120E030E44CE156E40E946C330E94A2
:10425000163220E030E44CE156E40E944031609395
:104260007E0470937F04809380049093810414C033
:1042700010927E0410927F041092800410928104A8
:104280000BC081E080937D0407C0C12CD12C84E356
:10429000E82E83E4F82EABCE64960FB6F894DEBF1A
:1042A0000FBECDBFDF91CF911F910F91FF90EF9087
:1042B000DF90CF90BF90AF909F908F907F906F9046
:1042C0005F904F903F902F9008959C01FC01EE5B12
:1042D000FF4F80819181680F791F6134710530F43F
:1042E000718360830296820F931F089580E090E0AF
:1042F0000895CF93DF93EC016CE871E08FEC94E0CC
:104300000E94B92C898D9A8D0E948915AB01BC0140
:1043100022E030E08FEC94E00E94B72E62E971E079
:104320008FEC94E00E94B92C898D9A8D0E941F1504
:10433000AB01BC0122E030E08FEC94E00E94B72E8C
:10434000EF89F88D8281882331F169E971E08FEC82
:1043500094E00E94B92C8B8D9C8D0E948915AB0135
:10436000BC0122E030E08FEC94E00E94B72E60EABE
:1043700071E08FEC94E00E94B92C8B8D9C8D0E9493
:104380001F15AB01BC0122E030E08FEC94E0DF911F
:10439000CF910C94B72E67EA71E08FEC94E0DF9137
:1043A000CF910C94B92CCF92EF920F931F93CF9390
:1043B000DF93CDB7DEB72C970FB6F894DEBF0FBEF4
:1043C000CDBF8C0166EB71E08FEC94E00E94B92CBC
:1043D00061E671E08FEC94E00E94B92CF80182A1B3
:1043E00093A1049799F4CE0107960E9435086F8136
:1043F00070E06053784FC12CE12CF80105A12985AC
:104400004885CE0101960E941C0704C0CE0101968A
:104410000E943508CE0101960E943007AB01BC0115
:104420002AE030E08FEC94E00E94BF2D65E771E058
:104430008FEC94E00E94EA2C2C960FB6F894DEBF25
:104440000FBECDBFDF91CF911F910F91EF90CF9015
:104450000895EF92FF920F931F93CF93DF93EC0198
:104460007B018A0120E030E0A90160E070E00E9459
:1044700087058AE992E099838883F88EEF8A1E8FF8
:104480000D8F1C8A1B8A19A21CA21BA21AA2DF91E3
:10449000CF911F910F91FF90EF900895CF93DF93ED
:1044A000EC018AE992E0998388838F8D98A10E941C
:1044B000482C898D9A8D009739F0DC01ED91FC91A3
:1044C0000084F185E02D09958B8D9C8D009749F036
:1044D000DC01ED91FC910084F185E02DDF91CF911D
:1044E0000994DF91CF910895FC016130710571F05D
:1044F0001CF4672B41F008956230710551F0633070
:10450000710559F00895818D928D09C0818D928D2C
:1045100002C0838D948D0C944416838D948D0C94DD
:104520002E16CF93DF93EC01898D9A8D0E945A1637
:104530008B8D9C8DDF91CF910C945A16FC01A18D2F
:10454000B28D57968D919C9158970097A9F0A789A5
:10455000B08D12962C912223B1F0A38DB48D579675
:104560002D913C9158972115310531F0049739F47C
:1045700083E090E0948B838B81E090E00895243079
:10458000310519F405C0049799F382A193A1089508
:10459000348B238BF1CFFC0182A193A1861797075F
:1045A00031F073A362A38789908D0C94BC13089596
:1045B000CF93DF93EC011EA21DA281E0888BE881DE
:1045C000F9810190F081E02D48E853E160E070E06E
:1045D000CE01099564E070E0CE010E94CB22E88113
:1045E000F9810480F581E02DCE01DF91CF9109940E
:1045F0001F93CF93DF93EC01162F0E949E22069704
:1046000021F140E050E064E373E4898D9A8D0E94CB
:10461000F217EF89F88D8281882379F0111105C096
:1046200040E050E064E372E404C040E050E064EB3A
:1046300072E48B8D9C8D0E94F21766E070E0CE01D3
:10464000DF91CF911F910C94CB22DF91CF911F91DD
:104650000895CF92DF92EF920F931F93CF93DF9342
:10466000EC01CF88D88C20E030E0A901F60164810C
:104670007581868197810E943931E82EEE1CEE24E7
:10468000EE1CF601008D118D2489358946855785EC
:1046900064857585898D9A8D0E94C815EF89F88D7E
:1046A0008281882369F0028D138D2689378942899A
:1046B000538960897189E12C8B8D9C8D0E94C8156E
:1046C000E881F9810190F081E02D40E65AEE60E04A
:1046D00070E0CE01099562E070E0CE01DF91CF91EC
:1046E0001F910F91EF90DF90CF900C94CB224F92BF
:1046F0005F926F927F928F929F92AF92BF92CF9272
:10470000EF92FF920F931F93CF93DF93CDB7DEB756
:1047100060970FB6F894DEBF0FBECDBF5C014B01B2
:104720007A0161E070E00E94CB22D5015696FC929E
:10473000EE9255975796ED91FC915897448155818B
:1047400066817781408451846284738481E090E043
:104750004D875E876F87788B0E94462C7C01930182
:1047600082014D855E856F8578890E948B18F501E1
:10477000F0A2E78ECE0107960E9435086F8170E0A7
:104780006053784FCC84EB840A8529854885D50110
:104790005F968D919C9190970E94ED1C6BEB71E060
:1047A000CE0101960E94392F80E490E00E94462CB1
:1047B0007C0103E022E047E0BE016F5F7F4F0E9473
:1047C0009314F501F28EE18ECE0101960E94CB2E5C
:1047D000D50159966D917C915A97C4010E94120699
:1047E00066EC71E0CE0101960E94392F80E490E0E2
:1047F0000E94462C7C0105E024E046E0BE016F5F8C
:104800007F4F0E949314F501F48EE38ECE01019642
:104810000E94CB2ED5015B966D917C915C97C40173
:104820000E941206B501C4010E941206C5010E9431
:10483000292360960FB6F894DEBF0FBECDBFDF917F
:10484000CF911F910F91FF90EF90CF90BF90AF90BD
:104850009F908F907F906F905F904F9008950F93EF
:104860001F93CF93DF93EC018B0163E070E00E9414
:10487000CB226CE172E0C8010E94C639892B19F481
:1048800060E070E01DC067E172E0C8010E94C639B7
:10489000892B19F461E070E013C064E172E0C80193
:1048A0000E94C639892B19F462E070E009C06FE0FC
:1048B00072E0C8010E94C639892B49F463E070E0B8
:1048C000CE01DF91CF911F910F910C947422DF9153
:1048D000CF911F910F910895CF93DF93EC0189A1A0
:1048E000882309F479C06FEC71E08FEC94E00E94AA
:1048F000B92CCE010E94792164ED71E08FEC94E037
:104900000E94B92C66ED71E08FEC94E00E94B92C06
:104910008F8D98A10E940719882319F06CE071E02F
:1049200002C061E171E08FEC94E00E94B92C6CED63
:1049300071E08FEC94E00E94B92C8F8D98A10E94B9
:10494000F518AB01BC0122E030E08FEC94E00E944E
:10495000B72E63EE71E08FEC94E00E94B92C8F8D3E
:1049600098A10E94FE18AB01BC0122E030E08FEC60
:1049700094E00E94B72E64ED71E08FEC94E00E9409
:10498000B92C6AEE71E08FEC94E00E94B92CCE0154
:104990000E949E224AE050E0BC018FEC94E00E940D
:1049A0009F2D60EF71E08FEC94E00E94B92C6B8931
:1049B0007C894AE050E08FEC94E00E949F2D65E7EF
:1049C00071E08FEC94E00E94EA2C8AA19BA10497ED
:1049D00019F4CE010E94D32189A1DF91CF910895CE
:1049E000009711F00C94C62C0895CF93DF93EC013F
:1049F0008B899C89892B61F06EE373E08D899E8998
:104A00000E94F02461E0CE010E94F822188A38C08A
:104A1000CE010E949E22019799F1CE010E949E2212
:104A2000892B71F1CE010E949E22039729F1CE01BC
:104A30000E949E22049701F1CE010E949E220697B9
:104A4000D9F081E0888BE881F9810190F081E02D37
:104A500040E65AEE60E070E0CE01099565E070E056
:104A6000CE010E94CB22E881F9810480F581E02DFE
:104A7000CE01DF91CF910994CE010E942923E1CF8D
:104A8000DF91CF910895CF93DF93EC018F8D98A1A3
:104A90000E940719811105C0CE01DF91CF910C94BE
:104AA000F524DF91CF910895CF93DF93EC018CA192
:104AB000811117C0898D9A8D0E949515EF89F88D07
:104AC0008281882321F08B8D9C8D0E94951581E039
:104AD0008CA36AE273E08D899E89DF91CF910C945B
:104AE000F024DF91CF910895CF93DF93EC016EE135
:104AF00073E08D899E890E94F0248F8D98A10E9479
:104B0000F518AB01BC01898D9A8D0E94F217EF89CF
:104B1000F88D8281882361F08F8D98A10E94FE1804
:104B2000AB01BC018B8D9C8DDF91CF910C94F21762
:104B3000DF91CF9108958F929F92AF92BF92CF92C3
:104B4000DF92EF92FF920F931F93CF93DF93CDB736
:104B5000DEB72A970FB6F894DEBF0FBECDBF5C015B
:104B60000E945029AB01BC01C5010E949F05D501DF
:104B700057968D919C915897FC01248D222371F1B9
:104B80000E944912D5015F968D919C9190970E9449
:104B9000482CD5015796ED91FC9158974481558149
:104BA00066817781C084D184E284F38481E090E0DF
:104BB0004F83588769877A870E94462C4C0197015A
:104BC00086014F81588569857A850E948B18F50189
:104BD00090A2878EC5010E94292363C0C5010E944F
:104BE0009E227C01CE0101960E943508F4E0EF166A
:104BF000F104A1F085E0E816F10409F052C06981E2
:104C000070E06053784FCE80ED800C812B814A811B
:104C1000D5015F968D919C91909730C0D5015996A2
:104C2000ED91FC915A978789908D039749F55B9692
:104C3000ED91FC915C978789908D039709F5F501BB
:104C400085A196A1019668E170E00E946934BC01DB
:104C500096A385A385899689009721F04AE050E0C4
:104C60000E94A72D698170E06053784FC12CE12C20
:104C7000F50105A12B814A81878D90A10E94ED1C31
:104C8000F501878D90A10E940719882321F0C501A5
:104C90000E94542506C0D50194961C92C5010E941D
:104CA00074252A960FB6F894DEBF0FBECDBFDF91F4
:104CB000CF911F910F91FF90EF90DF90CF90BF9019
:104CC000AF909F908F9008955F926F927F928F9296
:104CD0009F92AF92BF92CF92DF92EF92FF920F938B
:104CE0001F93CF93DF93CDB7DEB7C45AD1090FB668
:104CF000F894DEBF0FBECDBF5C014B016B0100E03D
:104D000010E0E12CF12C512CF40101900020E9F786
:104D10003197E819F909C601881999098E179F0773
:104D200008F044C0D6018D916D018C37C1F18D30F2
:104D300059F38A3049F3511019C03701BFEF6B1A8C
:104D40007B0AE5E8F0E0EC0FFD1FEE0DFF1D808310
:104D5000E0E26E16710430F16CE073E0D501559617
:104D60008D919C9156970E94F0241CC03801BFEF92
:104D70006B1A7B0AE5E4F0E0EC0FFD1FE00FF11F7A
:104D80008083E0E46E16710478F06DEF72E0D50177
:104D900055968D919C9156970E94F02405C05524FC
:104DA0005394B2CF7301B0CF8301AECFE5E8F0E00A
:104DB000EC0FFD1FEE0DFF1D1082E5E4F0E0EC0F9F
:104DC000FD1FE00FF11F1082BE016B577F4F8FEC6C
:104DD00094E00E94B92C67EF71E08FEC94E00E94A0
:104DE000B92CBE016B5B7F4F8FEC94E00E94EA2CE4
:104DF00060E972E0CE018B579F4F0E94C639892B24
:104E000021F4C5010E94F524EAC16AE872E0CE01EE
:104E10008B579F4F0E94C639892B21F4C5010E94F0
:104E2000D822DDC165E872E0CE018B579F4F0E940A
:104E3000C639892B49F463E070E0C5010E94CB229A
:104E4000C5010E949122CBC164E772E0CE018B576D
:104E50009F4F0E94C639892B31F4F5018789908DC7
:104E60000E94BC13BCC168E672E0CE018B579F4F15
:104E70000E94C639892B21F4C5010E94D321AFC1FC
:104E800066E572E0CE018B579F4F0E94C639892B91
:104E900029F481E0D50191968C93A1C168E472E078
:104EA000CE018B579F4F0E94C639892B19F4F5010B
:104EB00011A295C163E472E0CE018B579F4F0E940F
:104EC000C639892B09F03FC084EA92E09A8389832E
:104ED00025961FAE1EAE25974AE0BE016B5B7F4F45
:104EE000CE0101960E9475028C01DC018D919C918E
:104EF000892B09F474C169EF71E0C8010E949A021C
:104F0000009731F004960E94D0026B017C0103C02F
:104F1000C12CD12C76016BEF71E0C8010E949A027E
:104F2000009731F004960E94D002AB01BC0103C08F
:104F300040E050E0BA0197018601F5018789908D24
:104F40000E94A61161C069E372E0CE018B579F4FAA
:104F50000E94C639892B09F064C084EA92E09A83E2
:104F6000898325961FAE1EAE25974AE0BE016B5B76
:104F70007F4FCE0101960E9475024C01FC01808199
:104F80009181892B09F42BC16DEF71E0C4010E945E
:104F90009A02009729F004960E94F7028B0102C042
:104FA00000E010E060E072E0C4010E949A02009705
:104FB00029F004960E94F7027B0102C0E12CF12C3B
:104FC00063E072E0C4010E949A02009729F00496FF
:104FD0000E94F7026B0102C0C12CD12C66E072E086
:104FE000C4010E949A02009721F004960E94F702E1
:104FF00002C060E070E09701A601D50157968D913F
:105000009C9158970E940012D501ED91FC9101905E
:10501000F081E02D48EB5BE060E070E0C5010995B0
:10502000DEC06EE372E0CE018B579F4F0E94C639FF
:10503000892B09F058C084EA92E09A8389832596E7
:105040001FAE1EAE25974AE0BE016B5B7F4FCE01BF
:1050500001960E9475024C01FC0180819181892B8F
:1050600009F4BDC069E072E0C4010E949A02009791
:1050700029F004960E94F7028B0102C000E010E0C4
:105080006BEB72E0C4010E949A02009729F004962B
:105090000E94F7027B0102C0E12CF12C6BE072E070
:1050A000C4010E949A02009729F004960E94F70218
:1050B0006B0102C0C12CD12C65E171E0C4010E94DA
:1050C0009A02009721F004960E94F70202C060E065
:1050D00070E09701A601D50157968D919C91589744
:1050E0000E94B61191CF64E372E0CE018B579F4FBF
:1050F0000E94C639892B09F04AC084EA92E09A835B
:10510000898325961FAE1EAE25974AE0BE016B5BD4
:105110007F4FCE0101960E9475028C01FC018081B7
:105120009181892B09F45BC06DE072E0C8010E9497
:105130009A02009759F004960E94F70221E0672B2B
:10514000682B692B09F420E0622F01C060E0D501D3
:1051500057968D919C9158970E949C116AEB72E032
:10516000C8010E949A02009759F004960E94F70223
:1051700021E0672B682B692B09F420E0622F01C026
:1051800060E0F5018789908D0E94A1113DCF68E212
:1051900072E0CE018B579F4F0E94C639892B81F454
:1051A000CE018B5B9F4F0E946639AB01BC01CE01E3
:1051B00001960E94BE06CE0101960E9464070FC0B0
:1051C00061E272E0CE018B579F4F0E94C639892B56
:1051D00031F4BE016B5B7F4FC5010E942F24CC557B
:1051E000DF4F0FB6F894DEBF0FBECDBFDF91CF917A
:1051F0001F910F91FF90EF90DF90CF90BF90AF90F5
:105200009F908F907F906F905F9008951F920F9264
:105210000FB60F9211242F933F938F939F93AF93C9
:10522000BF938091C7049091C804A091C904B09124
:10523000CA043091C60423E0230F2D3720F40196D1
:10524000A11DB11D05C026E8230F0296A11DB11DA9
:105250002093C6048093C7049093C804A093C90404
:10526000B093CA048091CB049091CC04A091CD045A
:10527000B091CE040196A11DB11D8093CB049093F3
:10528000CC04A093CD04B093CE04BF91AF919F9175
:105290008F913F912F910F900FBE0F901F901895F7
:1052A0002FB7F8946091C7047091C8048091C90425
:1052B0009091CA042FBF0895789484B5826084BD0C
:1052C00084B5816084BD85B5826085BD85B581600A
:1052D00085BDEEE6F0E0808181608083E1E8F0E06A
:1052E0001082808182608083808181608083E0E899
:1052F000F0E0808181608083E1EBF0E08081846078
:105300008083E0EBF0E0808181608083EAE7F0E079
:1053100080818460808380818260808380818160DD
:1053200080838081806880831092C10008958E30D0
:1053300008F08E5087702091060190E4299F90011B
:105340001124822B80937C0080917A00806480936A
:105350007A0080917A0086FDFCCF809178002091C0
:10536000790090E0922B0895833081F028F4813009
:1053700099F08230A1F008958730A9F08830B9F013
:105380008430D1F4809180008F7D03C080918000B3
:105390008F7780938000089584B58F7702C084B59D
:1053A0008F7D84BD08958091B0008F7703C0809178
:1053B000B0008F7D8093B0000895CF93DF9390E08D
:1053C000FC01EB57FC4F2491FC01E756FC4F849104
:1053D000882349F190E0880F991FFC01EF53FC4F9F
:1053E000A591B49189549C4FFC01C591D4919FB76C
:1053F000611108C0F8948C91209582238C93888148
:1054000082230AC0623051F4F8948C91322F309587
:1054100083238C938881822B888304C0F8948C9199
:10542000822B8C939FBFDF91CF9108950F931F9391
:10543000CF93DF931F92CDB7DEB7282F30E0F9016D
:10544000EF58FC4F8491F901EB57FC4F1491F9018F
:10545000E756FC4F04910023C9F0882321F06983AB
:105460000E94B4296981E02FF0E0EE0FFF1FE9549C
:10547000FC4FA591B4919FB7F8948C91611103C032
:105480001095812301C0812B8C939FBF0F90DF91DA
:10549000CF911F910F910895FC01818D228D90E095
:1054A000805C9F4F821B91098F7399270895FC019F
:1054B000918D828D981731F0828DE80FF11D858DC9
:1054C00090E008958FEF9FEF0895FC01918D828DFC
:1054D000981761F0828DDF01A80FB11D5D968C9148
:1054E000928D9F5F9F73928F90E008958FEF9FEF53
:1054F000089589EE9BE2892B49F084E091E1892BA4
:1055000029F00E94E92B81110C9404110895FC01EB
:10551000848DDF01A80FB11DA35ABF4F2C91848D3C
:1055200090E001968F739927848FA689B7892C9371
:10553000A089B1898C9180648C93938D848D98130C
:1055400006C00288F389E02D80818F7D80830895D5
:10555000CF93DF93EC01888D8823C9F0EA89FB891A
:10556000808185FD05C0A889B9898C9186FD0FC011
:105570000FB607FCF5CF808185FFF2CFA889B989E6
:105580008C9185FFEDCFCE010E94872AE7CFDF9176
:10559000CF910895CF92DF92FF920F931F93CF93F5
:1055A000DF931F92CDB7DEB76C0181E0D60158962C
:1055B0008C9358975B969C915B975C968C915C97CB
:1055C000981307C05096ED91FC915197808185FD0D
:1055D0002EC0F601038D10E00F5F1F4F0F731127D0
:1055E000F02EF601848DF81211C00FB607FCF9CF2A
:1055F000D6015096ED91FC915197808185FFF1CFB6
:10560000C60169830E94872A6981EBCF838DE80FE9
:10561000F11DE35AFF4F6083D6015B960C935B97B5
:105620005296ED91FC915397808180620CC0D60117
:105630005696ED91FC91579760835096ED91FC91B1
:10564000519780818064808381E090E00F90DF91AA
:10565000CF911F910F91FF90DF90CF900895BF924F
:10566000CF92DF92EF92FF92CF93DF93EC016A012A
:105670007B01B22EE889F98982E08083411581EEB1
:10568000580761057105A1F060E079E08DE390E0D5
:10569000A70196010E947D34215031094109510929
:1056A0005695479537952795211580E1380798F04D
:1056B000E889F989108260E874E88EE190E0A7013A
:1056C00096010E947D3421503109410951095695B6
:1056D000479537952795EC85FD853083EE85FF85C9
:1056E0002083188EEC89FD89B082EA89FB8980814C
:1056F00080618083EA89FB89808188608083EA8970
:10570000FB89808180688083EA89FB8980818F7D25
:105710008083DF91CF91FF90EF90DF90CF90BF908B
:1057200008951F920F920FB60F9211242F938F930B
:105730009F93EF93FF93E091DF04F091E004808169
:10574000E091E504F091E60482FD12C09081809121
:10575000E8048F5F8F732091E904821751F0E09184
:10576000E804F0E0E153FB4F958F8093E80401C01B
:105770008081FF91EF919F918F912F910F900FBE9C
:105780000F901F9018951F920F920FB60F92112431
:105790002F933F934F935F936F937F938F939F9339
:1057A000AF93BF93EF93FF938FEC94E00E94872A0F
:1057B000FF91EF91BF91AF919F918F917F916F91E9
:1057C0005F914F913F912F910F900FBE0F901F90BF
:1057D00018958FEC94E00E944C2A21E0892B09F463
:1057E00020E0822F08951092D2041092D10488EE06
:1057F00093E0A0E0B0E08093D3049093D404A0930E
:10580000D504B093D6048AEA92E09093D0048093B2
:10581000CF0485EC90E09093DC048093DB0484EC6F
:1058200090E09093DE048093DD0480EC90E0909310
:10583000E0048093DF0481EC90E09093E204809395
:10584000E10482EC90E09093E4048093E30486EC1E
:1058500090E09093E6048093E5041092E80410929F
:10586000E9041092EA041092EB04089508950E944E
:105870005C290E94362C0E948F0FC9E7DAE20E9451
:1058800045112097E1F30E94792AF9CF0C94DE3478
:105890000C947635CF92DF92EF92FF920F931F9385
:1058A000CF93DF937C016A01EB0100E010E00C155F
:1058B0001D0571F06991D701ED91FC910190F08186
:1058C000E02DC7010995892B19F00F5F1F4FEFCF0E
:1058D000C801DF91CF911F910F91FF90EF90DF9062
:1058E000CF9008956115710581F0DB010D900020C6
:1058F000E9F7AD0141505109461B570BDC01ED9111
:10590000FC910280F381E02D099480E090E00895FD
:10591000EF92FF920F931F93CF93DF938C017B0144
:10592000C0E0D0E0F701EC0FFD1F6491662359F051
:10593000F801A081B181ED91FC91C8010995892BF5
:1059400011F02196EFCFCE01DF91CF911F910F91F2
:10595000FF90EF900895DC01ED91FC91DB0114962E
:105960004D915C9115976D917C910280F381E02DB2
:1059700009940C94722CDC01ED91FC910190F08162
:10598000E02D099466EB72E00C94722C0F931F9338
:10599000CF93DF93EC010E94882C8C01CE010E94F2
:1059A000C22C800F911FDF91CF911F910F9108950D
:1059B0000F931F93CF93DF93EC010E94AB2C8C01CC
:1059C000CE010E94C22C800F911FDF91CF911F91B9
:1059D0000F9108950F931F93CF93DF93EC010E94D3
:1059E000722C8C01CE010E94C22C800F911FDF917E
:1059F000CF911F910F9108958F929F92AF92BF9276
:105A0000CF92DF92EF92FF920F931F93CF93DF938A
:105A1000CDB7DEB7A1970FB6F894DEBF0FBECDBFEE
:105A20007C01C42EE52FCB01D22E19A221E02D1529
:105A300010F02AE0D22E8E010F5D1F4F8D2C912C7D
:105A4000A12CB12C6C2D7E2FA50194010E947D34D8
:105A50008C2DD29E80191124015011098A3014F422
:105A6000805D01C0895CF801808321153105410505
:105A7000510521F0C22EE32FCA01E4CFB801C701BE
:105A80000E94722CA1960FB6F894DEBF0FBECDBF58
:105A9000DF91CF911F910F91FF90EF90DF90CF900A
:105AA000BF90AF909F908F900895CF92DF92EF922A
:105AB000FF920F931F93CF93DF93EC016A017B0159
:105AC0002115310579F4E881F9810190F081E02D0B
:105AD000642FDF91CF911F910F91FF90EF90DF9096
