:100000000C94FB010C9423020C9423020C94230205
:100010000C9423020C9423020C9423020C942302CC
:100020000C9423020C9423020C9423020C942302BC
:100030000C9423020C9423020C9423020C942302AC
:100040000C9488240C9423020C94F6260C942827F4
:100050000C9423020C9423020C9423020C9423028C
:100060000C945B230C942302036EDB363D9A999922
:10007000993DABAAAA2A3E000000803F072C7AA532
:10008000BA6CC590DA3B9365FC8BBC53F810FD3C11
:100090005692834DBD879D3AB63DCBC9BF5BBE73BB
:1000A000DA0FC93F05A84CCDB2D44EB93836A902F3
:1000B0000C50B9918688083CA6AAAA2ABE00000066
:1000C000803F0664EC1B3C04BC163E3BE5B93CC9D2
:1000D0003C37C29E5A3D660498083EEA69AAAA3E89
:1000E000000000803F007265636569766520627577
:1000F00066666572206F766572666C6F77213A204E
:100100000052414D20436F6D706C6574696E6720BD
:1001100073657475703A2000496E697469616C6921
:100120007A696E6720747261636B6572004C6F61EF
:1001300064696E6720636F6E666967757261746962
:100140006F6E00525443206E6F742072756E6E692C
:100150006E67210052414D204174207374617274A6
:10016000206F662073657475703A20007D002C2224
:100170007376223A002C227368223A002C226C7685
:10018000223A002C226C68223A002C2278223A0073
:100190002C226E223A002C2277223A002C22652251
:1001A0003A002C226F223A002C2261223A0066612A
:1001B0006C73650074727565002264223A004366B0
:1001C0007C7B0053617665642073657474696E6727
:1001D0007300436865636B73756D206661696C6558
:1001E000642C206C6F6164696E672064656661755C
:1001F0006C742073657474696E677300436865631B
:100200006B73756D207061737365642C206C6F6106
:1002100064696E67207361766564207365747469C0
:100220006E67730020746F3A20004D6F7665200072
:10023000206163747561746F72204D6F7665496ECD
:100240002000206163747561746F72204D6F766554
:100250004F75742000206163747561746F7220742F
:100260007261636B696E6720636F6D706C65746536
:100270002000205F63757272656E74506F736974CD
:10028000696F6E3A20002064656C74613A2000202A
:100290005F726571756573746564416E676C653A0C
:1002A000200020747261636B696E672063757272DF
:1002B000656E74416E676C653A20002061637475E9
:1002C00061746F7220726574726163746564206119
:1002D0006E6420696E697469616C697A6564006432
:1002E000617461206F766572666C6F772100436F71
:1002F0006D6D616E64206F766572666C6F7721003C
:10030000547261636B546F53756E2000576169744A
:10031000696E6720466F72204D6F726E696E67005E
:100320004572726F722064657465637465642C2015
:10033000547261636B6572206D6F76696E672074AD
:100340006F2064656661756C7420706F7369746981
:100350006F6E001F1C1F1E1F1E1F1F1E1F1E1F0053
:100360000000080002010000030407000000000074
:10037000000000010204081020408001020408105F
:1003800020010204081020040404040404040402EC
:10039000020202020203030303030300000000251C
:1003A0000028002B0000000000240027002A004E37
:1003B000414E494E495459494E46CDCCCC3D0AD7C1
:1003C000233C17B7D13877CC2B329595E6241FB153
:1003D0004F0A000020410000C84200401C4620BCDB
:1003E000BE4CCA1B0E5AAEC59D745E03D01A641B68
:1003F00079225827880311241FBECFEFD8E0DEBF33
:10040000CDBF12E0A0E0B1E0ECEEFBE602C005904B
:100410000D92A23AB107D9F724E0A2EAB2E001C0F6
:100420001D92AA3DB207E1F713E0C4EFD3E004C088
:100430002297FE010E942930CA3ED107C9F70E94C7
:100440009C270C94E9350C94000088EA92E00C9407
:100450004B1ACF93DF9300D0CDB7DEB72091D604EF
:100460003091D7042115310511F42AED34E0CE0185
:100470000196821B930B0F900F90DF91CF910895FF
:10048000BF92CF92DF92EF92FF920F931F93CF9381
:10049000DF93CDB7DEB762970FB6F894DEBF0FBE1D
:1004A000CDBF26E040E855E260E070E087E394E0ED
:1004B0000E94942664E571E087E394E00E94ED27B2
:1004C0000E9429024AE0BC01CE0101960E94EE2A58
:1004D000BE016F5F7F4F87E394E00E943F28CE010B
:1004E00001960E94322A8EE693E00E943A220E94F0
:1004F000FB1F8CE193E00E94FD1F81111BC063E490
:1005000071E087E394E00E942D28C12CE12C0CE0DF
:1005100025E146E06FED77E0CE0101960E94B91F1C
:10052000CE0101960E94F42082E090E09093BC02FC
:100530008093BB0262E972E0CE010D960E94A02A70
:10054000CE0107960E942720FC84EB84DA84C984BC
:10055000B8840F8110E00053184FBE01635F7F4FD6
:10056000CE0101960E94CD2AB801CE0101960E94CB
:10057000FC2B66E071E00E94D42B6B2D0E94EE2BC9
:1005800066E071E00E94D42B6C2D0E94EE2B6BE094
:1005900071E00E94D42B6D2D0E94EE2B6DE271E074
:1005A0000E94D42B6E2D0E94EE2B6DE271E00E9412
:1005B000D42B6F2D0E94EE2B68E071E00E94D42BAB
:1005C000BC01CE010D960E94B62ACE0101960E9472
:1005D000322ABE01635F7F4F87E394E00E943F2889
:1005E0006DE271E087E394E00E942D2880E093E0C3
:1005F0000E94660565E272E08091A6029091A702D2
:100600000E94521E8091A6029091A702DC01ED91FA
:10061000FC910190F081E02D40ED57E060E070E04A
:1006200009956091A6027091A7028DEC92E00E945C
:10063000AF1E68E171E087E394E00E942D286DEC25
:1006400072E088EA92E00E94B11588EA92E00E9486
:10065000641688EC90E00E9447309093A502809346
:10066000A40261E071E087E394E00E94ED270E941C
:1006700029024AE0BC01CE0101960E94EE2ABE0189
:100680006F5F7F4F87E394E00E943F28CE01019681
:100690000E94322ACE010D960E94322A62960FB62F
:1006A000F894DEBF0FBECDBFDF91CF911F910F91A8
:1006B000FF90EF90DF90CF90BF900895CF93DF939E
:1006C0006CE173E080E093E00E94E10340E050E0E1
:1006D000BA018DEC92E00E94F91E4CE153E060E01B
:1006E00073E088EA92E00E944D1483E190E00E945A
:1006F000AB27EC0120E030E0A90160E070E00E944F
:10070000241ED093A702C093A602DF91CF91089533
:1007100088EA92E00E94721480E093E00C94E60371
:1007200087E394E00E94B125892BD1F187E394E01F
:100730000E94CA25E091A402F091A5022091A20294
:100740003091A302A9014F5F5F4F5093A3024093E2
:10075000A202E20FF31F80832091A2023091A30234
:10076000283C31053CF066EE70E087E394E00E949F
:10077000ED2711C08D30A1F6E091A402F091A50201
:10078000E20FF31F10826091A4027091A50288EA23
:1007900092E00E94C7171092A3021092A202C0CF4B
:1007A00008958DEC92E00E94561E88EA92E00E9425
:1007B0000915029721F488EA92E00E9464160C94CD
:1007C0009003FC0171836083138E08950895FC01EA
:1007D000628321E0238F08950F931F93FC014383CD
:1007E000548365837683078310872187328781E06E
:1007F000838F1F910F9108950F931F93FC017487AE
:10080000638756874587308B27870B3511051CF486
:10081000128B018B04C08AE590E0928B818B8189D9
:1008200092898D9724F48DE290E0928B818B2D320A
:10083000310524F08CE290E0908B87878785908942
:1008400097FF02C0108A178677FF02C014861386AE
:1008500083859485853B910524F084EB90E0948713
:100860008387463B510524F486EB90E09687858785
:10087000858596858836914024F087E691E09687B5
:10088000858781E0838F1F910F9108950F931F93A8
:10089000FC01748B638B568B458B308F278B128FAB
:1008A000018F81E0838F1F910F910895CF93DF9384
:1008B00000D000D0CDB7DEB7FC0180818983818173
:1008C0008A8382818B8383818C8369817A818B8106
:1008D0009C810F900F900F900F90DF91CF91089512
:1008E000CF93DF9300D0CDB7DEB7FC012081298301
:1008F00081818A8389819A810F900F90DF91CF91B6
:10090000089520E030E080E0FB019191BF01890F64
:100910002F5F3F4F2E313105B9F781950895EF9242
:10092000FF920F931F93CF93DF93CDB7DEB7E99775
:100930000FB6F894DEBF0FBECDBF7C01FE0131962D
:10094000CE014F96AF011192E817F907E1F7F701D1
:100950008281882319F081E0898301C01982F7011F
:10096000838594858EAB9FAB8B839C838585968591
:100970008CAB9DAB8D839E83878590898AAB9BAB27
:100980008F8398878189928988AB99AB89879A8769
:100990002381748165813681822F972FA62FB32FF3
:1009A0008CA39DA3AEA3BFA32B878DA18C878EA103
:1009B0008D878FA18E878781708561859285082FAD
:1009C000172F262F392F08A319A32AA33BA38F87FC
:1009D00089A1888B8AA1898B8BA18A8B8389948931
:1009E0008EA79FA78B8B9C8B858996898CA79DA7AB
:1009F0008D8B9E8B8789908D8AA79BA78F8B988FD5
:100A0000818D928D88A799A7898F9A8FBA01C70186
:100A100048AF59AF0E9481048B8F2EE148AD59AD8C
:100A200060E0F701808191810E946B21F701138EB4
:100A300063EC71E087E394E00E942D28E9960FB6FD
:100A4000F894DEBF0FBECDBFDF91CF911F910F9104
:100A5000FF90EF900895FF920F931F93CF93DF9332
:100A6000EC01FF24F394FA82FB8E0AE510E020E00B
:100A700030E04EE051E06AE570E00E94FC038CE05B
:100A800090E09C8B8B8B88E090E09E8B8D8B8FE130
:100A900090E0988F8F8B9A8F898FFB8E81E09FEBF0
:100AA000A7E3B2E48B839C83AD83BE8349EB5EE214
:100AB00066E972EC4F83588769877A87CE01DF91A8
:100AC000CF911F910F91FF900C948F040F931F9360
:100AD000CF93DF93CDB7DEB76F970FB6F894DEBF35
:100AE0000FBECDBF8C0120E04EE1BE016F5F7F4F96
:100AF000FC01808191810E94B320BE016F5F7F4F16
:100B0000C8010E948104811159C06CEF71E087E334
:100B100094E00E942D288981F801813011F48283AC
:100B200001C01282CE0103960E947004F8019487DE
:100B30008387CE0105960E947004F8019687858709
:100B4000CE0107960E947004F801908B8787CE0132
:100B500009960E947004F801928B818BCE010B964E
:100B60000E945604F8016383748385839683CE01C3
:100B70000F960E945604F8016783708781879287D9
:100B8000CE0143960E947004F801948B838BCE01B2
:100B900045960E947004F801968B858BCE0147968E
:100BA0000E947004F801908F878BCE0149960E94B5
:100BB0007004F801928F818F138E09C062ED71E08D
:100BC00087E394E00E942D28C8010E942B056F96B0
:100BD0000FB6F894DEBF0FBECDBFDF91CF911F914E
:100BE0000F910895CF93DF93EC016EEB71E087E3F3
:100BF00094E00E94ED2769EB71E087E394E00E94A6
:100C0000ED278A81882319F064EB71E002C06EEA57
:100C100071E087E394E00E94ED2768EA71E087E3E2
:100C200094E00E94ED274B815C816D817E8126E0FE
:100C300030E087E394E00E941E2A62EA71E087E3D5
:100C400094E00E94ED274F81588569857A8526E0DA
:100C500030E087E394E00E941E2A6CE971E087E3AC
:100C600094E00E94ED276B857C854AE050E087E3A5
:100C700094E00E94062966E971E087E394E00E940F
:100C8000ED276D857E854AE050E087E394E00E9481
:100C9000062960E971E087E394E00E94ED276F8503
:100CA00078894AE050E087E394E00E9406296AE8E8
:100CB00071E087E394E00E94ED2769897A894AE030
:100CC00050E087E394E00E94062963E871E087E33F
:100CD00094E00E94ED276B897C894AE050E087E32D
:100CE00094E00E9406296CE771E087E394E00E949B
:100CF000ED276D897E894AE050E087E394E00E9409
:100D0000062965E771E087E394E00E94ED276F898B
:100D1000788D4AE050E087E394E00E9406296EE671
:100D200071E087E394E00E94ED27698D7A8D4AE0B7
:100D300050E087E394E00E9406296CE671E087E3C7
:100D400094E0DF91CF910C942D2821E131E0FC015A
:100D500031832083C9960C94322ACF93DF93EC0120
:100D60000E94A506CE01DF91CF910C94AD27BF92D2
:100D7000CF92DF92EF92FF920F931F93CF93DF9367
:100D8000EC016B01B42E122F20E030E0A90160E0ED
:100D900070E00E94241E81E191E0998388837E01A6
:100DA00089E3E80EF11C62E972E0C7010E94A02A03
:100DB000B601C7010E94B62A4B2D552747FD509515
:100DC0005E8F4D8F212F332727FD309538A32F8F2E
:100DD000112707FD10951AA309A31B8A1C8A1D8AD7
:100DE0001E8A83E090E0988F8F8B188A19A61AA626
:100DF0001BA61CA61DA61EA61FA618AA19AA1AAADB
:100E00001BAA1CAA1FAEDF91CF911F910F91FF90DB
:100E1000EF90DF90CF90BF9008950F931F93CF93E3
:100E2000DF938A01D62FC72FFC0187AD882319F1E4
:100E300020E030E044E353E4B8018D2F9C2F0E9462
:100E4000D12E181664F420E030E044EB53E4B801EE
:100E50008D2F9C2F0E94262C9B01AC0103C0980172
:100E60004D2F5C2F60E070E084E393E40E94262C19
:100E70008B01D82FC92FB8018D2F9C2FDF91CF91D7
:100E80001F910F910895FC0161A572A583A594A5FA
:100E90000895CF93DF93EC0169A97AA98BA99CA946
:100EA0000E94442D20E030E04AE754E40E94A92C3F
:100EB0002DA13EA14FA158A50E94D52EDF91CF9123
:100EC0000895CF92DF92EF92FF920F931F93CF93EB
:100ED000DF938C01FC018789908D892B91F1C38D63
:100EE000D48D618D728D6C1B7D0B882777FD80956D
:100EF000982F0E94442D6B017C01F80165A976A909
:100F000087A990AD0E94442D9B01AC01C701B60199
:100F10000E94A92CF80121A532A543A554A50E9441
:100F2000D52E6B017C01BE01882777FD8095982F17
:100F30000E94442D9B01AC01C701B6010E94272CE1
:100F400003C060E070E0CB01DF91CF911F910F9162
:100F5000FF90EF90DF90CF900895CF93DF93EC0157
:100F60000E946107AB01BC01CE01DF91CF910C94CF
:100F70000D07CF93DF93EC016B8D7C8D882777FD78
:100F80008095982F0E94442D6B8B7C8B8D8B9E8B34
:100F9000E881F9810190F081E02D48E853E160E0BB
:100FA00070E0CE01099560E08F8D0E947B2561E0A5
:100FB00089A10E947B250E94D2246DA77EA78FA7BE
:100FC00098AB61E08D8D0E947B25188E1F8A81E091
:100FD000888BDF91CF9108958F929F92AF92BF92AD
:100FE000CF92DF92EF920F931F93CF93DF93EC0199
:100FF0005B014A01690161E08D8D0E94422561E03B
:101000008F8D0E94422561E089A10E944225EFAEAA
:10101000B401882777FD8095982F0E94442DAB015D
:10102000BC01CE010E940D070E94112D7A8F698F9D
:10103000B501882777FD8095982F0E94442DAB013C
:10104000BC01CE010E940D070E94112D7C8F6B8F79
:10105000188E1F8AC601AA2797FDA095BA2F8DABBF
:101060009EABAFABB8AFB801882777FD8095982FBE
:101070000E94442D20E030E048EC52E40E94A92C6C
:101080006DA37EA38FA398A7CE01DF91CF911F916F
:101090000F91EF90DF90CF90BF90AF909F908F9087
:1010A0000C94B907CF93DF93EC0160E08F8D0E9421
:1010B0007B2561E089A10E947B2561E08D8D0E94E6
:1010C0007B2581E090E0988F8F8BDF91CF91089501
:1010D000CF93DF93EC0161E08F8D0E947B2560E070
:1010E00089A10E947B2561E08D8D0E947B2582E095
:1010F00090E0988F8F8BDF91CF910895CF93DF93FE
:10110000EC0160E08F8D0E947B2560E089A10E9448
:101110007B2560E08D8D0E947B2583E090E0988F99
:101120008F8B188ADF91CF9108954F925F926F92C3
:101130007F92AF92BF92CF92DF92EF92FF920F9386
:101140001F93CF93DF9300D000D000D0CDB7DEB790
:101150008C010E94D224AB01BC01C8010E943C1E3C
:10116000F8018789908D892B09F044C00E94D22410
:10117000F801C5A4D6A4E7A4F0A86C197D098E09CE
:101180009F0961AB72AB83AB94ABC8010E94490766
:101190006B017C01F80165A976A987A990AD0E9431
:1011A000442D9B01AC01C701B6010E94D12E181637
:1011B0000CF027C1F801108A11A612A613A614A6D6
:1011C000C8010E947E08B801675C7F4FCE0101967E
:1011D0000E94CD2A6BEB72E0CE0101960E940A2C90
:1011E000BC0187E394E00E943F28CE0101960E9453
:1011F000322A07C1C8010E9461072B013C01F80196
:1012000023893489458956890E94262C6B017C01EB
:1012100020E030E0A9010E94D12E181624F0F7FA40
:10122000F094F7F8F0945801F9E3AF0EB11CB50152
:10123000CE0101960E94CD2A62EA72E0CE010196AB
:101240000E940A2CBC0187E394E00E941228CE0180
:1012500001960E94322A22E030E0B301A20187E326
:1012600094E00E941E2A6FE872E087E394E00E94F7
:10127000ED27F801438954896589768922E030E0B9
:1012800087E394E00E941E2A66E872E087E394E018
:101290000E94ED2722E030E0B701A60187E394E049
:1012A0000E941E2A62E772E087E394E00E94ED2725
:1012B000F80141A552A563A574A522E030E087E3BB
:1012C00094E00E94202A20E030E040E050E4C70192
:1012D000B6010E94A22C18165CF0C8010E947E087C
:1012E000B501CE0101960E94CD2A65E572E042C0AB
:1012F000F801C388D488E588F688A7019601C30160
:10130000B2010E94A22C87FF17C0F8018789908D37
:101310000297E9F1C8010E9468080E94D224F801EE
:1013200065A776A787A790ABB501CE0101960E946D
:10133000CD2A62E472E01EC0A7019601C301B2018A
:101340000E94D12E18161CF5F8018789908D0197FF
:10135000F1F0C8010E9452080E94D224F80165A74A
:1013600076A787A790ABB501CE0101960E94CD2A42
:1013700060E372E0CE0101960E940A2CBC0187E373
:1013800094E00E943F28CE0101960E94322A0E94DA
:10139000D224F801C5A4D6A4E7A4F0A89B01AC010F
:1013A0002C193D094E095F0921AB32AB43AB54AB5D
:1013B00065A776A787A790AB8789908D8230910526
:1013C00069F4C8010E9449079B01AC01F80161A5BD
:1013D00072A583A594A50E94272C0EC0019789F4BD
:1013E000C8010E9449079B01AC01F80161A572A5E3
:1013F00083A594A50E94262CF80161A772A783A754
:1014000094A726960FB6F894DEBF0FBECDBFDF912E
:10141000CF911F910F91FF90EF90DF90CF90BF90F1
:10142000AF907F906F905F904F9008958F929F92B2
:10143000AF92BF92CF92DF92EF92FF920F931F93E2
:10144000CF93DF93EC010E940D077B018C01CE014D
:101450000E9461079B01AC01B701C8010E94262CC4
:101460004B015C0120E030E0A9010E94D12E18164A
:101470005CF420E030E040EA50E4C501B4010E9491
:10148000D12E18165CF05EC020E030E040EA50EC4F
:10149000C501B4010E94A22C87FF54C06AE272E029
:1014A00087E394E00E94ED27BE01675C7F4F87E3EE
:1014B00094E00E94122864E272E087E394E00E94C4
:1014C000ED2722E030E0A701B80187E394E00E9415
:1014D000202A698D7A8D882777FD8095982F0E9424
:1014E000442D5B016C019B01AC01B701C8010E9456
:1014F000D12E1816A4F06B8D7C8D882777FD8095F2
:10150000982F0E94442D5B016C019B01AC01B70137
:10151000C8010E94A22C87FD02C057016801E88122
:10152000F9810190F081E02D44E650E060E070E048
:10153000CE010995C501D6018B8B9C8BAD8BBE8BE3
:1015400081E0888BDF91CF911F910F91FF90EF90F9
:10155000DF90CF90BF90AF909F908F900895CF92E3
:10156000DF92EF92FF920F931F936A017B014093EA
:101570003603509337036093380370933903D901CE
:10158000C801B0588093320390933303A09334037F
:10159000B093350320E030E044EB52ECC701B601D4
:1015A0000E94D12E87FD16C02AE939E943EB52EC9F
:1015B000C701B6010E94A22C87FF0CC08AE999E9F5
:1015C000A3EBB2EC8093360390933703A0933803D8
:1015D000B0933903C0903603D0903703E0903803BE
:1015E000F090390320E030E044EB52E4C701B6014B
:1015F0000E94A22C1816B4F02AE939E943EB52E410
:10160000C701B6010E94D12E181664F48AE999E93F
:10161000A3EBB2E48093360390933703A09338038F
:10162000B09339031F910F91FF90EF90DF90CF900F
:10163000089560912E0370912F0380913003909153
:101640003103089560912A0370912B0380912C033C
:1016500090912D03089580911D030895CF92DF92FC
:10166000EF92FF926A017B0121ED36EF4EE959E3DB
:10167000C701B6010E94D52E25EC30EA4CE057E4B4
:101680000E94272C9B01AC01C701B6010E94D52EF8
:1016900025EB3BE34CE853E40E94272C6B017C01D3
:1016A00020E030E044EB53E40E94D12E18164CF4B5
:1016B00020E030E044EB53E4C701B6010E94262C41
:1016C000EDCF20E030E0A901C701B6010E94A22CB5
:1016D00087FF0BC020E030E044EB53E4C701B601C4
:1016E0000E94272C6B017C01ECCFC701B601FF9053
:1016F000EF90DF90CF9008954F925F926F927F921C
:101700008F929F92AF92BF92CF92DF92EF92FF9211
:10171000CF93DF93CDB7DEB728970FB6F894DEBF2F
:101720000FBECDBF6A017B0128E83AE241E259E3EE
:10173000C701B6010E94D52E9B01AC016DE07FE987
:101740008CE097E40E94262C9B01AC01C701B601F6
:101750000E94D52E2AEB33EC42EB53E40E94272C57
:101760002BED3FE049E450E40E94D52E20E030E02C
:1017700044E353E40E94A92C4B015C010E94382FE2
:1017800069837A838B839C83A5019401C501B4018D
:101790000E94272C2B013C010E94382F6D837E83F1
:1017A0008F839887A5019401C301B2010E94272C61
:1017B0000E94382F2B013C012BE831EE4AE657E31B
:1017C000C701B6010E94D52E2DEE37ED4DE95BE342
:1017D0000E94272C9B01AC01C701B6010E94D52EA7
:1017E0009B01AC016EEA71E185EF9FE30E94262C1C
:1017F0009B01AC0169817A818B819C810E94D52EED
:101800004B015C0126EF3FEC43ED58E3C701B60105
:101810000E94D52E9B01AC016CE578EC83EA9CE339
:101820000E94262C9B01AC016D817E818F81988561
:101830000E94D52E9B01AC01C501B4010E94272C4A
:101840006B017C012CEE34E847E959E3C301B20196
:101850000E94D52E9B01AC01C701B6010E94272C26
:1018600028960FB6F894DEBF0FBECDBFDF91CF91A3
:10187000FF90EF90DF90CF90BF90AF909F908F90B0
:101880007F906F905F904F9008958F929F92AF924C
:10189000BF92CF92DF92EF92FF92CF93DF93EC0152
:1018A0006A017B010E942E0B4B015C01B701A6016E
:1018B000CE010E947C0B9B01AC01C501B4010E94CA
:1018C000272CDF91CF91FF90EF90DF90CF90BF90CA
:1018D000AF909F908F9008954F925F926F927F92FA
:1018E0008F929F92AF92BF92CF92DF92EF92FF9230
:1018F0006A017B010E94450C2B013C012AE534EC76
:1019000041EF54E4C701B6010E94D52E9B01AC0102
:101910006BE774E18AEF92E40E94262C2BED3FE006
:1019200049E450E40E94D52E20E030E044E353E443
:101930000E94A92C0E94382F4B015C012EE233E754
:101940004AEB5BE3C301B2010E94262C6B017C01D0
:101950002CE831EA4CE95BE3C501B4010E94D52EC5
:101960009B01AC01C701B6010E94262CFF90EF90AD
:10197000DF90CF90BF90AF909F908F907F906F90AF
:101980005F904F900895CF92DF92EF92FF926A019D
:101990007B012FE232EA4DEE5AE3C701B6010E9405
:1019A000D52E9B01AC016BE37AEA8AE19AE30E94AF
:1019B000262C9B01AC01C701B6010E94D52E2FE851
:1019C00032E44BE352E40E94272C9B01AC01C70197
:1019D000B6010E94D52E9B01AC0161E875E98BEA46
:1019E00091E40E94262C20E030E040E752E40E947F
:1019F000A92C20E030E040ED51E40E94272C20E0AB
:101A000030E040E752E40E94A92C20E030E048EBAF
:101A100051E40E94272CFF90EF90DF90CF90089523
:101A20008F929F92AF92BF92CF92DF92EF92FF92EE
:101A30006A017B010E94C30C4B015C012AE534EC76
:101A400041EF54E4C701B6010E94D52E9B01AC01C1
:101A50006BE774E18AEF92E40E94262C2BED3FE0C5
:101A600049E450E40E94D52E20E030E044E353E402
:101A70000E94A92C0E94A62C2CEA35EC47E25BE3DD
:101A80000E94D52E9B01AC01C501B4010E94272CF8
:101A9000FF90EF90DF90CF90BF90AF909F908F908E
:101AA00008954F925F926F927F928F929F92AF9222
:101AB000BF92CF92DF92EF92FF925C016A017B01AD
:101AC0000E94100D2B013C01B701A601C5010E9427
:101AD0006C0C4B015C012BED3FE049E450E4C30189
:101AE000B2010E94D52E20E030E044E353E40E948E
:101AF000A92C0E94382F6B017C012BED3FE049E4BB
:101B000050E4C501B4010E94D52E20E030E044E34A
:101B100053E40E94A92C0E94382F9B01AC01C701FD
:101B2000B6010E94D52E0E948B2C20EE3EE245E6A7
:101B300052E40E94D52EFF90EF90DF90CF90BF909F
:101B4000AF909F908F907F906F905F904F9008958F
:101B50004F925F926F927F928F929F92AF92BF92BD
:101B6000CF92DF92EF92FF92CF93DF93CDB7DEB7A4
:101B700064970FB6F894DEBF0FBECDBF5C016A015B
:101B80007B010E94100D2B013C01B701A601C5018C
:101B90000E942E0B4B015C0128E03BE048E054E33F
:101BA000C701B6010E94D52E23EE30E540E358E38D
:101BB0000E94272C9B01AC01C701B6010E94D52EC3
:101BC0009B01AC016CE870EE88E89CE30E94262C37
:101BD00069837A838B839C832BED3FE049E450E457
:101BE000C301B2010E94D52E20E030E044E353E46B
:101BF0000E94A92C20E030E040E05FE30E94D52E57
:101C00000E94802F9B01AC010E94D52E6D837E83A4
:101C10008F8398872BED3FE049E450E4C501B40180
:101C20000E94D52E20E030E044E353E40E94A92C2A
:101C30004B015C019B01AC010E94272C2B013C0154
:101C40000E94382F6D877E878F87988B28E83AE22D
:101C500041E259E3C701B6010E94D52E9B01AC01B8
:101C60006DE07FE98CE097E40E94262C9B01AC019B
:101C7000C701B6010E94D52E2AEB33EC42EB53E4A8
:101C80000E94272C2BED3FE049E450E40E94D52E22
:101C900020E030E044E353E40E94A92C6B017C0176
:101CA0000E94382F69877A878B879C87C301B2018E
:101CB0000E94A62C698B7A8B8B8B9C8B20E030E06A
:101CC00040E850E4C501B4010E94D52E0E94382F8F
:101CD0002B013C01A7019601C701B6010E94272CE8
:101CE0000E94382F4B015C012D853E854F85588918
:101CF0006D817E818F8198850E94D52E6B017C013C
:101D000029813A814B815C81CA01B9010E94272C4B
:101D100029853A854B855C850E94D52E9B01AC01B7
:101D2000C701B6010E94262C6B017C0120E030E047
:101D300040E850E469817A818B819C810E94D52E94
:101D40002D813E814F8158850E94D52E29853A8567
:101D50004B855C850E94D52E29893A894B895C89FF
:101D60000E94D52E9B01AC01C701B6010E94272C11
:101D70006B017C0120E030E040E05FE36D817E811B
:101D80008F8198850E94D52E2D813E814F81588567
:101D90000E94D52EA30192010E94D52E9B01AC0179
:101DA000C701B6010E94262C6B017C0120E030E0C7
:101DB00040EA5FE369817A818B819C810E94D52E04
:101DC00029813A814B815C810E94D52EA501940125
:101DD0000E94D52E9B01AC01C701B6010E94262CA2
:101DE00020EE3EE245E652E40E94D52E20E030E0AF
:101DF00040E850E40E94D52E64960FB6F894DEBFFA
:101E00000FBECDBFDF91CF91FF90EF90DF90CF90CD
:101E1000BF90AF909F908F907F906F905F904F900A
:101E200008952F923F924F925F926F927F928F927E
:101E30009F92AF92BF92CF92DF92EF92FF920F9359
:101E40001F93CF93DF93CDB7DEB764970FB6F894A7
:101E5000DEBF0FBECDBF3C012B01D42EF22E1C2DB8
:101E6000CB0164E670E00E94D22F4B01AA2497FCBC
:101E7000A094BA2C8092560390925703A0925803D4
:101E8000B0925903C501B40124E030E040E050E0D5
:101E90000E9408302093520330935303409354031D
:101EA00050935503DA01C90188199909AA09BB0998
:101EB0004C015D0192E0890E911CA11CB11C809225
:101EC0004E0390924F03A0925003B0925103B2017F
:101ED00064597D4E882777FD8095982F0E94442D68
:101EE00020E030EA46EB53E40E94D52E0E94112DEB
:101EF0001B012C0160934A0370934B0380934C03A6
:101F000090934D036D2D70E06F5F7F4F882777FDB5
:101F10008095982F0E94442D21E03DEC44EF51E440
:101F20000E94D52E0E94112D6093460370934703A3
:101F300080934803909349038F0C911CA11CB11C02
:101F4000860E971EA81EB91E820C931CA41CB51CDD
:101F5000C501B4010E94442D20E030E94EEB54E469
:101F60000E94262C4B015C01609342037093430353
:101F700080934403909345036E2D70E080E090E0E1
:101F80000E94422D20E030E040E752E40E94A92C5C
:101F900020E030E040EC51E40E94A92C1B012C0110
:101FA000609362037093630380936403909365036B
:101FB000602F70E080E090E00E94422D20E030E051
:101FC00040EC51E40E94A92C60935E0370935F0380
:101FD0008093600390936103A20191010E94272CDA
:101FE0009B01AC0160935A0370935B0380935C0385
:101FF00090935D03C501B4010E94272C60933E03BA
:1020000070933F03809340039093410324E631EAA9
:1020100045E15AE40E94262C20E03DEA4EE057E4D8
:102020000E94A92C1B012C0160933A0370933B037F
:1020300080933C0390933D03AB01BC01C3010E941C
:10204000510D4B015C01B201A101C3010E94A80D19
:102050002B013C0120E030E048EC52E40E94D52EF8
:102060000E947F2D20E030E048EC52E40E94A92C31
:10207000609326037093270380932803909329038A
:1020800020E030E048EC52E4C501B4010E94D52EB6
:102090000E947F2D20E030E048EC52E40E94A92C01
:1020A000609322037093230380932403909325036A
:1020B0006E2D70E0ACE30A9F600D711D112488271E
:1020C00077FD8095982F0E94442D6B017C01612F34
:1020D00070E080E090E00E94442D20E030E040E796
:1020E00052E40E94A92C9B01AC01C701B6010E94D9
:1020F000272C6B017C0120E030E040E850E4609147
:1021000032037091330380913403909135030E9420
:10211000D52E9B01AC01C301B2010E94262C9B016C
:10212000AC01C701B6010E94272C6B017C0120E0A5
:1021300030E044EB54E40E94D12E18164CF420E019
:1021400030E044EB54E4C701B6010E94262CEDCFE9
:1021500020E030E040E85EE3C701B6010E94D52EE2
:1021600020E030E044E353E40E94262C2B013C01A4
:1021700020E030E044E353EC0E94A22C87FF0AC029
:1021800020E030E044EB53E4C301B2010E94272C6D
:102190002B013C018091360390913703A0913803C5
:1021A000B091390389839A83AB83BC832BED3FE0E5
:1021B00049E450E4BC01CD010E94D52E20E030E07E
:1021C00044E353E40E94A92C6B017C010E94382F48
:1021D00069877A878B879C872BED3FE049E450E441
:1021E000C501B4010E94D52E20E030E044E353E461
:1021F0000E94A92C4B015C010E94382F6D877E87BD
:102200008F87988BC701B6010E94A62C698B7A8BA9
:102210008B8B9C8BC501B4010E94A62C4B015C01E9
:102220002BED3FE049E450E4C301B2010E94D52EFA
:1022300020E030E044E353E40E94A92C0E94A62C45
:102240006D837E838F8398872D853E854F85588942
:1022500069857A858B859C850E94D52E6B017C01D2
:10226000A501940169897A898B899C890E94D52E60
:102270002D813E814F8158850E94D52E9B01AC0156
:10228000C701B6010E94272C6B017C0120E030E0E1
:1022900040E85FE30E94D12E18168CF020E030E079
:1022A00040E85FEBC701B6010E94A22C87FF0DC07A
:1022B000C12CD12C30E8E32E3FEBF32E06C0C12C0D
:1022C000D12C40E8E42E4FE3F42EC701B6010E9462
:1022D000182C20EE3EE245E652E40E94D52E6D8396
:1022E0007E838F8398872BED3FE049E450E40E9482
:1022F000D52E20E030E044E353E40E94A92C4B01AA
:102300005C010E94382F9B01AC0169897A898B8915
:102310009C890E94D52E6B017C012FE632E143E8B7
:102320005AE30E94D12E181654F02FE632E143E80A
:102330005AEBC701B6010E94A22C87FF59C0C50104
:10234000B4010E94A62C9B01AC0169857A858B851E
:102350009C850E94D52E2D853E854F8558890E94EB
:10236000262CA70196010E94A92C6B017C0120E07C
:1023700030E040E85FE30E94D12E18168CF020E098
:1023800030E040E85FEBC701B6010E94A22C87FF56
:102390000DC0C12CD12C90E8E92E9FEBF92E06C080
:1023A000C12CD12C20E8E22E2FE3F22EC701B6017A
:1023B0000E94182C20EE3EE245E652E40E94D52E03
:1023C0009B01AC0160E070E084E393E40E94262C62
:1023D0006B017C0120E030E0A901C301B2010E9441
:1023E000D12E1816ACF4F7FAF094F7F8F09410C068
:1023F00020E030E0A90169817A818B819C810E9473
:10240000D12E18160CF465C1C12CD12C760113C045
:1024100020E030E0A901C701B6010E94A22C87FF8D
:102420000AC020E030E044EB53E4C701B6010E944B
:10243000272C6B017C012D813E814F81588560E006
:1024400070E084EB92E40E94262C2B013C0120E0FA
:1024500030E04AEA52E40E94D12E18160CF4B0C0C3
:102460002BED3FE049E450E4C301B2010E94D52EB8
:1024700020E030E044E353E40E94A92C0E94802F26
:102480004B015C0120E030E040EA50E4C301B201BE
:102490000E94D12E18160CF045C0A5019401C5016B
:1024A000B4010E94D52EA50194010E94D52E2B01C6
:1024B0003C01A501940166E676E688E692E40E9476
:1024C000A92C69837A838B839C83A301920169E29F
:1024D0007CE58FE89DE30E94A92C9B01AC016981FA
:1024E0007A818B819C810E94262C69837A838B83DD
:1024F0009C83A5019401C301B2010E94D52EA501C0
:1025000094010E94D52E9B01AC0166EE7AE584EB26
:1025100098E30E94A92C9B01AC0169817A818B818F
:102520009C813AC023E333E343E15FEBC301B20193
:102530000E94D12E18169CF529E134E046E35FE3B2
:10254000C301B2010E94D52E27ED33EA4CE451E4D9
:102550000E94262C9B01AC01C301B2010E94D52E22
:102560002DEC3CEC4EEC52E40E94272C9B01AC017C
:10257000C301B2010E94D52E2DEC3CE841E054E4A9
:102580000E94262C9B01AC01C301B2010E94D52EF2
:1025900020E030EE48ED54E40E94272C08C0A5014D
:1025A000940167E271E386EA91EC0E94A92C20E095
:1025B00030E041E655E40E94A92C9B01AC0103C028
:1025C00020E030E0A9016D817E818F8198850E9495
:1025D000262C4B015C0120E030E048ED52E40E94E3
:1025E000A22C87FF72C010921D0320E030E048EC5F
:1025F00052E4C701B6010E94D52E0E947F2D20E033
:1026000030E048EC52E40E94A92C60932E037093B2
:102610002F038093300390933103A501940160E070
:1026200070E084EB92E40E94262C20E030E048EC3D
:1026300052E40E94D52E0E947F2D20E030E048EC2D
:1026400052E40E94A92C60932A0370932B03809379
:102650002C0390932D0320E030E044EB52E4C501BD
:10266000B4010E94A22C87FF27C02BED3FE049E474
:1026700050E4C501B4010E94D52E20E030E044E3CF
:1026800053E40E94A92C0E94A62C20E030E44CE1E7
:1026900056E40E94D52E0E947F2D20E030E44CE1CC
:1026A00056E40E94A92C60931E0370931F0380932D
:1026B00020039093210314C010921E0310921F0355
:1026C00010922003109221030BC081E080931D0320
:1026D00007C0C12CD12C84E3E82E83E4F82EABCEC6
:1026E00064960FB6F894DEBF0FBECDBFDF91CF91D9
:1026F0001F910F91FF90EF90DF90CF90BF90AF9020
:102700009F908F907F906F905F904F903F902F9011
:1027100008959C01FC01EE5BFF4F80819181680F61
:10272000791F6134710530F4718360830296820FE2
:10273000931F089580E090E00895CF93DF93EC011C
:102740006BE171E087E394E00E9420288F89988DE7
:102750000E94AD07AB01BC0122E030E087E394E0CA
:102760000E941E2A61E271E087E394E00E94202823
:102770008F89988D0E944307AB01BC0122E030E0B5
:1027800087E394E00E941E2AED89FE8982818823D6
:1027900031F168E271E087E394E00E942028898D9E
:1027A0009A8D0E94AD07AB01BC0122E030E087E3C7
:1027B00094E00E941E2A6FE271E087E394E00E9499
:1027C0002028898D9A8D0E944307AB01BC0122E02D
:1027D00030E087E394E0DF91CF910C941E2A66E30A
:1027E00071E087E394E0DF91CF910C942028CF92A1
:1027F000EF920F931F93CF93DF93CDB7DEB72C9754
:102800000FB6F894DEBF0FBECDBF8C0165E471E05A
:1028100087E394E00E9420286AE471E087E394E073
:102820000E942028F80180A191A1049799F4CE017B
:1028300007960E9427206F8170E06053784FC12C6B
:10284000E12CF80103A129854885CE0101960E945B
:10285000B91F04C0CE0101960E942720CE01019627
:102860000E94CD1FAB01BC012AE030E087E394E079
:102870000E94262960E571E087E394E00E945128D8
:102880002C960FB6F894DEBF0FBECDBFDF91CF916F
:102890001F910F91EF90CF900895EF92FF920F93B9
:1028A0001F93CF93DF93EC017B018A0120E030E09E
:1028B000A90160E070E00E94241E8CE392E09983FD
:1028C0008883FE8AED8A1C8F0B8F1C8A1B8A1F8EC1
:1028D0001AA219A218A2DF91CF911F910F91FF9018
:1028E000EF900895CF93DF93EC018CE392E099830E
:1028F00088838D8D9E8D0E94AD278F89988D00973E
:1029000039F0DC01ED91FC910084F185E02D099511
:10291000898D9A8D009749F0DC01ED91FC9100843E
:10292000F185E02DDF91CF910994DF91CF9108954A
:10293000FC016130710571F01CF4672B41F00895C2
:102940006230710551F06330710559F0089587893F
:10295000908D09C08789908D02C0818D928D0C94D5
:102960006808818D928D0C945208CF93DF93EC010F
:102970008F89988D0E947E08898D9A8DDF91CF91E5
:102980000C947E08CF93DF93EC018AA1811117C0CC
:102990008F89988D0E94B907ED89FE8982818823ED
:1029A00021F0898D9A8D0E94B90781E08AA36CE09D
:1029B00073E087E394E0DF91CF910C942D28DF91B1
:1029C000CF910895CF93DF93EC0160E073E087E34C
:1029D00094E00E942D288D8D9E8D0E94190BAB01D5
:1029E000BC018F89988D0E94160AED89FE8982812B
:1029F000882361F08D8D9E8D0E94220BAB01BC015E
:102A0000898D9A8DDF91CF910C94160ADF91CF9129
:102A10000895FC01A789B08D57968D919C91589788
:102A20000097A9F0A589B68912962C912223B1F0BE
:102A3000A18DB28D57962D913C9158972115310556
:102A400031F0049739F483E090E0948B838B81E03C
:102A500090E008952430310519F405C0049799F3E6
:102A600080A191A10895348B238BF1CFFC0180A12B
:102A700091A18617970731F071A360A38589968984
:102A80000C94F2050895CF93DF93EC011CA21BA2D6
:102A900081E0888BE881F9810190F081E02D48E8A0
:102AA00053E160E070E0CE01099564E070E0CE0192
:102AB0000E943615E881F9810480F581E02DCE0170
:102AC000DF91CF910994CF92DF92EF920F931F93F2
:102AD000CF93DF93EC01CD88DE8820E030E0A901C0
:102AE000F60163817481858196810E94A22CE82E73
:102AF000EE1CEE24EE1CF6010789108D2389348923
:102B000045855685638574858F89988D0E94EC076D
:102B1000ED89FE898281882369F0018D128D2589D6
:102B200036894189528967857089E12C898D9A8D12
:102B30000E94EC07E881F9810190F081E02D40E6E8
:102B40005AEE60E070E0CE01099562E070E0CE01DF
:102B5000DF91CF911F910F91EF90DF90CF900C9468
:102B600036154F925F926F927F928F929F92AF92A3
:102B7000BF92CF92EF92FF920F931F93CF93DF9369
:102B8000CDB7DEB760970FB6F894DEBF0FBECDBFEE
:102B90005C014B0161E070E00E943615D50155964D
:102BA000ED91FC91569743815481658176814780F0
:102BB00050846184728481E090E04D875E876F87E6
:102BC000788B0E94AB277C01930182014D855E8545
:102BD0006F8578890E94AF0AF501F68EE58ECE01E9
:102BE00007960E9427206F8170E06053784FCC8455
:102BF000EB840A8529854885D5015D968D919C9148
:102C00005E970E94110F62E571E0CE0101960E946D
:102C1000A02A80E490E00E94AB277C0103E022E040
:102C200047E0BE016F5F7F4F0E94B706F501F08E4F
:102C3000E78ACE0101960E94322AD50157966D91FE
:102C40007C915897C4010E94AF1E6DE571E0CE01E2
:102C500001960E94A02A80E490E00E94AB277C01AC
:102C600005E024E046E0BE016F5F7F4F0E94B7069B
:102C7000F501F28EE18ECE0101960E94322AD50135
:102C800059966D917C915A97C4010E94AF1EB5016F
:102C9000C4010E94AF1EC5010E94631560960FB665
:102CA000F894DEBF0FBECDBFDF91CF911F910F9182
:102CB000FF90EF90CF90BF90AF909F908F907F90BC
:102CC0006F905F904F900895CF93DF93EC018B89C5
:102CD0009C89892BE9F060E273E087E394E00E942D
:102CE0002D2840E050E064E373E48F89988D0E94C2
:102CF000160AED89FE898281882341F040E050E088
:102D000064E372E4898D9A8D0E94160A188A32C093
:102D1000CE010E940915019769F1CE010E940915A3
:102D2000892B41F1CE010E940915039729F0CE01AC
:102D30000E940915049719F4CE010E94631581E0E1
:102D4000888BE881F9810190F081E02D40E65AEE10
:102D500060E070E0CE01099565E070E0CE010E9470
:102D60003615E881F9810480F581E02DCE01DF91EF
:102D7000CF910994DF91CF9108958F929F92AF9256
:102D8000BF92CF92DF92EF92FF920F931F93CF9358
:102D9000DF93CDB7DEB72A970FB6F894DEBF0FBE2C
:102DA000CDBF5C010E94D224AB01BC01C5010E94D1
:102DB0003C1ED50155968D919C915697FC01238D13
:102DC000222371F10E948F04D5015D968D919C9113
:102DD0005E970E94AD27D5015596ED91FC915697CF
:102DE0004381548165817681C780D084E184F284F7
:102DF00081E090E04F83588769877A870E94AB27EC
:102E00004C01970186014F81588569857A850E941A
:102E1000AF0AF501968E858EC5010E94631567C0C5
:102E2000C5010E9409157C01CE0101960E94272050
:102E3000F4E0EF16F10491F085E0E816F10409F0F2
:102E400056C0698170E06053784FCE80ED800C8170
:102E50002B814A81F501858D968D35C0D501579618
:102E6000ED91FC9158978789908D039771F559964C
:102E7000ED91FC915A978789908D039731F5D50193
:102E800093968D919C919497019668E170E00E94D1
:102E9000D22FF50194A383A34AE050E0BC0187E35D
:102EA00094E00E940E29698170E06053784FC12C34
:102EB000E12CD50193960C9193972B814A815D96D5
:102EC0008D919C915E970E94110FD5015D968D9119
:102ED0009C915E970E942B0B882321F0C5010E94D4
:102EE000C21405C0F50112A2C5010E94E2142A967F
:102EF0000FB6F894DEBF0FBECDBFDF91CF911F910B
:102F00000F91FF90EF90DF90CF90BF90AF909F9088
:102F10008F9008950F931F93CF93DF93EC018B0154
:102F200063E070E00E9436156EEB71E0C8010E940C
:102F30002F35892B19F460E070E01DC069EB71E05A
:102F4000C8010E942F35892B19F461E070E013C08D
:102F500066EB71E0C8010E942F35892B19F462E0FD
:102F600070E009C061EB71E0C8010E942F35892B28
:102F700049F463E070E0CE01DF91CF911F910F9192
:102F80000C949814DF91CF911F910F9108955F9247
:102F90006F927F928F929F92AF92BF92CF92DF9269
:102FA000EF92FF920F931F93CF93DF93CDB7DEB7CE
:102FB000C45AD1090FB6F894DEBF0FBECDBF5C0175
:102FC0004B016B0100E010E0E12CF12C512CF401DD
:102FD00001900020E9F73197E819F909C60188192D
:102FE00099098E179F07F0F5D6018D916D018C37E9
:102FF00091F18D3061F38A3051F3511016C03701D1
:10300000BFEF6B1A7B0AE5E8F0E0EC0FFD1FEE0D59
:10301000FF1D8083E0E26E16710400F16EEE72E037
:1030200087E394E00E942D2819C03801FFEF6F1A42
:103030007F0AE5E4F0E0EC0FFD1FE00FF11F808355
:1030400080E46816710460F06FED72E087E394E04D
:103050000E942D2805C055245394B9CF7301B7CFD2
:103060008301B5CFE5E8F0E0EC0FFD1FEE0DFF1D8D
:103070001082E5E4F0E0EC0FFD1FE00FF11F10827D
:10308000BE016B577F4F87E394E00E94202866E6DD
:1030900071E087E394E00E942028BE016B5B7F4FC4
:1030A00087E394E00E94512862E372E0CE018B57DF
:1030B0009F4F0E942F35892B21F4C5010E94641671
:1030C000D3C16CE272E0CE018B579F4F0E942F3527
:1030D000892B21F4C5010E944315C6C167E272E045
:1030E000CE018B579F4F0E942F35892B49F463E007
:1030F00070E0C5010E943615C5010E94B514B4C127
:1031000066E172E0CE018B579F4F0E942F35892BCD
:1031100041F4D50155968D919C9156970E94F205E8
:10312000A3C16AE072E0CE018B579F4F0E942F35FA
:10313000892B21F4C5010E94F71396C168EF71E055
:10314000CE018B579F4F0E942F35892B21F481E0B0
:10315000F501878F89C16AEE71E0CE018B579F4FD1
:103160000E942F35892B21F4D5015F961C927CC1DA
:1031700065EE71E0CE018B579F4F0E942F35892B52
:1031800009F041C086E492E09A83898325961FAEB8
:103190001EAE25974AE0BE016B5B7F4FCE010196C4
:1031A0000E94121B8C01FC0180819181892B09F402
:1031B0005BC168E671E0C8010E94371B009731F0DF
:1031C00004960E946D1B6B017C0103C0C12CD12CA5
:1031D00076016AE671E0C8010E94371B009731F062
:1031E00004960E946D1BAB01BC0103C040E050E09F
:1031F000BA0197018601D50155968D919C915697FC
:103200000E94EC0361C06BED71E0CE018B579F4FC4
:103210000E942F35892B09F064C086E492E09A83DE
:10322000898325961FAE1EAE25974AE0BE016B5BD3
:103230007F4FCE0101960E94121B4C01FC01808140
:103240009181892B09F410C16CE671E0C4010E94E0
:10325000371B009729F004960E94941B8B0102C033
:1032600000E010E06FE671E0C4010E94371B009798
:1032700029F004960E94941B7B0102C0E12CF12CE2
:1032800062E771E0C4010E94371B009729F00496A1
:103290000E94941B6B0102C0C12CD12C65E771E028
:1032A000C4010E94371B009721F004960E94941BD2
:1032B00002C060E070E09701A601D50155968D919E
:1032C0009C9156970E944604D501ED91FC91019086
:1032D000F081E02D48EB5BE060E070E0C50109950E
:1032E000C3C060EE71E0CE018B579F4F0E942F3517
:1032F000892B09F058C086E492E09A838983259649
:103300001FAE1EAE25974AE0BE016B5B7F4FCE011C
:1033100001960E94121B4C01FC0180819181892B36
:1033200009F4A2C068E771E0C4010E94371B00974E
:1033300029F004960E94941B8B0102C000E010E06B
:1033400065E972E0C4010E94371B009729F00496DA
:103350000E94941B7B0102C0E12CF12C6AE771E012
:10336000C4010E94371B009729F004960E94941B09
:103370006B0102C0C12CD12C67E871E0C4010E942E
:10338000371B009721F004960E94941B02C060E056
:1033900070E09701A601D50155968D919C915697A5
:1033A0000E94FC0391CF66ED71E0CE018B579F4FD9
:1033B0000E942F35892B81F586E492E09A838983D8
:1033C00025961FAE1EAE25974AE0BE016B5B7F4F70
:1033D000CE0101960E94121BFC0120813181232B1A
:1033E00009F442C06CE771E00E94371B009759F066
:1033F00004960E94941B21E0672B682B692B09F42B
:1034000020E0622F01C060E0D50155968D919C911E
:1034100056970E94E70358CF6AEC71E0CE018B57B4
:103420009F4F0E942F35892B81F4CE018B5B9F4FDC
:103430000E94CF34AB01BC01CE0101960E945B1FFC
:10344000CE0101960E94F4200FC063EC71E0CE0122
:103450008B579F4F0E942F35892B31F4BE016B5B38
:103460007F4FC5010E948A17CC55DF4F0FB6F894E5
:10347000DEBF0FBECDBFDF91CF911F910F91FF90A7
:10348000EF90DF90CF90BF90AF909F908F907F9004
:103490006F905F900895CF93DF93EC018F8D882319
:1034A00009F47BC069E871E087E394E00E9420287A
:1034B000CE010E949D136EE871E087E394E00E94C4
:1034C000202860E971E087E394E00E9420288D8D38
:1034D0009E8D0E942B0B882319F06EE771E002C0CD
:1034E00063E871E087E394E00E94202866E971E0D8
:1034F00087E394E00E9420288D8D9E8D0E94190BF9
:10350000AB01BC0122E030E087E394E00E941E2A78
:103510006DE971E087E394E00E9420288D8D9E8DF7
:103520000E94220BAB01BC0122E030E087E394E073
:103530000E941E2A6EE871E087E394E00E94202832
:1035400064EA71E087E394E00E942028CE010E94A3
:1035500009154AE050E0BC0187E394E00E94062987
:103560006AEA71E087E394E00E9420286B897C89F5
:103570004AE050E087E394E00E94062960E571E0AC
:1035800087E394E00E94512888A199A1049729F427
:10359000CE01DF91CF910C94F713DF91CF91089575
:1035A00010926703109266031092690310926803E9
:1035B0000895DB01109749F0ED91FC91119701906E
:1035C000F081E02DBC01CD01099480E090E00895E8
:1035D000CF93DF93EC01BC0184E090E00E94D91A04
:1035E000FC01009729F0D183C0831382128202C0AC
:1035F00086E693E0DF91CF910895CF93DF93EC01BE
:10360000BC0184E090E00E94D91AFC01009729F0E7
:10361000D183C0831382128202C08AE693E0DF91D5
:10362000CF910895CF93DF93CDB7DEB727970FB62D
:10363000F894DEBF0FBECDBF9A83898361157105F3
:1036400019F482E992E001C0CB019C838B837E83D5
:103650006D834F83CE0101960E94751C27960FB68D
:10366000F894DEBF0FBECDBFDF91CF9108950F93C9
:103670001F93CF93DF938B01FC01C281D3812097ED
:1036800059F0B8018A819B810E942F35892B39F02E
:103690000990D881C02DF3CF80E090E001C0CE0129
:1036A000DF91CF911F910F910895CF93DF93EC019C
:1036B0000E94371B009729F4CE01DF91CF910C9423
:1036C000941DDF91CF91089510926B0310926A03BD
:1036D00010926D0310926C030895FC01808191811A
:1036E000873091052CF062817381848195810895E2
:1036F0009C01235031092230310538F462817381F5
:10370000848195810E94442D08950197029740F489
:1037100082819381009721F060E070E00C94383250
:1037200060E070E0CB010895CF93DF93FC018081CE
:1037300091819C01235031092230310528F46281A6
:1037400073818481958129C0873091053CF0628125
:103750007381848195810E94112D1FC0019702976A
:10376000A0F4C281D381209781F0BE018EE791E061
:103770000E942F35892B69F04AE050E060E070E04C
:10378000CE01DF91CF910C949B3360E070E0CB01D0
:1037900004C061E070E080E090E0DF91CF91089597
:1037A000FC0120812D3051F024F42950223030F5D5
:1037B00005C0203219F02F3219F008950196F0CF8C
:1037C000FC0121812A3219F02F3279F008950296F6
:1037D000FC012081222321F32A3229F421812F3276
:1037E00011F40296DDCF0196F3CFFC013296CF01A2
:1037F00021912223A9F22A30D1F7D2CF08950F9335
:103800001F93CF93DF931F92CDB7DEB78C01FC01DE
:103810008281938169830E94D01BFC012081698190
:10382000261308C001960E94D01BF801938382835F
:1038300081E001C080E00F90DF91CF911F910F9147
:103840000895CF93DF93EC01AA81BB814C813D8128
:103850002C91273219F4C42FD32F15C02232D9F35B
:10386000C42FD32FFD012AC03C3559F4FD013296F7
:1038700012963C91A1E5B2E06C91611110C0332326
:1038800039F13993DF01AE01FD01319611963C917A
:1038900011973323E9F03213E7CF319619C0631340
:1038A00003C011963C91EBCF1296E6CF322F3F7DAD
:1038B00031543A3148F4299331962081AE0130EDEC
:1038C000320F3A30C0F3F2CF33ED320F323098F38B
:1038D000DA011D92EC012C813D81FB83EA83BD83DB
:1038E000AC83C901DF91CF910895BF92CF92DF924F
:1038F000EF92FF920F931F93CF93DF9300D000D0EE
:1039000000D0CDB7DEB78C01FC01808191810E948F
:10391000FD1A6C016BE7C8010E94FF1B882309F4A4
:1039200040C06DE7C8010E94FF1B811138C086E0CE
:10393000B82EC8010E94211C7C01009791F16AE316
:10394000C8010E94FF1B882361F11A821982BE01FF
:103950006F5F7F4FC8010E94E31C882311F1B701FC
:10396000C6010E94551BDC010097D9F01396FC920A
:10397000EE921297FE01319614968B2D01900D92C6
:103980008A95E1F76DE7C8010E94FF1B811107C00E
:103990006CE2C8010E94FF1B8111CBCF02C0C6019F
:1039A00002C08AE693E026960FB6F894DEBF0FBEFB
:1039B000CDBFDF91CF911F910F91FF90EF90DF90DE
:1039C000CF90BF900895FF920F931F93CF93DF93F3
:1039D000EC018B018E81882309F447C081508E83CE
:1039E0008A819B810E94D01B9B838A83FC018081FA
:1039F0008B3519F08B3761F01CC0CE010E943C1D45
:103A0000FC0120813181232B59F125E030E00AC0EF
:103A1000CE010E94751CFC0120813181232B01F114
:103A200026E030E0F801318320839383828381E0B4
:103A300018C0873231F091E0823209F090E0F92E1F
:103A400002C0FF24F394CE010E94211C009741F094
:103A5000FF2019F022E030E0E5CF21E030E0E2CFB6
:103A600080E09E819F5F9E8301C080E0DF91CF91C7
:103A70001F910F91FF900895DF92EF92FF920F93A5
:103A80001F93CF93DF9300D000D000D0CDB7DEB727
:103A90008C01FC01808191810E94E81A7C016BE518
:103AA000C8010E94FF1B882379F16DE5C8010E94BF
:103AB000FF1B811127C096E0D92E1A821982BE0100
:103AC0006F5F7F4FC8010E94E31C8823E9F0C701A4
:103AD0000E94B71D0097C1F0FE013196DC011296DD
:103AE0008D2D01900D928A95E1F76DE5C8010E9438
:103AF000FF1B811107C06CE2C8010E94FF1B8111EE
:103B0000DCCF02C0C70102C086E693E026960FB65E
:103B1000F894DEBF0FBECDBFDF91CF911F910F9103
:103B2000FF90EF90DF900895CF93DF93EC016881D1
:103B300079818AE090E00E94D91A009729F0FC016F
:103B40001182108215821482EA81FB81309751F034
:103B5000208131812115310511F0F901F9CF9183CF
:103B6000808302C09B838A83DF91CF910895CF9396
:103B7000DF93EC016881798188E090E00E94D91A96
:103B8000009729F0FC011182108213821282EA81CF
:103B9000FB81309751F0208131812115310511F0E1
:103BA000F901F9CF9183808302C09B838A83DF91DF
:103BB000CF9108950F931F93FC0142835383648335
:103BC00075830681178120853185040F151F261FF7
:103BD000371F02871387248735871F910F91089518
:103BE0000F931F93FC010285138524853585401BA7
:103BF000510B620B730B77FD02C0808901C080E01E
:103C00001F910F9108950F931F93CF93DF93EC01B2
:103C1000EE85FF85309709F009950E94D2246E83C6
:103C20007F83888799870A811B812C813D81060FBC
:103C3000171F281F391F0A871B872C873D87DF9195
:103C4000CF911F910F910895FC0180E692E091833E
:103C5000808381E0808B7787668716821782108643
:103C60001186F28BE18B2283338344835583228731
:103C700033874487558708950F931F93FC0146832C
:103C80005783608771870281138124813581040FF6
:103C9000151F261F371F02871387248735871F911B
:103CA0000F910895FC017787668708958F929F9200
:103CB000AF92BF92CF92DF92EF92FF920F931F933A
:103CC000CF93DF93EC01EE85FF85309709F00995DE
:103CD0000E94D2246B017C018E015E012EE1A20EB6
:103CE000B11C812C912C89A99AA98815990524F1D8
:103CF000D80153968D919C9154970097C1F0BFEFD6
:103D00008B1A9B0ADC01ED91FC910280F381E02D7E
:103D1000B701A6010995882351F0F8018389948998
:103D2000DC01ED91FC910480F581E02D09950E5F99
:103D30001F4F0A151B05B9F60E94D224AB01BC0126
:103D4000CE01DF91CF911F910F91FF90EF90DF9007
:103D5000CF90BF90AF909F908F900C943C1E20E02E
:103D600030E0FC01E20FF31F0388F489E02D309767
:103D700059F00188F289E02DDB0151964D915C915B
:103D80005297E417F50719F12E5F3F4F2E31310599
:103D900041F7FC0120E030E043895489452B79F458
:103DA000F901EE0FFF1FE80FF91F748B638BFC0105
:103DB00021A932A92F5F3F4F32AB21AB08C02F5F43
:103DC0003F4F32962F30310539F780E0089581E07A
:103DD000089520E030E0FC01E20FF31F148A138AFB
:103DE0002E5F3F4F2E313105B1F7FC0112AA11AA07
:103DF0000895CF92DF92EF92FF92CF93DF93EC0181
:103E00006A017B0120E030E0A90160E070E00E94DF
:103E1000241E8AE692E0998388831AAA19AACE0101
:103E20000E94E91EE881F9810190F081E02DB7013F
:103E3000A601CE01DF91CF91FF90EF90DF90CF9060
:103E40000994803D27E0920710F0805D974050E094
:103E5000E3E5F3E021E02E1B322F3E0F361728F466
:103E60003491430F511D3196F7CF633038F09C01E8
:103E700023703327232B11F44F5F5F4F6DE671E002
:103E8000869F9001879F300D969F300D1124215001
:103E9000310903969695879596958795280F391F32
:103EA000C901840F951F0895DC01ED91FC910190EB
:103EB000F081E02D0994CF92DF92EF92FF92CF93A1
:103EC000DF93EC01405853446D467843ECE3CE2E2B
:103ED000D12CE12CF12CCB01BA01A70196010E9453
:103EE000E62F6D83CA01B901A70196010E94E62F52
:103EF0006C83CA01B90128E130E040E050E00E9443
:103F0000E62F6B83188243E95EEFE8818E2F837082
:103F1000A1E009F0A0E08A2F90E0BC0163597E4F38
:103F20002617370740F0BA01681B790B260F371F99
:103F3000EF5FE883EACF81E089838981E82FF0E0B1
:103F4000EE5AFC4FE491AA2319F0823009F4EF5F96
:103F5000F0E02E173F0720F02E1B3F0B8F5FECCFBA
:103F60002F5F2A83DF91CF91FF90EF90DF90CF906A
:103F70000895CF92EF920F93FC01603D87E07807A0
:103F800010F0605D77406083418322830383E48285
:103F9000C5820F91EF90CF900895CF93DF93EC01FE
:103FA00088814A81698190E00E94211F9C01A8E1DB
:103FB000B0E00E942D309B01AC018B81280F311D98
:103FC000411D511DACE3B0E00E943C309B01AC01AF
:103FD0008C81280F311D411D511D0E943C302D81C7
:103FE000620F711D811D911D60587C4B8249974C59
:103FF000DF91CF91089581E00895CF93DF9368E634
:1040000070E08EE693E00E94612260E070E08EE650
:1040100093E00E94541F8EE693E00E94762241E0D6
:1040200050E068E670E08EE693E00E9454228EE64F
:1040300093E00E94AB2187FB882780F9C82F80E09E
:10404000D82F81E0C8278C2FDF91CF910895CF9290
:10405000DF92EF92FF920F931F93CF93DF93EC01C8
:1040600068E670E08EE693E00E94612260E070E016
:104070008EE693E00E94541F8EE693E00E94762223
:1040800047E050E068E670E08EE693E00E9454223C
:104090008EE693E00E94AB218F77982F92959F70C8
:1040A0001AEF082F919F000D11248EE693E00E94D5
:1040B000AB219C013327F4E035952795FA95E1F77C
:1040C000F82E129FF00C11248EE693E00E94AB2193
:1040D0009C013327A4E035952795AA95E1F7E82EB2
:1040E000129FE00C11248EE693E00E94AB218EE635
:1040F00093E00E94AB219C013327B4E035952795CE
:10410000BA95E1F7D82E129FD00C11248EE693E0D9
:104110000E94AB219C01332794E0359527959A9511
:10412000E1F7C82E129FC00C11248EE693E00E9486
:10413000AB219C01332744E0359527954A95E1F75B
:10414000129F800D11248883C982DA82EB82FC825F
:104150000D83CE01DF91CF911F910F91FF90EF90D2
:10416000DF90CF900895CF92DF92EF92FF920F935E
:104170001F93CF93DF931F92CDB7DEB7062FF72E95
:10418000142F68E670E08EE693E029830E94612296
:104190002981622F70E0685F7F4F8EE693E00E9476
:1041A000541F8EE693E00E947622412F68E68EE649
:1041B00093E00E945122E02EC02EDF2C8C2D8E1910
:1041C000811740F48EE693E00E94AB21F6018193C3
:1041D0006F01F4CF0F90DF91CF911F910F91FF905E
:1041E000EF90DF90CF9008951F93CF93DF93EC0172
:1041F00068E670E08EE693E00E94612260E070E085
:104200008EE693E00E94541F2D811AE0822F612FC9
:104210000E94B22F682F660F680F660F620F8EE63E
:1042200093E00E94FB212C81822F612F0E94B22FEC
:10423000682F660F680F660F620F8EE693E00E948C
:10424000FB212B81822F612F0E94B22F682F660FD6
:10425000680F660F620F8EE693E00E94FB2160E01C
:104260008EE693E00E94FB212A81822F612F0E941B
:10427000B22F682F660F680F660F620F8EE693E00D
:104280000E94FB212981822F612F0E94B22F682F6B
:10429000660F680F660F620F8EE693E00E94FB21A7
:1042A0002881822F612F0E94B22F682F660F680F1E
:1042B000660F620F8EE693E00E94FB2160E070E0E3
:1042C0008EE693E00E94541F8EE693E0DF91CF913B
:1042D0001F910C947622EF92FF920F931F93CF932E
:1042E000DF9300D0CDB7DEB7062F122F68E670E05F
:1042F0008EE693E049835A830E946122602F70E02A
:10430000685F7F4F8EE693E00E94541F4981042F1F
:10431000E42E5A81F52E8E2D801B811740F4F70173
:1043200061917F018EE693E00E94FB21F4CF8EE63F
:1043300093E00F900F90DF91CF911F910F91FF901D
:10434000EF900C94762280919E0390E020919F0341
:10435000821B9109089520919F0380919E03281745
:1043600050F4E22FF0E0E056FC4F808190E02F5FA8
:1043700020939F0308958FEF9FEF0895E0919F038F
:1043800080919E03E81730F4F0E0E056FC4F808106
:1043900090E008958FEF9FEF08950895CF92DF92F8
:1043A000EF92FF920F931F93CF93DF937C01CB018A
:1043B0008A0120917A03222389F0EB016B01C40E5C
:1043C000D51ECC15DD0569F06991D701ED91FC9101
:1043D0000190F081E02DC7010995F3CF642F0E9471
:1043E0003223C801DF91CF911F910F91FF90EF9081
:1043F000DF90CF900895CF93DF931F92CDB7DEB7B4
:10440000698320917A032223D1F020917B0320320B
:1044100040F021E030E0FC013383228380E090E033
:1044200015C080917C03E82FF0E0E358FC4F9981A0
:1044300090838F5F80937C0380937B0305C061E052
:10444000CE0101960E94322381E090E00F90DF912F
:10445000CF910895FC011382128248EE53E060E090
:1044600070E0448355836683778384E792E0918389
:104470008083089510929F0310929E0310927C03F4
:1044800010927B030C947D22862F413208F040E28B
:1044900060EA73E00E949B2210929F0380939E0328
:1044A000089521E00C94442221E00C94442281E000
:1044B00080937A0360939D0310927C0310927B0398
:1044C00008950C9457220F93062F21E040917B030F
:1044D0006DE773E080919D030E94DF2210927C03C0
:1044E00010927B0310927A030F91089561E00C946F
:1044F00063228EE693E00C942A2210922D0481E030
:1045000080932B0410922A0461E082E10E947B25B3
:1045100061E083E10E947B25E9EBF0E080818E7F02
:10452000808380818D7F808388E48093B80085E4D8
:104530008093BC000895413208F03FC090912D0453
:104540009111FCCF91E090932D0420932B042FEF39
:104550002093C00310920504240F20930404909329
:104560002C0490912C04880F892B80932C0480912B
:104570002A04813041F410922A0480912C04809303
:10458000BB0085EC01C085EE8093BC0080912D04BA
:104590008130E1F380910504841710F44091050403
:1045A00026E034E0FB01D9018A2F821B841718F41E
:1045B0008D918193F9CF842F089580E008950F9312
:1045C000413208F046C090912D049111FCCF92E049
:1045D00090932D0400932B049FEF9093C0031092AF
:1045E000050440930404FB0166E074E0DB019A2FAC
:1045F000961B941718F491919D93F9CF10922C0467
:1046000090912C04880F892B80932C0480912A048C
:10461000813041F410922A0480912C048093BB00D5
:1046200085EC01C085EE8093BC00222321F08091AF
:104630002D048230E1F38091C0038F3F61F08091BF
:10464000C003803251F08091C003803341F483E095
:1046500007C081E005C080E003C082E001C084E0C3
:104660000F910895613298F420912D04243089F43B
:104670006093E203FC0184EE93E0DC012A2F281B07
:10468000261718F421912D93F9CF80E0089581E049
:10469000089582E0089585ED8093BC008091BC0070
:1046A00084FDFCCF10922D04089585EC8093BC000E
:1046B00010922D0408951F920F920FB60F9211249D
:1046C0002F933F934F935F936F937F938F939F931A
:1046D000AF93BF93EF93FF938091B900887F8036AB
:1046E00009F49CC068F5883209F45BC090F480310D
:1046F00009F454C038F4882309F4F5C0883009F46B
:104700004DC0F5C0883109F44CC0803209F45DC059
:10471000EEC0803409F468C048F4803309F455C011
:10472000883309F0E4C08093C003A8C0803509F441
:104730004FC0883509F45DC0883409F0D8C0D5C0B1
:10474000883909F4C6C0A8F4883709F467C038F47A
:10475000883609F463C0803709F460C0C8C088385F
:1047600009F4B7C0803909F45FC0803809F0BFC0D0
:104770005BC0803B09F485C038F4803A09F466C018
:10478000883A09F47EC0B3C0803C09F4A6C0883CD6
:1047900009F4A3C0883B09F489C0A9C080912C0406
:1047A00010C09091050480910404981770F5E09171
:1047B000050481E08E0F80930504F0E0EA5FFB4F73
:1047C00080818093BB0085EC85C08093C0038DC041
:1047D000E091050481E08E0F809305048091BB0079
:1047E000F0E0EA5FFB4F8083909105048091040420
:1047F0006DC0E091050481E08E0F809305048091E7
:10480000BB00F0E0EA5FFB4F808380912B048111B5
:104810006CC081E080932A0484EA60C083E08093C6
:104820002D041092C103CFCF8091C103803208F0D4
:1048300050C0E091C10381E08E0F8093C10380914D
:10484000BB00F0E0EE53FC4F8083BDCF8091C103ED
:10485000803230F4E091C103F0E0EE53FC4F10825F
:104860000E944B236091C10370E0E0912604F09117
:10487000270482EC93E009951092C1030E9455230E
:1048800036C084E080932D041092E3031092E2037B
:10489000E0912804F091290409958091E2038111A7
:1048A00005C081E08093E2031092E403E091E3030A
:1048B00081E08E0F8093E303F0E0EC51FC4F8081A8
:1048C0008093BB009091E3038091E203981708F472
:1048D0007ACF85E88093BC000AC085EC8093BC0049
:1048E00010922D0404C01092C0030E944B23FF912C
:1048F000EF91BF91AF919F918F917F916F915F9158
:104900004F913F912F910F900FBE0F901F901895D0
:104910001F920F920FB60F9211242F933F938F93F4
:104920009F93AF93BF9380912F0490913004A091F7
:104930003104B091320430912E0423E0230F2D373F
:1049400020F40196A11DB11D05C026E8230F029693
:10495000A11DB11D20932E0480932F049093300449
:10496000A0933104B09332048091330490913404C5
:10497000A0913504B09136040196A11DB11D80931C
:10498000330490933404A0933504B0933604BF915C
:10499000AF919F918F913F912F910F900FBE0F90EC
:1049A0001F9018952FB7F89460912F0470913004E0
:1049B00080913104909132042FBF0895789484B58A
:1049C000826084BD84B5816084BD85B5826085BD0B
:1049D00085B5816085BDEEE6F0E0808181608083F1
:1049E000E1E8F0E0108280818260808380818160D4
:1049F0008083E0E8F0E0808181608083E1EBF0E09B
:104A0000808184608083E0EBF0E08081816080833E
:104A1000EAE7F0E080818460808380818260808327
:104A20008081816080838081806880831092C10052
:104A30000895833081F028F4813099F08230A1F01C
:104A400008958730A9F08830B9F08430D1F480918E
:104A500080008F7D03C0809180008F7780938000DD
:104A6000089584B58F7702C084B58F7D84BD089585
:104A70008091B0008F7703C08091B0008F7D8093CC
:104A8000B0000895CF93DF9390E0FC01ED58FC4F08
:104A90002491FC01E957FC4F8491882349F190E06F
:104AA000880F991FFC01EB55FC4FA591B4918556D9
:104AB0009C4FFC01C591D4919FB7611108C0F89437
:104AC0008C91209582238C93888182230AC0623046
:104AD00051F4F8948C91322F309583238C938881F4
:104AE000822B888304C0F8948C91822B8C939FBF77
:104AF000DF91CF9108950F931F93CF93DF931F9270
:104B0000CDB7DEB7282F30E0F901E15AFC4F849190
:104B1000F901ED58FC4F1491F901E957FC4F04914C
:104B20000023C9F0882321F069830E941925698137
:104B3000E02FF0E0EE0FFF1FE556FC4FA591B4917A
:104B40009FB7F8948C91611103C01095812301C027
:104B5000812B8C939FBF0F90DF91CF911F910F916D
:104B60000895FC01818D228D90E0805C9F4F821B17
:104B700091098F7399270895FC01918D828D981763
:104B800031F0828DE80FF11D858D90E008958FEF53
:104B90009FEF0895FC01918D828D981761F0828DB1
:104BA000DF01A80FB11D5D968C91928D9F5F9F7361
:104BB000928F90E008958FEF9FEF08958EE497E233
:104BC000892B49F080E993E0892B29F00E944E2738
:104BD00081110C9490030895FC01848DDF01A80FCE
:104BE000B11DA35ABF4F2C91848D90E001968F7315
:104BF0009927848FA689B7892C93A089B1898C9134
:104C000080648C93938D848D981306C00288F389F9
:104C1000E02D80818F7D80830895CF93DF93EC0119
:104C2000888D8823C9F0EA89FB89808185FD05C0CC
:104C3000A889B9898C9186FD0FC00FB607FCF5CF06
:104C4000808185FFF2CFA889B9898C9185FFEDCF4E
:104C5000CE010E94EC25E7CFDF91CF910895CF924E
:104C6000DF92FF920F931F93CF93DF931F92CDB7E5
:104C7000DEB76C0181E0D60158968C9358975B960D
:104C80009C915B975C968C915C97981307C05096AB
:104C9000ED91FC915197808185FD2EC0F601038D29
:104CA00010E00F5F1F4F0F731127F02EF601848D58
:104CB000F81211C00FB607FCF9CFD6015096ED914E
:104CC000FC915197808185FFF1CFC60169830E94D5
:104CD000EC256981EBCF838DE80FF11DE35AFF4F7F
:104CE0006083D6015B960C935B975296ED91FC9195
:104CF0005397808180620CC0D6015696ED91FC914D
:104D0000579760835096ED91FC9151978081806414
:104D1000808381E090E00F90DF91CF911F910F9100
:104D2000FF90DF90CF900895BF92CF92DF92EF92E5
:104D3000FF92CF93DF93EC016A017B01B22EE889E9
:104D4000F98982E08083411581EE5807610571057C
:104D5000A1F060E079E08DE390E0A70196010E9468
:104D6000E62F21503109410951095695479537954C
:104D70002795211580E1380798F0E889F989108294
:104D800060E874E88EE190E0A70196010E94E62FAA
:104D90002150310941095109569547953795279575
:104DA000EC85FD853083EE85FF852083188EEC89A8
:104DB000FD89B082EA89FB89808180618083EA89EC
:104DC000FB89808188608083EA89FB898081806893
:104DD0008083EA89FB8980818F7D8083DF91CF91F9
:104DE000FF90EF90DF90CF90BF9008951F920F92A9
:104DF0000FB60F9211242F938F939F93EF93FF93EE
:104E0000E0914704F09148048081E0914D04F091D5
:104E10004E0482FD12C09081809150048F5F8F7389
:104E200020915104821751F0E0915004F0E0E95CC8
:104E3000FB4F958F8093500401C08081FF91EF91CB
:104E40009F918F912F910F900FBE0F901F901895EB
:104E50001F920F920FB60F9211242F933F934F93EF
:104E60005F936F937F938F939F93AF93BF93EF93D2
:104E7000FF9387E394E00E94EC25FF91EF91BF91AF
:104E8000AF919F918F917F916F915F914F913F91E2
:104E90002F910F900FBE0F901F90189587E394E00D
:104EA0000E94B12521E0892B09F420E0822F08958A
:104EB00010923A041092390488EE93E0A0E0B0E03A
:104EC00080933B0490933C04A0933D04B0933E0434
:104ED00084E892E0909338048093370485EC90E066
:104EE000909344048093430484EC90E090934604B0
:104EF0008093450480EC90E09093480480934704AD
:104F000081EC90E090934A048093490482EC90E015
:104F100090934C0480934B0486EC90E090934E0465
:104F200080934D0410925004109251041092520438
:104F300010925304089508950E94DE240E949B2736
:104F40000E944002CEEDD5E20E94D1032097E1F30A
:104F50000E94DE25F9CF0C9447300C94DF30CF92BD
:104F6000DF92EF92FF920F931F93CF93DF936C0129
:104F70007A01EB01E60EF71E00E010E0CE15DF052A
:104F800061F06991D601ED91FC910190F081E02DE5
:104F9000C6010995080F191FF1CFC801DF91CF9104
:104FA0001F910F91FF90EF90DF90CF9008956115C2
:104FB000710581F0DB010D900020E9F7AD01415052
:104FC0005109461B570BDC01ED91FC910280F381E6
:104FD000E02D099480E090E00895EF92FF920F9306
:104FE0001F93CF93DF938C01FB01C0E0D0E064916D
:104FF0007F018FEFE81AF80A662361F0D801ED917E
:10500000FC910190F081E02DC8010995C80FD91FCE
:10501000F701EDCFCE01DF91CF911F910F91FF905E
:10502000EF900895DC01ED91FC91DB0114964D9118
:105030005C9115976D917C910280F381E02D09942C
:105040000C94D727DC01ED91FC910190F081E02DCB
:10505000099460E972E00C94D7270F931F93CF93C4
:10506000DF93EC010E94ED278C01CE010E942928DC
:10507000800F911FDF91CF911F910F9108950F9392
:105080001F93CF93DF93EC010E9412288C01CE0175
:105090000E942928800F911FDF91CF911F910F91BE
:1050A00008950F931F93CF93DF93EC010E94D727AE
:1050B0008C01CE010E942928800F911FDF91CF9192
:1050C0001F910F9108958F929F92AF92BF92CF92AE
:1050D000DF92EF92FF920F931F93CF93DF93CDB7A1
:1050E000DEB7A1970FB6F894DEBF0FBECDBF7C012F
:1050F000C42EE52FCB01D22E19A221E02D1510F0E0
:105100002AE0D22E8E010F5D1F4F8D2C912CA12CE9
:10511000B12C6C2D7E2FA50194010E94E62F8C2DC1
:10512000D29E80191124015011098A3014F4805D37
:1051300001C0895CF80180832115310541055105C5
:1051400021F0C22EE32FCA01E4CFB801C7010E94AB
:10515000D727A1960FB6F894DEBF0FBECDBFDF9163
:10516000CF911F910F91FF90EF90DF90CF90BF9064
:10517000AF909F908F900895CF92DF92EF92FF9221
:105180000F931F93CF93DF93EC016A017B012115ED
:10519000310579F4E881F9810190F081E02D642FE7
:1051A000DF91CF911F910F91FF90EF90DF90CF9003
:1051B00009942A303105E9F477FF1AC06DE20E94A4
:1051C00022288C0144275527BA014C195D096E0924
:1051D0007F092AE0CE010E946328800F911FDF9192
:1051E000CF911F910F91FF90EF90DF90CF90089596
:1051F0002AE0B701A601CE01DF91CF911F910F9157
:10520000FF90EF90DF90CF900C9463289A01AB0150
:10521000662757FD6095762F0C94BC280F931F933B
:10522000CF93DF93EC019A01AB01662757FD6095A0
:10523000762F0E94BC288C01CE010E942928800F65
:10524000911FDF91CF911F910F9108952115310585
:1052500041F4DC01ED91FC910190F081E02D642F8F
:1052600009940C9463284F925F926F927F928F9271
:105270009F92AF92BF92CF92DF92EF92FF920F93E5
:105280001F93CF93DF93EC016A017B01B22E9A0149
:10529000AB01C701B6010E94A02F882319F063E972
:1052A00072E027C026013701E89477F82FEF3FEF2F
:1052B0004FE75FE7C301B2010E94A02F81110DC02B
:1052C0002FEF3FEF4FE75FE7C301B2010E94A22C2F
:1052D00018161CF467E972E00CC02FEF3FEF4FE7A0
:1052E0005FE4C701B6010E94D12E1816ACF46BE939
:1052F00072E0CE01DF91CF911F910F91FF90EF905F
:10530000DF90CF90BF90AF909F908F907F906F90E5
:105310005F904F900C94D7272FEF3FEF4FE75FEC54
:10532000C701B6010E94A22C87FDE1CF20E030E04A
:10533000A901C701B6010E94A22C87FF0AC06DE235
:10534000CE010E9422288C01F7FAF094F7F8F0942D
:1053500002C000E010E0A12C60E070E080E09FE37C
:10536000AB1441F020E030E040E251E40E94A92C6F
:10537000A394F6CF9B01AC01C701B6010E94272C74
:105380006B017C010E94162D2B013C010E94422DD5
:105390009B01AC01C701B6010E94262C6B017C0168
:1053A0002AE0B301A201CE010E946328080F191F51
:1053B000BB2039F06FE972E0CE010E94D727080FB9
:1053C000191F7B2C772041F120E030E040E251E4CE
:1053D000C701B6010E94D52E6B017C010E94112DE0
:1053E0004B01AA2497FCA094BA2C2AE030E0B50126
:1053F000A401CE010E94BC28080F191FC501B401E9
:105400000E94442D9B01AC01C701B6010E94262CCD
:105410006B017C017A94D6CFC801DF91CF911F91A7
:105420000F91FF90EF90DF90CF90BF90AF909F9043
:105430008F907F906F905F904F9008950C943329D8
:105440000F931F93CF93DF93EC010E9433298C01BC
:10545000CE010E942928800F911FDF91CF911F91CB
:105460000F910895FC01808191810C94DF30CF93DE
:10547000DF93EC0188819981009711F00E94DF3061
:10548000198218821D821C821B821A82DF91CF91A1
:1054900008950F931F93CF93DF93EC018B016F5F00
:1054A0007F4F888199810E946E31009731F09983F6
:1054B00088831B830A8381E001C080E0DF91CF9164
:1054C0001F910F910895CF93DF93EC01888199810B
:1054D000892B29F08A819B818617970760F4CE017A
:1054E0000E94492A882341F08C819D81892B19F4DF
:1054F000E881F981108281E0DF91CF910895EF92E8
:10550000FF920F931F93CF93DF93EC017B018A01EE
:10551000BA010E94632A811104C0CE010E94372A79
:1055200007C01D830C83B701888199810E9438359B
:10553000CE01DF91CF911F910F91FF90EF900895D1
:10554000FC0111821082138212821582148261156D
:10555000710559F0FB0101900020E9F7AF014150BE
:105560005109461B570B0C947F2A0895CF93DF9364
:10557000EC01FB018617970761F06081718161156D
:10558000710529F0448155810E947F2A02C00E9442
:10559000372ACE01DF91CF910895FC01118210824C
:1055A00013821282158214820C94B62ACF93DF9351
:1055B000EC016115710561F0FB0101900020E9F734
:1055C000AF0141505109461B570B0E947F2A02C070
:1055D0000E94372ACE01DF91CF9108950F931F9338
:1055E000CF93DF93CDB7DEB762970FB6F894DEBFE7
:1055F0000FBECDBF8C01CB01F80111821082138246
:1056000012821582148250E0BE016F5F7F4F0E94AC
:105610003F35BE016F5F7F4FC8010E94D62A629658
:105620000FB6F894DEBF0FBECDBFDF91CF911F91B3
:105630000F910895EF92FF920F931F93CF93DF93F3
:10564000EC017B010C811D816115710511F480E075
:1056500016C04115510591F0040F151FB8010E94A5
:10566000632A8823A1F3288139818C819D81B70128
:10567000820F931F0E9438351D830C8381E0DF91D8
:10568000CF911F910F91FF90EF900895EF92FF92AD
:105690000F931F93CF93DF9300D000D0CDB7DEB729
:1056A0007C01862F4AE050E08E010F5F1F4FB8014A
:1056B00090E00E943F35F80101900020E9F7AF012A
:1056C00041505109401B510BB801C7010E941A2BD0
:1056D0000F900F900F900F90DF91CF911F910F912E
:1056E000FF90EF900895EF92FF920F931F93CF9347
:1056F000DF93CDB7DEB727970FB6F894DEBF0FBEA6
:10570000CDBF7C01CB014AE050E08E010F5F1F4FFF
:10571000B8010E946A35F80101900020E9F7AF0155
:1057200041505109401B510BB801C7010E941A2B6F
:1057300027960FB6F894DEBF0FBECDBFDF91CF9195
:105740001F910F91FF90EF900895EF92FF920F93AA
:105750001F93CF93DF93EC017B016115710511F469
:1057600080E01BC0CB010E9405350097A9F00C8199
:105770001D81080F191FB801CE010E94632A8823DA
:1057800079F3288139818C819D81B701820F931F24
:105790000E94FE341D830C8381E0DF91CF911F9125
:1057A0000F91FF90EF900895CF93DF93EC01611577
:1057B000710569F0FB0101900020E9F7AF0141504C
:1057C0005109461B570B0E941A2B811103C0CE01B1
:1057D0000E94372ACE01DF91CF910895CF93DF93B6
:1057E000EC010E94462B811103C0CE010E94372A92
:1057F000CE01DF91CF910895CF93DF93EC010E940A
:10580000732B811103C0CE010E94372ACE01DF9194
:10581000CF910895CF93DF93EC010E94A52B8111C6
:1058200003C0CE010E94372ACE01DF91CF910895A7
:105830009F939F7777D10F9000203AF49058A2EA77
:105840002AED3FE049E450E413D049C25058BB2749
:10585000AA270ED044C20DD230F012D220F031F47B
:105860009F3F11F41EF4CCC10EF4E095E7FB99C103
:10587000E92F57D280F3BA17620773078407950799
:1058800018F071F49EF586C20EF4E0950B2EBA2F37
:10589000A02D0B01B90190010C01CA01A001112436
:1058A000FF27591B99F0593F50F4503E68F11A16E2
:1058B000F040A22F232F342F4427585FF3CF469573
:1058C00037952795A795F0405395C9F77EF41F1695
:1058D000BA0B620B730B840BBAF09150A1F0FF0F5F
:1058E000BB1F661F771F881FC2F70EC0BA0F621F4B
:1058F000731F841F48F4879577956795B795F7953B
:105900009E3F08F0B3CF9395880F08F09927EE0FCC
:105910009795879508959F939F77EEE389379E0724
:1059200020F4E8E6F0E094D109C0FCD09058A2EA57
:105930002AED3FE049EC5FE39BDFD1D10F9007FCFC
:10594000905808950AD108F481E00895A1D1E39513
:10595000D7C10CD0C4C194D140F08BD130F021F428
:105960005F3F19F01EC1511116C24AC1DAD198F336
:105970009923C9F35523B1F3951B550BBB27AA27D0
:1059800062177307840738F09F5F5F4F220F331F42
:10599000441FAA1FA9F333D00E2E3AF0E0E830D00E
:1059A00091505040E695001CCAF729D0FE2F27D011
:1059B000660F771F881FBB1F261737074807AB07DF
:1059C000B0E809F0BB0B802DBF01FF2793585F4F54
:1059D0002AF09E3F510568F0E4C0DDC15F3FECF363
:1059E000983EDCF3869577956795B795F7959F5F19
:1059F000C9F7880F911D9695879597F90895E1E06D
:105A0000660F771F881FBB1F621773078407BA07CB
:105A100020F0621B730B840BBA0BEE1F88F7E09526
:105A2000089504D06894B111B6C1089582D188F068
:105A30009F5790F0B92F9927B751A0F0D1F0660F7A
:105A4000771F881F991F1AF0BA95C9F712C0B13095
:105A500081F0A0D1B1E008959DC1672F782F8827EC
:105A6000B85F39F0B93FCCF3869577956795B395D4
:105A7000D9F73EF490958095709561957F4F8F4F43
:105A80009F4F0895E89409C097FB3EF49095809548
:105A9000709561957F4F8F4F9F4F9923A9F0F92FF4
:105AA00096E9BB279395F695879577956795B79572
:105AB000F111F8CFFAF4BB0F11F460FF1BC06F5F58
:105AC0007F4F8F4F9F4F16C0882311F096E911C06A
:105AD000772321F09EE8872F762F05C0662371F08B
