:100000000C9409020C9431020C9431020C941C09DA
:100010000C941C090C941C090C9431020C943102B0
:100020000C9431020C9431020C9431020C94310284
:100030000C9431020C9431020C9431020C94310274
:100040000C943B290C9431020C94C62B0C94F82B85
:100050000C9431020C9431020C9431020C94310254
:100060000C940C070C943102036EDB363D9A99997F
:10007000993DABAAAA2A3E000000803F072C7AA532
:10008000BA6CC590DA3B9365FC8BBC53F810FD3C11
:100090005692834DBD879D3AB63DCBC9BF5BBE73BB
:1000A000DA0FC93F05A84CCDB2D44EB93836A902F3
:1000B0000C50B9918688083CA6AAAA2ABE00000066
:1000C000803F0664EC1B3C04BC163E3BE5B93CC9D2
:1000D0003C37C29E5A3D660498083EEA69AAAA3E89
:1000E000000000803F007265636569766520627577
:1000F00066666572206F766572666C6F77213A204E
:100100000052414D20436F6D706C6574696E6720BD
:1001100073657475703A2000496E697469616C6921
:100120007A696E6720747261636B6572004C6F61EF
:1001300064696E6720636F6E666967757261746962
:100140006F6E00525443206E6F742072756E6E692C
:100150006E67210052414D204174207374617274A6
:10016000206F662073657475703A20001F1C1F1E77
:100170001F1E1F1F1E1F1E1F7D0066616C73650002
:1001800074727565002C22616E223A002C227376FF
:10019000223A002C227368223A002C226C76223AF2
:1001A000002C226C68223A002C2278223A002C2261
:1001B0006E223A002C2277223A002C2265223A0045
:1001C0002C226F223A002C2261223A0066616C7365
:1001D000650074727565002264223A0043667C7B78
:1001E0000053617665642073657474696E6773008B
:1001F000436865636B73756D206661696C65642C1B
:10020000206C6F6164696E672064656661756C74EB
:100210002073657474696E677300436865636B73FC
:10022000756D207061737365642C206C6F616469F7
:100230006E672073617665642073657474696E6798
:10024000730020746F3A20004D6F766520002061A6
:1002500063747561746F72204D6F7665496E20000E
:10026000206163747561746F72204D6F76654F7590
:10027000742000206163747561746F722074726100
:10028000636B696E6720636F6D706C6574652000C9
:10029000205F63757272656E74506F736974696FF5
:1002A0006E3A20002064656C74613A2000205F7211
:1002B0006571756573746564416E676C653A20009D
:1002C00020747261636B696E672063757272656E0C
:1002D00074416E676C653A200020616374756174C7
:1002E0006F722072657472616374656420616E64FC
:1002F00020696E697469616C697A6564006461740F
:1003000061206F766572666C6F772100436F6D6D4B
:10031000616E64206F766572666C6F77210054722F
:1003200061636B546F53756E200057616974696E19
:100330006720466F72204D6F726E696E670045725E
:10034000726F722064657465637465642C205472E6
:1003500061636B6572206D6F76696E6720746F20C4
:1003600064656661756C7420706F736974696F6E13
:100370000000000008000201000003040700000064
:100380000000000000010204081020408001020467
:1003900008102001020408102004040404040404CA
:1003A000040202020202020303030303030000002B
:1003B0000023002600290000000000250028002B53
:1003C0000000000000240027002A004E414E494E44
:1003D000495459494E46CDCCCC3D0AD7233C17B79A
:1003E000D13877CC2B329595E6241FB14F0A000007
:1003F00020410000C84200401C4620BCBE4CCA1B25
:100400000E5AAEC59D746F042206AD0A320B282C1D
:10041000A50411241FBECFEFD8E0DEBFCDBF12E090
:10042000A0E0B1E0EAE5F5E702C005900D92A23C3C
:10043000B107D9F725E0A2ECB2E001C01D92AC36BD
:10044000B207E1F714E0C0E1D4E004C02297FE0156
:100450000E94EB34C630D107C9F70E946C2C0C9473
:10046000A03A0C940000CF92DF92EF92FF921F937C
:10047000CF93DF9300D000D000D0CDB7DEB783EFAD
:1004800092E00E94A124182F80915003882309F440
:10049000B4C081EF92E00E9443116B017C019B018B
:1004A000AC016091C6027091C7028091C802909120
:1004B000C9020E94643187FF18C0CE0101960E94D4
:1004C0007210CE0101960E946D0F6093C20270936C
:1004D000C3028093C4029093C502C092C602D09218
:1004E000C702E092C802F092C90220E030E040E08A
:1004F00051E4C701B6010E949333181624F5CE01CA
:1005000001960E947210CE0101960E946D0F6093B9
:10051000C2027093C3028093C4029093C502C0923A
:10052000C602D092C702E092C802F092C90261E00E
:1005300083EF92E00E942D238CE291E09093CB0216
:100540008093CA0215C02091CA023091CB0221507B
:1005500031093093CB022093CA021216130644F0DD
:100560001092CB021092CA0283EF92E00E9478258B
:10057000112309F442C067E071E089EC94E00E9425
:10058000EE2C6EE071E089EC94E00E94EE2C40913C
:10059000C2025091C3026091C4027091C5022AE068
:1005A00030E089EC94E00E94EA2D64E171E089EC8E
:1005B00094E00E94EE2C22E030E0B701A60189EC25
:1005C00094E00E94E22E6BE171E089EC94E00E94DD
:1005D000EE2C4091C6025091C7026091C802709102
:1005E000C90222E030E089EC94E00E94E22E62E24F
:1005F00071E089EC94E00E941F2D26960FB6F894C6
:10060000DEBF0FBECDBFDF91CF911F91FF90EF9066
:10061000DF90CF90089580ED92E00E94960981EFDF
:1006200092E00E94421183EF92E00E9483228DE4C7
:1006300093E00C948411CF93DF9300D0CDB7DEB755
:1006400020916805309169052115310511F42CE6DA
:1006500035E0CE010196821B930B0F900F90DF9136
:10066000CF910895BF92CF92DF92EF92FF920F93B6
:100670001F93CF93DF93CDB7DEB762970FB6F89491
:10068000DEBF0FBECDBF26E040E855E260E070E07F
:1006900089EC94E00E94642B40E052EC61E070E051
:1006A00080ED92E00E941F0A64E571E080ED92E027
:1006B0000E94BD2C0E941B034AE0BC01CE010196A2
:1006C0000E94B22FBE016F5F7F4F80ED92E00E94CB
:1006D0000D2DCE0101960E94F62E8BE693E00E942E
:1006E0008F058AE693E00E949B0F8AE693E00E94C2
:1006F000491081111BC063E471E080ED92E00E941B
:10070000FB2CC12CE12C0CE025E146E06FED77E0FD
:10071000CE0101960E94590FCE0101960E94A10FB1
:1007200082E090E090930703809306031092C20248
:100730001092C3021092C4021092C50263EB72E0E1
:10074000CE010D960E94642FCE0107960E94721072
:10075000FC84EB84DA84C984B8840F8110E00053F0
:10076000184FBE01635F7F4FCE0101960E94912F0B
:10077000B801CE0101960E94BE3064E271E00E9491
:1007800096306B2D0E94B03064E271E00E9496308A
:100790006C2D0E94B03069E271E00E9496306D2DA0
:1007A0000E94B03069E171E00E9496306E2D0E9487
:1007B000B03069E171E00E9496306F2D0E94B03038
:1007C00066E271E00E949630BC01CE010D960E9457
:1007D0007A2FCE0101960E94F62EBE01635F7F4FF5
:1007E000CE0101960E94912FBE016F5F7F4F80ED79
:1007F00092E00E940D2DCE0101960E94F62E6DE230
:1008000071E080ED92E00E94FB2C8DE493E00E9469
:10081000111363E372E08091EF029091F0020E9465
:10082000F20D8091EF029091F002DC01ED91FC91CC
:100830000190F081E02D40ED57E060E070E0099517
:100840006091EF027091F0028AE193E00E944F0EF6
:1008500068E171E080ED92E00E94FB2C40ED52E0F7
:100860006AE173E083EF92E00E94AC2383EF92E0B1
:100870000E942A2588EC90E00E9409359093CF02CF
:100880008093CE0261E071E080ED92E00E94FB2C4B
:100890000E941B034AE0BC01CE0101960E94B22FC8
:1008A000BE016F5F7F4F80ED92E00E940D2DCE0163
:1008B00001960E94F62ECE010D960E94F62E6296AB
:1008C0000FB6F894DEBF0FBECDBFDF91CF911F9161
:1008D0000F91FF90EF90DF90CF90BF900895CF934E
:1008E000DF936AE673E08DE493E00E947F1140E0BD
:1008F00050E0BA018AE193E00E94990E4AE653E083
:100900006DE473E083EF92E00E945E2261E170E0AB
:1009100081EF92E00E943E1183E190E00E947B2CE7
:10092000EC0120E030E0A90160E070E00E94C40D1D
:10093000D093F002C093EF0220E04DE06CE080ED38
:1009400092E0DF91CF910C94EF090C940B0389ECAA
:1009500094E00E94812A892BD1F189EC94E00E94D5
:100960009A2AE091CE02F091CF022091CC023091F0
:10097000CD02A9014F5F5F4F5093CD024093CC024F
:10098000E20FF31F80832091CC023091CD02283CEE
:1009900031053CF066EE70E089EC94E00E94BD2CDD
:1009A00011C08D30A1F6E091CE02F091CF02E20F9E
:1009B000F31F10826091CE027091CF0283EF92E01C
:1009C0000E9499261092CD021092CC02C0CF0895B9
:1009D0008AE193E00E94F60D83EF92E00E94D32219
:1009E000029721F483EF92E00E942A250C94A70439
:1009F00080919B0390E020919C03821B91090895B4
:100A000020919C0380919B03281750F4E22FF0E083
:100A1000E356FC4F808190E02F5F20939C03089564
:100A20008FEF9FEF0895E0919C0380919B03E8175F
:100A300030F4F0E0E356FC4F808190E008958FEFB2
:100A40009FEF08950895CF92DF92EF92FF920F9358
:100A50001F93CF93DF937C01CB018A012091770311
:100A6000222389F0EB016B01C40ED51ECC15DD05E8
:100A700069F06991D701ED91FC910190F081E02D31
:100A8000C7010995F3CF642F0E94E306C801DF91E7
:100A9000CF911F910F91FF90EF90DF90CF9008952D
:100AA000CF93DF931F92CDB7DEB769832091770391
:100AB0002223D1F020917803203240F021E030E071
:100AC000FC013383228380E090E015C0809179039C
:100AD000E82FF0E0E658FC4F998190838F5F809378
:100AE00079038093780305C061E0CE0101960E94EE
:100AF000E30681E090E00F90DF91CF910895FC0133
:100B00001382128248EE53E060E070E04483558324
:100B1000668377838FE291E09183808308951092BA
:100B20009C0310929B0310927903109278030C940B
:100B3000260681E08093770360939A0310927903ED
:100B40001092780308950C9499050F93062F21E0D5
:100B5000409178036AE773E080919A030E948C06C3
:100B60001092790310927803109277030F910895F1
:100B70008F929F92AF92BF92CF92DF92EF92FF92AD
:100B80000F931F93CF93DF93EC01F62ED42E4801E1
:100B90005901EE2019F10E9499051E2D143008F01C
:100BA00013E01150B8F0E881F98128E0129FB001FC
:100BB0001124A501940104C05695479537952795B2
:100BC0006A95D2F7CA01B9010190F081E02DCE01FA
:100BD0000995E7CF60E0CE010E94A5054D2D413279
:100BE00008F040E22C2D6DE973E08F2D0E94440641
:100BF00010929C0380939B03DF91CF911F910F91E3
:100C0000FF90EF90DF90CF90BF90AF909F908F902C
:100C10000895CF92EF920F931F93C22EE12C00E024
:100C200010E098010E94B8051F910F91EF90CF90AE
:100C3000089521E00C94090621E00C94090661E076
:100C40000C94A5058BE693E00C947F0510922A0482
:100C500081E0809328041092270461E082E10E94E1
:100C60004B2A61E083E10E944B2AE9EBF0E08081AE
:100C70008E7F808380818D7F808388E48093B8001D
:100C800085E48093BC000895413208F043C0909100
:100C90002A049111FCCF91E090932A042093280418
:100CA0002FEF2093BD0310920204240F2093010420
:100CB0009093290490912904880F892B809329040B
:100CC00080912704813061F41092270480912904D7
:100CD0008093BB008091BC0083FDF8CF85EC01C000
:100CE00085EE8093BC0080912A048130E1F38091ED
:100CF0000204841710F44091020423E034E0FB0165
:100D0000D9018A2F821B841718F48D918193F9CF12
:100D1000842F089580E008950F93413208F04AC06F
:100D200090912A049111FCCF92E090932A040093B1
:100D300028049FEF9093BD03109202044093010496
:100D4000FB0163E074E0DB019A2F961B941718F403
:100D500091919D93F9CF1092290490912904880FC5
:100D6000892B8093290480912704813061F41092AB
:100D70002704809129048093BB008091BC0083FDEF
:100D8000F8CF85EC01C085EE8093BC00222321F0D2
:100D900080912A048230E1F38091BD038F3F61F09E
:100DA0008091BD03803251F08091BD03803341F4C6
:100DB00083E007C081E005C080E003C082E001C09D
:100DC00084E00F910895613298F420912A04243030
:100DD00089F46093DF03FC0181EE93E0DC012A2FAC
:100DE000281B261718F421912D93F9CF80E0089540
:100DF00081E0089582E0089585ED8093BC008091A4
:100E0000BC0084FDFCCF10922A04089585EC8093E9
:100E1000BC0010922A0408951F920F920FB60F92F1
:100E200011242F933F934F935F936F937F938F93EF
:100E30009F93AF93BF93EF93FF938091B900887F07
:100E4000803609F49EC078F5883209F45DC090F4CC
:100E5000803109F456C038F4882309F4F5C088308D
:100E600009F44FC0F5C0883109F44EC0803209F44E
:100E70005FC0EEC0803409F46AC058F4803309F4CE
:100E800057C0883309F0E4C08093BD030E94060771
:100E9000DFC0803509F44FC0883509F45DC088345F
:100EA00009F0D6C0D3C0883909F4C4C0A8F4883783
:100EB00009F467C038F4883609F463C0803709F450
:100EC00060C0C6C0883809F4B5C0803909F45FC075
:100ED000803809F0BDC05BC0803B09F483C038F4A2
:100EE000803A09F466C0883A09F47CC0B1C0803CFD
:100EF00009F4A4C0883C09F4A1C0883B09F487C068
:100F0000A7C08091290410C090910204809101042F
:100F1000981770F5E091020481E08E0F809302042F
:100F2000F0E0ED5FFB4F80818093BB0085EC83C0D8
:100F30008093BD038BC0E091020481E08E0F80930B
:100F400002048091BB00F0E0ED5FFB4F8083909145
:100F50000204809101046BC0E091020481E08E0FD5
:100F6000809302048091BB00F0E0ED5FFB4F808333
:100F70008091280481116AC081E08093270484EA6B
:100F80005EC083E080932A041092BE03CFCF80918D
:100F9000BE03803208F04EC0E091BE0381E08E0FA8
:100FA0008093BE038091BB00F0E0E154FC4F80834E
:100FB000BDCF0E9406078091BE03803230F4E091DD
:100FC000BE03F0E0E154FC4F10826091BE0370E07C
:100FD000E0912304F09124048FEB93E009951092A3
:100FE000BE0336C084E080932A041092E00310927E
:100FF000DF03E0912504F091260409958091DF0339
:10100000811105C081E08093DF031092E103E0913C
:10101000E00381E08E0F8093E003F0E0EF51FC4F9E
:1010200080818093BB009091E0038091DF0398174B
:1010300008F47CCF85E88093BC000AC085EC8093DF
:10104000BC0010922A0404C01092BD030E94FC064A
:10105000FF91EF91BF91AF919F918F917F916F9190
:101060005F914F913F912F910F900FBE0F901F9066
:10107000189520916D0430916E0428173907B9F442
:1010800090912B0480912C04981789F0E0912B0407
:10109000F0E0E35DFB4F808120912B0430E02F5F77
:1010A0003F4F2F73332720932B0490E008958FEF49
:1010B0009FEF08951F93CF93DF93DC015C968D9192
:1010C0009C915D97009749F481E090E013969C9382
:1010D0008E93129780E090E03BC05196ED91FC9189
:1010E000529750962C915097322F30951FB75E969D
:1010F0004C915E9741FB772770F941FD6095F8941C
:101100004081772311F0422B01C043234083EC013F
:101110002197F1F748E0508160FF02C0522B01C0D7
:1011200053235083EC012197F1F76695415099F7CD
:101130008081772311F0832301C0822B80831FBF1E
:101140005C968D919C915D970197F1F781E090E01D
:10115000DF91CF911F910895089520916D043091F2
:101160006E042817390771F490912B0480912C0498
:10117000981741F0E0912B04F0E0E35DFB4F808194
:1011800090E008958FEF9FEF089520916D043091C6
:101190006E042817390771F480912C0420912B04D8
:1011A00090E0805C9F4F821B910960E470E00E9498
:1011B0009434089580E090E00895E0916D04F091FA
:1011C0006E04E817F90769F4A389B4899C918589AD
:1011D000809589238C9310926E0410926D0481E0A7
:1011E000089580E00895CF93DF93EC018A8D9B8D65
:1011F000892BF1F080916D0490916E048C179D07FE
:10120000B9F0009711F00E94DD088E8D8E7F8E8FD1
:1012100010922C0410922B04D0936E04C0936D0492
:10122000EB89FC8980819D89892B808381E001C0C5
:1012300080E0DF91CF9108951F920F920FB60F9229
:1012400011242F933F934F935F936F937F938F93CB
:101250009F93AF93BF93EF93FF93E0916D04F09151
:101260006E04309709F451C0868DA685B7859585A3
:1012700081FF04C08C91892329F447C08C91892374
:1012800009F043C0A389B4899C91858980958923FD
:101290008C93868997890197F1F7208D318DA685EA
:1012A000B785758558E040E0C9010197F1F7842FB3
:1012B00090E095958795482F6C91672309F04068D9
:1012C000515091F7868D81FD409580912C0490E0DE
:1012D00001968F73992720912B04281749F0A0912C
:1012E0002C04B0E0A35DBB4F4C9380932C0403C04F
:1012F000868D8160868F828D938D0197F1F7A3890A
:10130000B4898C919589892B8C93FF91EF91BF9132
:10131000AF919F918F917F916F915F914F913F918D
:101320002F910F900FBE0F901F9018952FE331E073
:10133000FC01318320830C94DD081F93CF93DF934E
:10134000EC01162F6E8D6695617081E06827812F04
:101350000E944B2A61E0812F0E94122A812F90E087
:10136000FC01EB57FC4FE491E88BFC01E756FC4F86
:10137000E491F0E0EE0FFF1FE954FC4F859194914A
:101380009A8B898BDF91CF911F9108951F93CF93F3
:10139000DF93EC01162F60E0812F0E94122A8E8DC0
:1013A00081FD04C061E0812F0E944B2A1C87812FA0
:1013B00090E0FC01EB57FC4FE491ED87FC01E75610
:1013C000FC4FE491F0E0EE0FFF1FE355FC4F8591D9
:1013D00094919F878E87DF91CF911F910895FF92FF
:1013E0000F931F93CF93DF93EC01F62E522F1B82A6
:1013F0001A8208EE13E020E030E00C831D832E8378
:101400003F838FE391E0998388831F8A1E8A198E18
:10141000188E1B8E1A8E1D8E1C8E8E8D8E7F50FB0D
:1014200081F98E8F642FCE010E949D096F2DCE0110
:10143000DF91CF911F910F91FF900C94C609CF932C
:10144000DF93EC019A01AB011B8E1A8E198E188E58
:101450001F8A1E8A60E079E08DE390E00E94CA3422
:10146000C9012430310520F0B9016350710902C06F
:1014700061E070E07D8F6C8FEC85E63108F068C02C
:10148000B901769567956431710518F0635171095A
:1014900002C061E070E07F8B6E8B069718F0C90187
:1014A000059702C081E090E0998F888FC901880F6D
:1014B000991F820F931F96958795969587958D30E6
:1014C000910510F00C9702C081E090E09B8F8A8F0D
:1014D00020916800E83050F091E0EE3008F490E0A0
:1014E00081E001C0880F9A95EAF701C084E0822B61
:1014F000809368002C85283038F02E3040F026315B
:1015000048F48CE690E008C08DE690E005C08BE6DC
:1015100090E002C080E090E09C8B8B8B283030F410
:1015200081E001C0880F2A95EAF70DC0822F90E074
:101530002E3010F4089701C00E9791E001C0990F6A
:101540008A95EAF7892F8D8B8C8D9D8D0197F1F708
:10155000CE01DF91CF910C94F30810927004109299
:101560006F0410927204109271040895DB011097B9
:1015700049F0ED91FC9111970190F081E02DBC01B3
:10158000CD01099480E090E00895CF93DF93EC01C2
:10159000BC0184E090E00E94B60AFC01009729F0AB
:1015A000D183C0831382128202C08FE694E0DF9160
:1015B000CF910895CF93DF93EC01BC0184E090E0DC
:1015C0000E94B60AFC01009729F0D183C0831382E0
:1015D000128202C083E794E0DF91CF910895CF9308
:1015E000DF93CDB7DEB727970FB6F894DEBF0FBEF7
:1015F000CDBF9A8389836115710519F483EB92E05D
:1016000001C0CB019C838B837E836D834F83CE018E
:1016100001960E94110C27960FB6F894DEBF0FBEFC
:10162000CDBFDF91CF9108950F931F93CF93DF9399
:101630008B01FC01C281D381209759F0B8018A81C6
:101640009B810E94F139892B39F00990D881C02DF6
:10165000F3CF80E090E001C0CE01DF91CF911F91E8
:101660000F910895109274041092730410927604EE
:10167000109275040895FC01808191818330910559
:1016800034F481309105BCF4892B11F11CC08530F4
:10169000910554F00597B9F4628173818481958135
:1016A0000E940432905808956281738184819581EB
:1016B0000E940432089582819381009749F060E08E
:1016C00070E00C94FA36628173818481958108956B
:1016D00060E070E0CB010895FC0120812D3051F0D5
:1016E00024F42950223030F505C0203219F02F3271
:1016F00019F008950196F0CFFC0121812A3219F0EA
:101700002F3279F008950296FC012081222321F3E3
:101710002A3229F421812F3211F40296DDCF01966D
:10172000F3CFFC013296CF0121912223A9F22A3076
:10173000D1F7D2CF08950F931F93CF93DF931F92CA
:10174000CDB7DEB78C01FC018281938169830E9451
:101750006C0BFC0120816981261308C001960E9450
:101760006C0BF8019383828381E001C080E00F90CD
:10177000DF91CF911F910F910895CF93DF93EC01EB
:10178000AA81BB814C813D812C91273219F4C42F51
:10179000D32F15C02232D9F3C42FD32FFD012AC075
:1017A0003C3559F4FD01329612963C91AFE4B1E01C
:1017B0006C91611110C0332339F13993DF01AE010F
:1017C000FD01319611963C9111973323E9F03213C4
:1017D000E7CF319619C0631303C011963C91EBCF4C
:1017E0001296E6CF322F3F7D31543A3148F4299397
:1017F00031962081AE0130ED320F3A30C0F3F2CF96
:1018000033ED320F323098F3DA011D92EC012C8166
:101810003D81FB83EA83BD83AC83C901DF91CF9116
:101820000895BF92CF92DF92EF92FF920F931F9392
:10183000CF93DF9300D000D000D0CDB7DEB78C01BE
:10184000FC01808191810E94DA0A6C016BE7C8017A
:101850000E949B0B882309F444C06DE7C8010E94D5
:101860009B0B81113CC086E0B82EC8010E94BD0BC5
:101870007C010097B1F16AE3C8010E949B0B8823A9
:1018800081F11A821982BE016F5F7F4FC8010E94E9
:10189000830C882331F1B701C6010E94140B009715
:1018A00041F4C6010E94340D0097D9F0FC01F38287
:1018B000E282FE013196DC0114968B2D01900D928F
:1018C0008A95E1F76DE7C8010E949B0B811107C063
:1018D0006CE2C8010E949B0B8111C7CF02C0C601F8
:1018E00002C083E794E026960FB6F894DEBF0FBEE1
:1018F000CDBFDF91CF911F910F91FF90EF90DF90BF
:10190000CF90BF900895FF920F931F93CF93DF93D3
:10191000EC018B018E81882309F447C081508E83AE
:101920008A819B810E946C0B9B838A83FC0180814E
:101930008B3519F08B3761F01CC0CE010E94DC0C96
:10194000FC0120813181232B59F126E030E00AC0CF
:10195000CE010E94110CFC0120813181232B01F169
:1019600027E030E0F801318320839383828381E094
:1019700018C0873231F091E0823209F090E0F92E00
:1019800002C0FF24F394CE010E94BD0B009741F0EA
:10199000FF2019F022E030E0E5CF21E030E0E2CF97
:1019A00080E09E819F5F9E8301C080E0DF91CF91A8
:1019B0001F910F91FF900895DF92EF92FF920F9386
:1019C0001F93CF93DF9300D000D000D0CDB7DEB708
:1019D0008C01FC01808191810E94C50A7C016BE52C
:1019E000C8010E949B0B882379F16DE5C8010E9414
:1019F0009B0B811127C096E0D92E1A821982BE0155
:101A00006F5F7F4FC8010E94830C8823E9F0C701F4
:101A10000E94570D0097C1F0FE013196DC0112962D
:101A20008D2D01900D928A95E1F76DE5C8010E9418
:101A30009B0B811107C06CE2C8010E949B0B8111B6
:101A4000DCCF02C0C70102C08FE694E026960FB635
:101A5000F894DEBF0FBECDBFDF91CF911F910F91E4
:101A6000FF90EF90DF900895CF93DF93EC016881B2
:101A700079818AE090E00E94B60A009729F0FC0183
:101A80001182108215821482EA81FB81309751F015
:101A9000208131812115310511F0F901F9CF9183B0
:101AA000808302C09B838A83DF91CF910895CF9377
:101AB000DF93EC016881798188E090E00E94B60AAA
:101AC000009729F0FC011182108213821282EA81B0
:101AD000FB81309751F0208131812115310511F0C2
:101AE000F901F9CF9183808302C09B838A83DF91C0
:101AF000CF9108950F931F93FC0142835383648316
:101B000075830681178120853185040F151F261FD7
:101B1000371F02871387248735871F910F910895F8
:101B20000F931F93FC010285138524853585401B87
:101B3000510B620B730B77FD02C0808901C080E0FE
:101B40001F910F9108950F931F93CF93DF93EC0193
:101B5000EE85FF85309709F009950E9485296E83EF
:101B60007F83888799870A811B812C813D81060F9D
:101B7000171F281F391F0A871B872C873D87DF9176
:101B8000CF911F910F910895FC018EE591E0918313
:101B9000808381E0808B7787668716821782108624
:101BA0001186F28BE18B2283338344835583228712
:101BB00033874487558708950F931F93FC0146830D
:101BC0005783608771870281138124813581040FD7
:101BD000151F261F371F02871387248735871F91FC
:101BE0000F910895FC017787668708958F929F92E1
:101BF000AF92BF92CF92DF92EF92FF920F931F931B
:101C0000CF93DF93EC01EE85FF85309709F00995BE
:101C10000E9485296B017C018E015E012EE1A20EDE
:101C2000B11C812C912C89A99AA98815990524F1B8
:101C3000D80153968D919C9154970097C1F0BFEFB6
:101C40008B1A9B0ADC01ED91FC910280F381E02D5F
:101C5000B701A6010995882351F0F8018389948979
:101C6000DC01ED91FC910480F581E02D09950E5F7A
:101C70001F4F0A151B05B9F60E948529AB01BC014F
:101C8000CE01DF91CF911F910F91FF90EF90DF90E8
:101C9000CF90BF90AF909F908F900C94DC0D20E080
:101CA00030E0FC01E20FF31F0388F489E02D309748
:101CB00059F00188F289E02DDB0151964D915C913C
:101CC0005297E417F50719F12E5F3F4F2E3131057A
:101CD00041F7FC0120E030E043895489452B79F439
:101CE000F901EE0FFF1FE80FF91F748B638BFC01E6
:101CF00021A932A92F5F3F4F32AB21AB08C02F5F24
:101D00003F4F32962F30310539F780E0089581E05A
:101D1000089520E030E0FC01E20FF31F148A138ADB
:101D20002E5F3F4F2E313105B1F7FC0112AA11AAE7
:101D30000895CF92DF92EF92FF92CF93DF93EC0161
:101D40006A017B0120E030E0A90160E070E00E94C0
:101D5000C40D88E691E0998388831AAA19AACE0156
:101D60000E94890EE881F9810190F081E02DB70190
:101D7000A601CE01DF91CF91FF90EF90DF90CF9041
:101D80000994803D27E0920710F0805D974050E075
:101D9000ECE6F1E021E02E1B322F3E0F361728F43F
:101DA0003491430F511D3196F7CF633038F09C01C9
:101DB00023703327232B11F44F5F5F4F6DE671E0E3
:101DC000869F9001879F300D969F300D11242150E2
:101DD000310903969695879596958795280F391F13
:101DE000C901840F951F0895DC01ED91FC910190CC
:101DF000F081E02D0994CF92DF92EF92FF92CF9382
:101E0000DF93EC01405853446D467843ECE3CE2E0B
:101E1000D12CE12CF12CCB01BA01A70196010E9433
:101E2000A8346D83CA01B901A70196010E94A834A4
:101E30006C83CA01B90128E130E040E050E00E9423
:101E4000A8346B83188243E95EEFE8818E2F83709C
:101E5000A1E009F0A0E08A2F90E0BC0163597E4F19
:101E60002617370740F0BA01681B790B260F371F7A
:101E7000EF5FE883EACF81E089838981E82FF0E092
:101E8000E559FE4FE491AA2319F0823009F4EF5F7F
:101E9000F0E02E173F0720F02E1B3F0B8F5FECCF9B
:101EA0002F5F2A83DF91CF91FF90EF90DF90CF904B
:101EB0000895CF92EF920F93FC01603D87E0780781
:101EC00010F0605D77406083418322830383E48266
:101ED000C5820F91EF90CF900895CF93DF93EC01DF
:101EE00088814A81698190E00E94C10E9C01A8E12D
:101EF000B0E00E94EF349B01AC018B81280F311DB3
:101F0000411D511DACE3B0E00E94FE349B01AC01C9
:101F10008C81280F311D411D511D0E94FE342D81E1
:101F2000620F711D811D911D60587C4B8249974C39
:101F3000DF91CF9108958BE693E00E948F0581E0B9
:101F400008951F93CF93DF93EC0168E670E08BE672
:101F500093E00E94A30560E08BE693E00E945005A9
:101F60002D811AE0822F612F0E947434682F660F32
:101F7000680F660F620F8BE693E00E9450052C817C
:101F8000822F612F0E947434682F660F680F660FCE
:101F9000620F8BE693E00E9450052B81822F612F08
:101FA0000E947434682F660F680F660F620F8BE60D
:101FB00093E00E94500560E08BE693E00E9450059C
:101FC0002A81822F612F0E947434682F660F680F58
:101FD000660F620F8BE693E00E9450052981822FE5
:101FE000612F0E947434682F660F680F660F620FAE
:101FF0008BE693E00E9450052881822F612F0E947A
:102000007434682F660F680F660F620F8BE693E0DB
:102010000E9450058BE693E0DF91CF911F910C94C5
:102020001F06EF92FF920F931F93CF93DF9300D081
:10203000CDB7DEB7062F122F68E670E08BE693E08F
:1020400049835A830E94A305602F70E0685F7F4F29
:102050008BE693E00E94F40E4981042FE42E5A810E
:10206000F52E8E2D801B811740F4F70161917F01C1
:102070008BE693E00E945005F4CF8BE693E00F903F
:102080000F90DF91CF911F910F91FF90EF900C94E3
:102090001F06CF93DF9368E670E08BE693E00E9423
:1020A000A30560E08BE693E00E9450058BE693E089
:1020B0000E941F0641E050E068E670E08BE693E086
:1020C0000E941C068BE693E00E94000587FB882790
:1020D00080F9C82F80E0D82F81E0C8278C2FDF91AE
:1020E000CF910895CF92DF92EF92FF920F931F93BB
:1020F000CF93DF93EC0168E670E08BE693E00E94FB
:10210000A30560E08BE693E00E9450058BE693E028
:102110000E941F0647E050E068E670E08BE693E01F
:102120000E941C068BE693E00E9400058F77982F93
:1021300092959F701AEF082F919F000D11248BE646
:1021400093E00E9400059C013327A4E03595279574
:10215000AA95E1F7F82E129FF00C11248BE693E07C
:102160000E9400059C013327B4E035952795BA9568
:10217000E1F7E82E129FE00C11248BE693E00E9419
:1021800000058BE693E00E9400059C01332794E054
:10219000359527959A95E1F7D82E129FD00C1124EA
:1021A0008BE693E00E9400059C01332744E03595BF
:1021B00027954A95E1F7C82E129FC00C11248BE693
:1021C00093E00E9400059C01332754E03595279544
:1021D0005A95E1F7129F800D11248883C982DA8213
:1021E000EB82FC820D83CE01DF91CF911F910F9185
:1021F000FF90EF90DF90CF900895CF92DF92EF9213
:10220000FF920F931F93CF93DF931F92CDB7DEB74B
:10221000062FF72E142F68E670E08BE693E02983F3
:102220000E94A3052981622F70E0685F7F4F8BE6D3
:1022300093E00E94F40E8BE693E00E941F06412F6C
:1022400068E68BE693E00E941906E02EC02EDF2C94
:102250008C2D8E19811740F48BE693E00E940005C7
:10226000F60181936F01F4CF0F90DF91CF911F9111
:102270000F91FF90EF90DF90CF900895FC01718354
:10228000608308950895CF92DF92EF92FF92FC0150
:1022900080810E94CC29BC01882777FD8095982FEA
:1022A0000E94063223E030E040EA5BE30E9497336D
:1022B0006B017C012DEC3CEC4CEC5EE30E94643144
:1022C0001816ACF42DEC3CEC4CEC5EE3C701B60107
:1022D0000E94E83020E030E040E052E40E94973372
:1022E0002DEC3CEC4CEC5FE30E946B3103C060E0F2
:1022F00070E0CB01FF90EF90DF90CF900895FC014C
:1023000071836083148E08950895FC01628321E037
:10231000248F0895FC01638321E0248F08950F9397
:102320001F93FC014483558366837783008711875D
:102330002287338781E0848F1F910F9108950F9337
:102340001F93FC017587648757874687318B208BE5
:102350000B3511051CF4138B028B04C08AE590E049
:10236000938B828B828993898D9724F48DE290E000
:10237000938B828B2D32310524F08CE290E0918B8F
:10238000808B8089918997FF02C0118A108A77FF1C
:1023900002C01586148684859585853B910524F0B9
:1023A00084EB90E095878487463B510524F486EBC7
:1023B00090E097878687868597858836914024F0B8
:1023C00087E691E09787868781E0848F1F910F9140
:1023D00008950F931F93FC01758B648B578B468B6D
:1023E000318F208F138F028F81E0848F1F910F9187
:1023F0000895CF93DF9300D000D0CDB7DEB7FC01B6
:102400008081898381818A8382818B8383818C838C
:1024100069817A818B819C810F900F900F900F9032
:10242000DF91CF910895CF93DF9300D0CDB7DEB782
:10243000FC012081298381818A8389819A810F907F
:102440000F90DF91CF91089520E030E080E0FB0114
:102450009191BF01890F2F5F3F4F2E313105B9F7A1
:1024600081950895EF92FF920F931F93CF93DF937F
:10247000CDB7DEB7E9970FB6F894DEBF0FBECDBF7C
:102480007C01FE013196CE014F96AF011192E81703
:10249000F907E1F7F7018281882319F081E0898348
:1024A00001C01982F701848595858EAB9FAB8B8324
:1024B0009C83868597858CAB9DAB8D839E8380891D
:1024C00091898AAB9BAB8F8398878289938988ABEC
:1024D00099AB89879A872481758166813781822F9C
:1024E000972FA62FB32F8CA39DA3AEA3BFA32B879B
:1024F0008DA18C878EA18D878FA18E878085718518
:1025000062859385082F172F262F392F08A319A32B
:102510002AA33BA38F8789A1888B8AA1898B8BA152
:102520008A8B848995898EA79FA78B8B9C8B8689A4
:1025300097898CA79DA78D8B9E8B808D918D8AA767
:102540009BA78F8B988F828D938D88A799A7898F52
:102550009A8F8381882319F081E08B8F01C01B8EB5
:10256000BA01C70148AF59AF0E9424128D8F2EE1E6
:1025700048AD59AD60E0F701808191810E94111052
:10258000F701148E61EE71E089EC94E00E94FB2C5F
:10259000E9960FB6F894DEBF0FBECDBFDF91CF91A5
:1025A0001F910F91FF90EF900895FF920F931F934B
:1025B000CF93DF93EC01FF24F394FA82FC8E1B820D
:1025C0000AE510E020E030E04EE051E06AE570E01E
:1025D0000E949F118CE090E09D8B8C8B88E090E0B6
:1025E0009F8B8E8B8FE190E0998F888F9B8F8A8F46
:1025F000FC8E81E09FEBA7E3B2E48C839D83AE83E6
:10260000BF8349EB5EE266E972EC488759876A87C7
:102610007B87CE01DF91CF911F910F91FF900C949A
:1026200032120F931F93CF93DF93CDB7DEB76F971F
:102630000FB6F894DEBF0FBECDBF8C0120E04EE197
:10264000BE016F5F7F4FFC01808191810E94FD1070
:10265000BE016F5F7F4FC8010E942412811161C0CB
:102660006AE172E089EC94E00E94FB2C8981F80118
:10267000813011F4828301C01282CE0103960E9440
:102680001312F80195878487CE0105960E941312D4
:10269000F80197878687CE0107960E941312F801EA
:1026A000918B808BCE0109960E941312F801938BB7
:1026B000828BCE010B960E94F911F8016483758319
:1026C00086839783CE010F960E94F911F8016087E7
:1026D000718782879387CE0143960E941312F80177
:1026E000958B848BCE0145960E941312F801978B2F
:1026F000868BCE0147960E941312F801918F808F2E
:10270000CE0149960E941312F801938F828F8B8D10
:10271000813011F4838302C0F8011382F801148E12
:1027200009C060EF71E089EC94E00E94FB2CC801C5
:102730000E94D5126F960FB6F894DEBF0FBECDBFC4
:10274000DF91CF911F910F910895CF93DF93EC010B
:102750006CED71E089EC94E00E94BD2C67ED71E0B6
:1027600089EC94E00E94BD2C8A81882319F062EDE7
:1027700071E002C06CEC71E089EC94E00E94BD2C29
:1027800066EC71E089EC94E00E94BD2C4C815D8187
:102790006E817F8126E030E089EC94E00E94E22E99
:1027A00060EC71E089EC94E00E94BD2C488559856D
:1027B0006A857B8526E030E089EC94E00E94E22E79
:1027C0006AEB71E089EC94E00E94BD2C6C857D85FC
:1027D0004AE050E089EC94E00E94CA2D64EB71E07D
:1027E00089EC94E00E94BD2C6E857F854AE050E024
:1027F00089EC94E00E94CA2D6EEA71E089EC94E0C5
:102800000E94BD2C688979894AE050E089EC94E007
:102810000E94CA2D68EA71E089EC94E00E94BD2C08
:102820006A897B894AE050E089EC94E00E94CA2DD5
:1028300061EA71E089EC94E00E94BD2C6C897D898D
:102840004AE050E089EC94E00E94CA2D6AE971E008
:1028500089EC94E00E94BD2C6E897F894AE050E0AB
:1028600089EC94E00E94CA2D63E971E089EC94E060
:102870000E94BD2C688D798D4AE050E089EC94E08F
:102880000E94CA2D6CE871E089EC94E00E94BD2C96
:102890006A8D7B8D4AE050E089EC94E00E94CA2D5D
:1028A00065E871E089EC94E00E94BD2C8B8188235F
:1028B00019F060E871E002C06AE771E089EC94E029
:1028C0000E94BD2C68E771E089EC94E0DF91CF9124
:1028D0000C94FB2C22E731E0FC0131832083C99664
:1028E0000C94F62ECF93DF93EC010E946A14CE0174
:1028F000DF91CF910C947D2CBF92CF92DF92EF921B
:10290000FF920F931F93CF93DF93EC016B01B42ED3
:10291000122F20E030E0A90160E070E00E94C40DB9
:1029200082E791E0998388837E0189E3E80EF11CB8
:1029300063EB72E0C7010E94642FB601C7010E94D9
:102940007A2F4B2D552747FD50955E8F4D8F212FA8
:10295000332727FD309538A32F8F112707FD1095BA
:102960001AA309A31B8A1C8A1D8A1E8A83E090E091
:10297000988F8F8B188A19A61AA61BA61CA61DA6AF
:102980001EA61FA618AA19AA1AAA1BAA1CAA1FAE1D
:10299000DF91CF911F910F91FF90EF90DF90CF903B
:1029A000BF9008950F931F93CF93DF938A01D62F83
:1029B000C72FFC0187AD882319F120E030E044E304
:1029C00053E4B8018D2F9C2F0E949333181664F4A2
:1029D00020E030E044EB53E4B8018D2F9C2F0E949F
:1029E000E8309B01AC0103C098014D2F5C2F60E0E3
:1029F00070E084E393E40E94E8308B01D82FC92F64
:102A0000B8018D2F9C2FDF91CF911F910F910895C9
:102A1000FC0161A572A583A594A50895CF93DF93CA
:102A2000EC0169A97AA98BA99CA90E94063220E031
:102A300030E04AE754E40E946B312DA13EA14FA142
:102A400058A50E949733DF91CF910895CF92DF92DE
:102A5000EF92FF920F931F93CF93DF938C01FC01B2
:102A60008789908D892B91F1C38DD48D618D728D65
:102A70006C1B7D0B882777FD8095982F0E9406326E
:102A80006B017C01F80165A976A987A990AD0E9428
:102A900006329B01AC01C701B6010E946B31F801FF
:102AA00021A532A543A554A50E9497336B017C0153
:102AB000BE01882777FD8095982F0E9406329B01E2
:102AC000AC01C701B6010E94E93003C060E070E0CC
:102AD000CB01DF91CF911F910F91FF90EF90DF908D
:102AE000CF900895CF93DF93EC010E942615AB01A0
:102AF000BC01CE01DF91CF910C94D214CF93DF9320
:102B0000EC016B8D7C8D882777FD8095982F0E9436
:102B100006326B8B7C8B8D8B9E8BE881F9810190CB
:102B2000F081E02D48E853E160E070E0CE010995C6
:102B300060E08F8D0E944B2A61E089A10E944B2AA0
:102B40000E9485296DA77EA78FA798AB61E08D8D28
:102B50000E944B2A188E1F8A81E0888BDF91CF91CB
:102B600008958F929F92AF92BF92CF92DF92EF9291
:102B70000F931F93CF93DF93EC015B014A0169012F
:102B800061E08D8D0E94122A61E08F8D0E94122AD1
:102B900061E089A10E94122AEFAEB401882777FD77
:102BA0008095982F0E940632AB01BC01CE010E9495
:102BB000D2140E94D3317A8F698FB501882777FDAF
:102BC0008095982F0E940632AB01BC01CE010E9475
:102BD000D2140E94D3317C8F6B8F188E1F8AC6014E
:102BE000AA2797FDA095BA2F8DAB9EABAFABB8AF20
:102BF000B801882777FD8095982F0E94063220E043
:102C000030E048EC52E40E946B316DA37EA38FA3A9
:102C100098A7CE01DF91CF911F910F91EF90DF9098
:102C2000CF90BF90AF909F908F900C947E15CF93D4
:102C3000DF93EC0160E08F8D0E944B2A61E089A157
:102C40000E944B2A61E08D8D0E944B2A81E090E02A
:102C5000988F8F8BDF91CF910895CF93DF93EC0105
:102C600061E08F8D0E944B2A60E089A10E944B2A6F
:102C700061E08D8D0E944B2A82E090E0988F8F8BCF
:102C8000DF91CF910895CF93DF93EC0160E08F8DBA
:102C90000E944B2A60E089A10E944B2A60E08D8D42
:102CA0000E944B2A83E090E0988F8F8B188ADF91E7
:102CB000CF9108954F925F926F927F92AF92BF92A1
:102CC000CF92DF92EF92FF920F931F93CF93DF93F8
:102CD00000D000D000D0CDB7DEB78C010E9485298E
:102CE000AB01BC01C8010E94DC0DF8018789908D01
:102CF000892B09F044C00E948529F801C5A4D6A4F7
:102D0000E7A4F0A86C197D098E099F0961AB72AB2D
:102D100083AB94ABC8010E940E156B017C01F801D6
:102D200065A976A987A990AD0E9406329B01AC01E6
:102D3000C701B6010E94933318160CF027C1F801A1
:102D4000108A11A612A613A614A6C8010E94431643
:102D5000B801675C7F4FCE0101960E94912F69ED0B
:102D600072E0CE0101960E94CC30BC0189EC94E067
:102D70000E940D2DCE0101960E94F62E07C1C801BA
:102D80000E9426152B013C01F801238934894589CD
:102D900056890E94E8306B017C0120E030E0A901F7
:102DA0000E949333181624F0F7FAF094F7F8F09491
:102DB0005801F9E3AF0EB11CB501CE0101960E9496
:102DC000912F60EC72E0CE0101960E94CC30BC01E4
:102DD00089EC94E00E94E02CCE0101960E94F62E30
:102DE00022E030E0B301A20189EC94E00E94E22EDF
:102DF0006DEA72E089EC94E00E94BD2CF8014389F1
:102E000054896589768922E030E089EC94E00E945B
:102E1000E22E64EA72E089EC94E00E94BD2C22E08C
:102E200030E0B701A60189EC94E00E94E22E60E94F
:102E300072E089EC94E00E94BD2CF80141A552A5F6
:102E400063A574A522E030E089EC94E00E94E42EB2
:102E500020E030E040E050E4C701B6010E94643158
:102E600018165CF0C8010E944316B501CE01019608
:102E70000E94912F63E772E042C0F801C388D488B2
:102E8000E588F688A7019601C301B2010E9464316A
:102E900087FF17C0F8018789908D0297E9F1C80173
:102EA0000E942D160E948529F80165A776A787A79D
:102EB00090ABB501CE0101960E94912F60E672E0C1
:102EC0001EC0A7019601C301B2010E9493331816D8
:102ED0001CF5F8018789908D0197F1F0C8010E94D7
:102EE00017160E948529F80165A776A787A790ABDA
:102EF000B501CE0101960E94912F6EE472E0CE01E1
:102F000001960E94CC30BC0189EC94E00E940D2D0A
:102F1000CE0101960E94F62E0E948529F801C5A4D3
:102F2000D6A4E7A4F0A89B01AC012C193D094E09D9
:102F30005F0921AB32AB43AB54AB65A776A787A73C
:102F400090AB8789908D8230910569F4C8010E9409
:102F50000E159B01AC01F80161A572A583A594A58E
:102F60000E94E9300EC0019789F4C8010E940E1535
:102F70009B01AC01F80161A572A583A594A50E94EF
:102F8000E830F80161A772A783A794A726960FB629
:102F9000F894DEBF0FBECDBFDF91CF911F910F918F
:102FA000FF90EF90DF90CF90BF90AF907F906F90A9
:102FB0005F904F9008958F929F92AF92BF92CF9261
:102FC000DF92EF92FF920F931F93CF93DF93EC0169
:102FD0000E94D2147B018C01CE010E9426159B0118
:102FE000AC01B701C8010E94E8304B015C0120E050
:102FF00030E0A9010E94933318165CF420E030E021
:1030000040EA50E4C501B4010E94933318165CF005
:103010005EC020E030E040EA50ECC501B4010E94FF
:10302000643187FF54C068E472E089EC94E00E9448
:10303000BD2CBE01675C7F4F89EC94E00E94E02CC0
:1030400062E472E089EC94E00E94BD2C22E030E062
:10305000A701B80189EC94E00E94E42E698D7A8D75
:10306000882777FD8095982F0E9406325B016C01BE
:103070009B01AC01B701C8010E9493331816A4F05C
:103080006B8D7C8D882777FD8095982F0E94063266
:103090005B016C019B01AC01B701C8010E94643166
:1030A00087FD02C057016801E881F9810190F08134
:1030B000E02D44E650E060E070E0CE010995C501E6
:1030C000D6018B8B9C8BAD8BBE8B81E0888BDF9187
:1030D000CF911F910F91FF90EF90DF90CF90BF9015
:1030E000AF909F908F900895CF92DF92EF92FF92D2
:1030F0000F931F936A017B014093900450939104B6
:103100006093920470939304D901C801B0588093DE
:103110008C0490938D04A0938E04B0938F0420E0D0
:1031200030E044EB52ECC701B6010E94933387FDB7
:1031300016C02AE939E943EB52ECC701B6010E94F7
:10314000643187FF0CC08AE999E9A3EBB2EC809364
:10315000900490939104A0939204B0939304C09030
:103160009004D0909104E0909204F090930420E0B9
:1031700030E044EB52E4C701B6010E9464311816F6
:10318000B4F02AE939E943EB52E4C701B6010E94E1
:103190009333181664F48AE999E9A3EBB2E48093B7
:1031A000900490939104A0939204B09393041F9180
:1031B0000F91FF90EF90DF90CF9008956091880479
:1031C0007091890480918A0490918B040895609194
:1031D00084047091850480918604909187040895F9
:1031E000809177040895CF92DF92EF92FF926A0167
:1031F0007B0121ED36EF4EE959E3C701B6010E948C
:10320000973325EC30EA4CE057E40E94E9309B010B
:10321000AC01C701B6010E94973325EB3BE34CE8B4
:1032200053E40E94E9306B017C0120E030E044EB84
:1032300053E40E94933318164CF420E030E044EB42
:1032400053E4C701B6010E94E830EDCF20E030E042
:10325000A901C701B6010E94643187FF0BC020E0BD
:1032600030E044EB53E4C701B6010E94E9306B0142
:103270007C01ECCFC701B601FF90EF90DF90CF90BB
:1032800008954F925F926F927F928F929F92AF922A
:10329000BF92CF92DF92EF92FF92CF93DF93CDB7A1
:1032A000DEB728970FB6F894DEBF0FBECDBF6A0118
:1032B0007B0128E83AE241E259E3C701B6010E94E6
:1032C00097339B01AC016DE07FE98CE097E40E94AD
:1032D000E8309B01AC01C701B6010E9497332AEB8D
:1032E00033EC42EB53E40E94E9302BED3FE049E43C
:1032F00050E40E94973320E030E044E353E40E941E
:103300006B314B015C010E94FA3369837A838B83B2
:103310009C83A5019401C501B4010E94E9302B01F1
:103320003C010E94FA336D837E838F839887A501C9
:103330009401C301B2010E94E9300E94FA332B01CB
:103340003C012BE831EE4AE657E3C701B6010E9483
:1033500097332DEE37ED4DE95BE30E94E9309B0199
:10336000AC01C701B6010E9497339B01AC016EEA24
:1033700071E185EF9FE30E94E8309B01AC01698118
:103380007A818B819C810E9497334B015C0126EFEF
:103390003FEC43ED58E3C701B6010E9497339B0110
:1033A000AC016CE578EC83EA9CE30E94E8309B0179
:1033B000AC016D817E818F8198850E9497339B013E
:1033C000AC01C501B4010E94E9306B017C012CEE17
:1033D00034E847E959E3C301B2010E9497339B01E6
:1033E000AC01C701B6010E94E93028960FB6F894E7
:1033F000DEBF0FBECDBFDF91CF91FF90EF90DF908A
:10340000CF90BF90AF909F908F907F906F905F9084
:103410004F9008958F929F92AF92BF92CF92DF927A
:10342000EF92FF92CF93DF93EC016A017B010E9440
:10343000F3184B015C01B701A601CE010E944119AE
:103440009B01AC01C501B4010E94E930DF91CF912D
:10345000FF90EF90DF90CF90BF90AF909F908F90B4
:1034600008954F925F926F927F928F929F92AF9248
:10347000BF92CF92DF92EF92FF926A017B010E948E
:103480000A1A2B013C012AE534EC41EF54E4C70150
:10349000B6010E9497339B01AC016BE774E18AEFA0
:1034A00092E40E94E8302BED3FE049E450E40E94B2
:1034B000973320E030E044E353E40E946B310E94F4
:1034C000FA334B015C012EE233E74AEB5BE3C301C5
:1034D000B2010E94E8306B017C012CE831EA4CE932
:1034E0005BE3C501B4010E9497339B01AC01C701A6
:1034F000B6010E94E830FF90EF90DF90CF90BF9030
:10350000AF909F908F907F906F905F904F900895B5
:10351000CF92DF92EF92FF926A017B012FE232EAB3
:103520004DEE5AE3C701B6010E9497339B01AC01EF
:103530006BE37AEA8AE19AE30E94E8309B01AC01EE
:10354000C701B6010E9497332FE832E44BE352E4FF
:103550000E94E9309B01AC01C701B6010E9497337C
:103560009B01AC0161E875E98BEA91E40E94E830C7
:1035700020E030E040E752E40E946B3120E030E090
:1035800040ED51E40E94E93020E030E040E752E4B1
:103590000E946B3120E030E048EB51E40E94E930BA
:1035A000FF90EF90DF90CF9008958F929F92AF920F
:1035B000BF92CF92DF92EF92FF926A017B010E944D
:1035C000881A4B015C012AE534EC41EF54E4C70151
:1035D000B6010E9497339B01AC016BE774E18AEF5F
:1035E00092E40E94E8302BED3FE049E450E40E9471
:1035F000973320E030E044E353E40E946B310E94B3
:1036000068312CEA35EC47E25BE30E9497339B017B
:10361000AC01C501B4010E94E930FF90EF90DF904A
:10362000CF90BF90AF909F908F9008954F925F92F0
:103630006F927F928F929F92AF92BF92CF92DF92C2
:10364000EF92FF925C016A017B010E94D51A2B0167
:103650003C01B701A601C5010E94311A4B015C0172
:103660002BED3FE049E450E4C301B2010E949733DF
:1036700020E030E044E353E40E946B310E94FA33CF
:103680006B017C012BED3FE049E450E4C501B4013E
:103690000E94973320E030E044E353E40E946B3112
:1036A0000E94FA339B01AC01C701B6010E94973317
:1036B0000E944D3120EE3EE245E652E40E949733EF
:1036C000FF90EF90DF90CF90BF90AF909F908F9042
:1036D0007F906F905F904F9008954F925F926F929E
:1036E0007F928F929F92AF92BF92CF92DF92EF9292
:1036F000FF92CF93DF93CDB7DEB764970FB6F89400
:10370000DEBF0FBECDBF5C016A017B010E94D51AEE
:103710002B013C01B701A601C5010E94F3184B0122
:103720005C0128E03BE048E054E3C701B6010E9499
:10373000973323EE30E540E358E30E94E9309B01E4
:10374000AC01C701B6010E9497339B01AC016CE844
:1037500070EE88E89CE30E94E83069837A838B836B
:103760009C832BED3FE049E450E4C301B2010E9489
:10377000973320E030E044E353E40E946B3120E0D3
:1037800030E040E05FE30E9497330E9442349B01A7
:10379000AC010E9497336D837E838F8398872BEDD6
:1037A0003FE049E450E4C501B4010E94973320E0B2
:1037B00030E044E353E40E946B314B015C019B0118
:1037C000AC010E94E9302B013C010E94FA336D8765
:1037D0007E878F87988B28E83AE241E259E3C70158
:1037E000B6010E9497339B01AC016DE07FE98CE04C
:1037F00097E40E94E8309B01AC01C701B6010E942A
:1038000097332AEB33EC42EB53E40E94E9302BED83
:103810003FE049E450E40E94973320E030E044E385
:1038200053E40E946B316B017C010E94FA3369877B
:103830007A878B879C87C301B2010E946831698BAC
:103840007A8B8B8B9C8B20E030E040E850E4C50104
:10385000B4010E9497330E94FA332B013C01A70167
:103860009601C701B6010E94E9300E94FA334B016C
:103870005C012D853E854F8558896D817E818F81C4
:1038800098850E9497336B017C0129813A814B8195
:103890005C81CA01B9010E94E93029853A854B85CE
:1038A0005C850E9497339B01AC01C701B6010E9461
:1038B000E8306B017C0120E030E040E850E46981B1
:1038C0007A818B819C810E9497332D813E814F812B
:1038D00058850E94973329853A854B855C850E94DF
:1038E000973329893A894B895C890E9497339B01D8
:1038F000AC01C701B6010E94E9306B017C0120E0F8
:1039000030E040E05FE36D817E818F8198850E9489
:1039100097332D813E814F8158850E949733A301B3
:1039200092010E9497339B01AC01C701B6010E942E
:10393000E8306B017C0120E030E040EA5FE3698120
:103940007A818B819C810E94973329813A814B81B6
:103950005C810E949733A50194010E9497339B01DB
:10396000AC01C701B6010E94E83020EE3EE245E618
:1039700052E40E94973320E030E040E850E40E9497
:10398000973364960FB6F894DEBF0FBECDBFDF91BC
:10399000CF91FF90EF90DF90CF90BF90AF909F902E
:1039A0008F907F906F905F904F9008952F923F92ED
:1039B0004F925F926F927F928F929F92AF92BF923F
:1039C000CF92DF92EF92FF920F931F93CF93DF93EB
:1039D000CDB7DEB764970FB6F894DEBF0FBECDBF8C
:1039E0003C012B01D42EF22E1C2DCB0164E670E09D
:1039F0000E9494344B01AA2497FCA094BA2C809284
:103A0000B0049092B104A092B204B092B304C50184
:103A1000B40124E030E040E050E00E94CA3420933A
:103A2000AC043093AD044093AE045093AF04DA017C
:103A3000C90188199909AA09BB094C015D0192E0E5
:103A4000890E911CA11CB11C8092A8049092A9041B
:103A5000A092AA04B092AB04B20164597D4E8827AB
:103A600077FD8095982F0E94063220E030EA46EBE1
:103A700053E40E9497330E94D3311B012C016093C1
:103A8000A4047093A5048093A6049093A7046D2DBD
:103A900070E06F5F7F4F882777FD8095982F0E9499
:103AA000063221E03DEC44EF51E40E9497330E943E
:103AB000D3316093A0047093A1048093A2049093E7
:103AC000A3048F0C911CA11CB11C860E971EA81E6E
:103AD000B91E820C931CA41CB51CC501B4010E9424
:103AE000063220E030E94EEB54E40E94E8304B010E
:103AF0005C0160939C0470939D0480939E0490935A
:103B00009F046E2D70E080E090E00E94043220E07F
:103B100030E040E752E40E946B3120E030E040ECBE
:103B200051E40E946B311B012C016093BC04709323
:103B3000BD048093BE049093BF04602F70E080E0CA
:103B400090E00E94043220E030E040EC51E40E941A
:103B50006B316093B8047093B9048093BA04909366
:103B6000BB04A20191010E94E9309B01AC0160936A
:103B7000B4047093B5048093B6049093B704C50160
:103B8000B4010E94E9306093980470939904809383
:103B90009A0490939B0424E631EA45E15AE40E949A
:103BA000E83020E03DEA4EE057E40E946B311B0113
:103BB0002C016093940470939504809396049093E1
:103BC0009704AB01BC01C3010E94161B4B015C01B1
:103BD000B201A101C3010E946D1B2B013C0120E039
:103BE00030E048EC52E40E9497330E94413220E0DA
:103BF00030E048EC52E40E946B3160938004709393
:103C00008104809382049093830420E030E048ECA8
:103C100052E4C501B4010E9497330E94413220E072
:103C200030E048EC52E40E946B3160937C04709366
:103C30007D0480937E0490937F046E2D70E0ACE34E
:103C40000A9F600D711D1124882777FD8095982F9C
:103C50000E9406326B017C01612F70E080E090E0F1
:103C60000E94063220E030E040E752E40E946B31CF
:103C70009B01AC01C701B6010E94E9306B017C01D8
:103C800020E030E040E850E460918C0470918D04B5
:103C900080918E0490918F040E9497339B01AC0118
:103CA000C301B2010E94E8309B01AC01C701B6011B
:103CB0000E94E9306B017C0120E030E044EB54E4E9
:103CC0000E94933318164CF420E030E044EB54E4A7
:103CD000C701B6010E94E830EDCF20E030E040E8B7
:103CE0005EE3C701B6010E94973320E030E044E371
:103CF00053E40E94E8302B013C0120E030E044E333
:103D000053EC0E94643187FF0AC020E030E044EBAE
:103D100053E4C301B2010E94E9302B013C018091C0
:103D2000900490919104A0919204B091930489839E
:103D30009A83AB83BC832BED3FE049E450E4BC01A4
:103D4000CD010E94973320E030E044E353E40E9429
:103D50006B316B017C010E94FA3369877A878B870C
:103D60009C872BED3FE049E450E4C501B4010E947B
:103D7000973320E030E044E353E40E946B314B0181
:103D80005C010E94FA336D877E878F87988BC7010D
:103D9000B6010E946831698B7A8B8B8B9C8BC50135
:103DA000B4010E9468314B015C012BED3FE049E416
:103DB00050E4C301B2010E94973320E030E044E3B5
:103DC00053E40E946B310E9468316D837E838F8340
:103DD00098872D853E854F85588969857A858B859D
:103DE0009C850E9497336B017C01A5019401698930
:103DF0007A898B899C890E9497332D813E814F81DE
:103E000058850E9497339B01AC01C701B6010E94FF
:103E1000E9306B017C0120E030E040E85FE30E9484
:103E2000933318168CF020E030E040E85FEBC701D8
:103E3000B6010E94643187FF0DC0C12CD12C30E83F
:103E4000E32E3FEBF32E06C0C12CD12C40E8E42E2C
:103E50004FE3F42EC701B6010E94DA3020EE3EE2B5
:103E600045E652E40E9497336D837E838F83988763
:103E70002BED3FE049E450E40E94973320E030E02E
:103E800044E353E40E946B314B015C010E94FA331E
:103E90009B01AC0169897A898B899C890E9497333F
:103EA0006B017C012FE632E143E85AE30E94933331
:103EB000181654F02FE632E143E85AEBC701B60179
:103EC0000E94643187FF59C0C501B4010E94683166
:103ED0009B01AC0169857A858B859C850E9497330F
:103EE0002D853E854F8558890E94E830A7019601AF
:103EF0000E946B316B017C0120E030E040E85FE321
:103F00000E94933318168CF020E030E040E85FEB1D
:103F1000C701B6010E94643187FF0DC0C12CD12CAE
:103F200090E8E92E9FEBF92E06C0C12CD12C20E899
:103F3000E22E2FE3F22EC701B6010E94DA3020EE06
:103F40003EE245E652E40E9497339B01AC0160E0FB
:103F500070E084E393E40E94E8306B017C0120E090
:103F600030E0A901C301B2010E9493331816ACF4EA
:103F7000F7FAF094F7F8F09410C020E030E0A901CF
:103F800069817A818B819C810E94933318160CF48D
:103F900065C1C12CD12C760113C020E030E0A9010D
:103FA000C701B6010E94643187FF0AC020E030E0FB
:103FB00044EB53E4C701B6010E94E9306B017C0178
:103FC0002D813E814F81588560E070E084EB92E462
:103FD0000E94E8302B013C0120E030E04AEA52E444
:103FE0000E94933318160CF4B0C02BED3FE049E467
:103FF00050E4C301B2010E94973320E030E044E373
:1040000053E40E946B310E9442344B015C0120E07A
:1040100030E040EA50E4C301B2010E949333181625
:104020000CF045C0A5019401C501B4010E9497336D
:10403000A50194010E9497332B013C01A501940135
:1040400066E676E688E692E40E946B3169837A83BD
:104050008B839C83A301920169E27CE58FE89DE359
:104060000E946B319B01AC0169817A818B819C81BB
:104070000E94E83069837A838B839C83A501940135
:10408000C301B2010E949733A50194010E949733A6
:104090009B01AC0166EE7AE584EB98E30E946B31FC
:1040A0009B01AC0169817A818B819C813AC023E3B9
:1040B00033E343E15FEBC301B2010E94933318166F
:1040C0009CF529E134E046E35FE3C301B2010E94BD
:1040D000973327ED33EA4CE451E40E94E8309B012A
:1040E000AC01C301B2010E9497332DEC3CEC4EECC5
:1040F00052E40E94E9309B01AC01C301B2010E946D
:1041000097332DEC3CE841E054E40E94E8309B01F9
:10411000AC01C301B2010E94973320E030EE48EDBC
:1041200054E40E94E93008C0A501940167E271E3FC
:1041300086EA91EC0E946B3120E030E041E655E4E4
:104140000E946B319B01AC0103C020E030E0A9016B
:104150006D817E818F8198850E94E8304B015C01E2
:1041600020E030E048ED52E40E94643187FF72C0E5
:104170001092770420E030E048EC52E4C701B60129
:104180000E9497330E94413220E030E048EC52E434
:104190000E946B31609388047093890480938A0431
:1041A00090938B04A501940160E070E084EB92E4AD
:1041B0000E94E83020E030E048EC52E40E9497335F
:1041C0000E94413220E030E048EC52E40E946B3122
:1041D000609384047093850480938604909387048D
:1041E00020E030E044EB52E4C501B4010E946431A8
:1041F00087FF27C02BED3FE049E450E4C501B4013F
:104200000E94973320E030E044E353E40E946B3196
:104210000E94683120E030E44CE156E40E9497337C
:104220000E94413220E030E44CE156E40E946B31C0
:10423000609378047093790480937A0490937B045C
:1042400014C0109278041092790410927A0410929B
:104250007B040BC081E08093770407C0C12CD12C74
:1042600084E3E82E83E4F82EABCE64960FB6F89480
:10427000DEBF0FBECDBFDF91CF911F910F91FF9099
:10428000EF90DF90CF90BF90AF909F908F907F90F6
:104290006F905F904F903F902F9008959C01FC018C
:1042A000EE5BFF4F80819181680F791F613471054A
:1042B00030F4718360830296820F931F089580E02B
:1042C00090E00895CF93DF93FC018081918183304A
:1042D000910534F481309105DCF4892BC9F131C0AA
:1042E0008530910584F0059761F582819381A481E1
:1042F000B5819C01AD0166277727CB01621B730B4B
:10430000840B950B28C0628173818481958123C0C1
:10431000C281D3812097E1F0BE018CE791E00E9439
:10432000F139892B49F04AE050E060E070E0CE01BD
:10433000DF91CF910C945D3861E070E080E090E017
:104340000AC062817381848195810E94D33103C048
:1043500060E070E0CB01DF91CF910895CF93DF93C0
:10436000EC0161E871E089EC94E00E94EE2C898D0B
:104370009A8D0E947215AB01BC0122E030E089ECFD
:1043800094E00E94E22E67E871E089EC94E00E94DC
:10439000EE2C898D9A8D0E940815AB01BC0122E09C
:1043A00030E089EC94E00E94E22EEF89F88D828162
:1043B000882331F16EE871E089EC94E00E94EE2CE4
:1043C0008B8D9C8D0E947215AB01BC0122E030E008
:1043D00089EC94E00E94E22E65E971E089EC94E0BA
:1043E0000E94EE2C8B8D9C8D0E940815AB01BC01A8
:1043F00022E030E089EC94E0DF91CF910C94E22E42
:104400006CE971E089EC94E0DF91CF910C94EE2C93
:10441000CF92EF920F931F93CF93DF93CDB7DEB779
:104420002C970FB6F894DEBF0FBECDBF8C016BEAA0
:1044300071E089EC94E00E94EE2C6EE071E089EC72
:1044400094E00E94EE2CF80182A193A1049799F4C4
:10445000CE0107960E9472106F8170E06053784F12
:10446000C12CE12CF80105A129854885CE010196D2
:104470000E94590F04C0CE0101960E947210CE0115
:1044800001960E946D0FAB01BC012AE030E089EC7F
:1044900094E00E94EA2D62E271E089EC94E00E94CF
:1044A0001F2D2C960FB6F894DEBF0FBECDBFDF9147
:1044B000CF911F910F91EF90CF900895EF92FF92BF
:1044C0000F931F93CF93DF93EC017B018A0120E0D0
:1044D00030E0A90160E070E00E94C40D85E992E03F
:1044E00099838883F88EEF8A1E8F0D8F1C8A1B8A12
:1044F00019A21CA21BA21AA2DF91CF911F910F91AA
:10450000FF90EF900895CF93DF93EC0185E992E05F
:10451000998388838F8D98A10E947D2C898D9A8D97
:10452000009739F0DC01ED91FC910084F185E02DDC
:1045300009958B8D9C8D009749F0DC01ED91FC91E4
:104540000084F185E02DDF91CF910994DF91CF9127
:104550000895FC016130710571F01CF4672B41F086
:1045600008956230710551F06330710559F0089576
:10457000818D928D09C0818D928D02C0838D948D25
:104580000C942D16838D948D0C941716CF93DF9376
:10459000EC01898D9A8D0E9443168B8D9C8DDF9145
:1045A000CF910C944316FC01A18DB28D57968D913D
:1045B0009C9158970097A9F0A789B08D12962C91DD
:1045C0002223B1F0A38DB48D57962D913C9158972D
:1045D0002115310531F0049739F483E090E0948B94
:1045E000838B81E090E008952430310519F405C0F3
:1045F000049799F382A193A10895348B238BF1CF73
:10460000FC0182A193A18617970731F073A362A3DF
:104610008789908D0C94A5130895CF93DF93EC01B7
:104620001EA21DA281E0888BE881F9810190F081B2
:10463000E02D48E853E160E070E0CE01099564E0C8
:1046400070E0CE010E940023E881F9810480F581A9
:10465000E02DCE01DF91CF9109941F93CF93DF938B
:10466000EC01162F0E94D322069721F140E050E082
:1046700064E373E4898D9A8D0E94DB17EF89F88DCE
:104680008281882379F0111105C040E050E064E395
:1046900072E404C040E050E064EB72E48B8D9C8DCA
:1046A0000E94DB1766E070E0CE01DF91CF911F9191
:1046B0000C940023DF91CF911F910895CF92DF9248
:1046C000EF920F931F93CF93DF93EC01CF88D88C99
:1046D00020E030E0A901F60164817581868197812F
:1046E0000E946431E82EEE1CEE24EE1CF601008DD3
:1046F000118D248935894685578564857585898D11
:104700009A8D0E94B115EF89F88D8281882369F016
:10471000028D138D26893789428953896089718971
:10472000E12C8B8D9C8D0E94B115E881F98101905F
:10473000F081E02D40E65AEE60E070E0CE01099590
:1047400062E070E0CE01DF91CF911F910F91EF9069
:10475000DF90CF900C9400234F925F926F927F92E4
:104760008F929F92AF92BF92CF92EF92FF920F9350
:104770001F93CF93DF93CDB7DEB760970FB6F89452
:10478000DEBF0FBECDBF5C014B017A0161E070E07E
:104790000E940023D5015696FC92EE9255975796AB
:1047A000ED91FC91589744815581668177814084D1
:1047B00051846284738481E090E04D875E876F87C7
:1047C000788B0E947B2C7C01930182014D855E8554
:1047D0006F8578890E947418F501F0A2E78ECE01EA
:1047E00007960E9472106F8170E06053784FCC84FE
:1047F000EB840A8529854885D5015F968D919C912A
:1048000090970E94D61C60EB71E0CE0101960E9449
:10481000642F80E490E00E947B2C7C0103E022E086
:1048200047E0BE016F5F7F4F0E947C14F501F28E5E
:10483000E18ECE0101960E94F62ED50159966D911A
:104840007C915A97C4010E944F0E6BEB71E0CE0130
:1048500001960E94642F80E490E00E947B2C7C01F2
:1048600005E024E046E0BE016F5F7F4F0E947C14AC
:10487000F501F48EE38ECE0101960E94F62ED5014D
:104880005B966D917C915C97C4010E944F0EB501BF
:10489000C4010E944F0EC5010E945E2360960FB6B0
:1048A000F894DEBF0FBECDBFDF91CF911F910F9166
:1048B000FF90EF90CF90BF90AF909F908F907F90A0
:1048C0006F905F904F9008950F931F93CF93DF9356
:1048D000EC018B0163E070E00E94002367E172E06D
:1048E000C8010E94F139892B19F460E070E01DC005
:1048F00062E172E0C8010E94F139892B19F461E08C
:1049000070E013C06FE072E0C8010E94F139892B9A
:1049100019F462E070E009C06AE072E0C8010E9428
:10492000F139892B49F463E070E0CE01DF91CF913A
:104930001F910F910C94A922DF91CF911F910F919C
:104940000895CF93DF93EC0189A1882309F479C0FE
:104950006AEC71E089EC94E00E94EE2CCE010E949A
:10496000AE216FEC71E089EC94E00E94EE2C61EDD9
:1049700071E089EC94E00E94EE2C8F8D98A10E944A
:10498000F018882319F06CE771E002C064EC71E064
:1049900089EC94E00E94EE2C67ED71E089EC94E0E4
:1049A0000E94EE2C8F8D98A10E94DE18AB01BC01F5
:1049B00022E030E089EC94E00E94E22E6EED71E09E
:1049C00089EC94E00E94EE2C8F8D98A10E94E7184C
:1049D000AB01BC0122E030E089EC94E00E94E22EC1
:1049E0006FEC71E089EC94E00E94EE2C65EE71E0D2
:1049F00089EC94E00E94EE2CCE010E94D3224AE082
:104A000050E0BC0189EC94E00E94CA2D6BEE71E08D
:104A100089EC94E00E94EE2C6B897C894AE050E09E
:104A200089EC94E00E94CA2D62E271E089EC94E086
:104A30000E941F2D8AA19BA1049719F4CE010E9408
:104A4000082289A1DF91CF910895009711F00C946D
:104A5000FB2C0895CF93DF93EC018B899C89892BE4
:104A600061F06EE373E08D899E890E94252561E0E7
:104A7000CE010E942D23188A38C0CE010E94D32275
:104A8000019799F1CE010E94D322892B71F1CE01B9
:104A90000E94D322039729F1CE010E94D3220497CA
:104AA00001F1CE010E94D3220697D9F081E0888BD4
:104AB000E881F9810190F081E02D40E65AEE60E056
:104AC00070E0CE01099565E070E0CE010E94002300
:104AD000E881F9810480F581E02DCE01DF91CF914D
:104AE0000994CE010E945E23E1CFDF91CF9108951A
:104AF000CF93DF93EC018F8D98A10E94F018811164
:104B000005C0CE01DF91CF910C942A25DF91CF9182
:104B10000895CF93DF93EC018CA1811117C0898D8B
:104B20009A8D0E947E15EF89F88D8281882321F06D
:104B30008B8D9C8D0E947E1581E08CA36AE273E0D0
:104B40008D899E89DF91CF910C942525DF91CF919E
:104B50000895CF93DF93EC016EE173E08D899E8918
:104B60000E9425258F8D98A10E94DE18AB01BC0103
:104B7000898D9A8D0E94DB17EF89F88D82818823B9
:104B800061F08F8D98A10E94E718AB01BC018B8D5D
:104B90009C8DDF91CF910C94DB17DF91CF9108951D
:104BA0008F929F92AF92BF92CF92DF92EF92FF923D
:104BB0000F931F93CF93DF93CDB7DEB72A970FB62E
:104BC000F894DEBF0FBECDBF5C010E948529AB010A
:104BD000BC01C5010E94DC0DD50157968D919C91B9
:104BE0005897FC01248D222371F10E943212D501C5
:104BF0005F968D919C9190970E947D2CD501579640
:104C0000ED91FC9158974481558166817781C084EC
:104C1000D184E284F38481E090E04F8358876987F0
:104C20007A870E947B2C4C01970186014F81588521
:104C300069857A850E947418F50190A2878EC50156
:104C40000E945E2363C0C5010E94D3227C01CE0175
:104C500001960E947210F4E0EF16F104A1F085E0D5
:104C6000E816F10409F052C0698170E06053784F92
:104C7000CE80ED800C812B814A81D5015F968D918C
:104C80009C91909730C0D5015996ED91FC915A971F
:104C90008789908D039749F55B96ED91FC915C9720
:104CA0008789908D039709F5F50185A196A1019655
:104CB00068E170E00E949434BC0196A385A38589C5
:104CC0009689009721F04AE050E00E94D22D698138
:104CD00070E06053784FC12CE12CF50105A12B81C8
:104CE0004A81878D90A10E94D61CF501878D90A1E5
:104CF0000E94F018882321F0C5010E94892506C072
:104D0000D50194961C92C5010E94A9252A960FB63A
:104D1000F894DEBF0FBECDBFDF91CF911F910F91F1
:104D2000FF90EF90DF90CF90BF90AF909F908F90CB
:104D300008955F926F927F928F929F92AF92BF92EF
:104D4000CF92DF92EF92FF920F931F93CF93DF9357
:104D5000CDB7DEB7C45AD1090FB6F894DEBF0FBE87
:104D6000CDBF5C014B016B0100E010E0E12CF12CA8
:104D7000512CF40101900020E9F73197E819F90965
:104D8000C601881999098E179F0708F044C0D601FB
:104D90008D916D018C37C1F18D3059F38A3049F313
:104DA000511019C03701BFEF6B1A7B0AE5E8F0E03C
:104DB000EC0FFD1FEE0DFF1D8083E0E26E16710407
:104DC00030F16CE073E0D50155968D919C9156972A
:104DD0000E9425251CC03801BFEF6B1A7B0AE5E451
:104DE000F0E0EC0FFD1FE00FF11F8083E0E46E1692
:104DF000710478F06DEF72E0D50155968D919C911C
:104E000056970E94252505C055245394B2CF7301AF
:104E1000B0CF8301AECFE5E8F0E0EC0FFD1FEE0D63
:104E2000FF1D1082E5E4F0E0EC0FFD1FE00FF11F25
:104E30001082BE016B577F4F89EC94E00E94EE2CEC
:104E400062EF71E089EC94E00E94EE2CBE016B5B96
:104E50007F4F89EC94E00E941F2D6BE872E0CE0139
:104E60008B579F4F0E94F139892B21F4C5010E9475
:104E70002A25EAC165E872E0CE018B579F4F0E9458
:104E8000F139892B21F4C5010E940D23DDC160E8B1
:104E900072E0CE018B579F4F0E94F139892B49F464
:104EA00063E070E0C5010E940023C5010E94C62294
:104EB000CBC16FE672E0CE018B579F4F0E94F13954
:104EC000892B31F4F5018789908D0E94A513BCC10F
:104ED00063E672E0CE018B579F4F0E94F139892B18
:104EE00021F4C5010E940822AFC161E572E0CE0144
:104EF0008B579F4F0E94F139892B29F481E0D5010E
:104F000091968C93A1C163E472E0CE018B579F4FC1
:104F10000E94F139892B19F4F50111A295C16EE3B4
:104F200072E0CE018B579F4F0E94F139892B09F017
:104F30003FC08FE992E09A83898325961FAE1EAE0B
:104F400025974AE0BE016B5B7F4FCE0101960E9420
:104F5000EF0A8C01DC018D919C91892B09F474C1BD
:104F600064EF71E0C8010E94140B009731F00496C1
:104F70000E943B0B6B017C0103C0C12CD12C76013C
:104F800066EF71E0C8010E94140B009731F004969F
:104F90000E943B0BAB01BC0103C040E050E0BA01F2
:104FA00097018601F5018789908D0E948F1161C05C
:104FB00064E372E0CE018B579F4F0E94F139892B39
:104FC00009F064C08FE992E09A83898325961FAE29
:104FD0001EAE25974AE0BE016B5B7F4FCE01019666
:104FE0000E94EF0A4C01FC0180819181892B09F418
:104FF0002BC168EF71E0C4010E94140B009729F0E7
:1050000004960E9462218B0102C000E010E06BEF69
:1050100071E0C4010E94140B009729F004960E94CD
:1050200062217B0102C0E12CF12C6EEF71E0C40122
:105030000E94140B009729F004960E9462216B01D4
:1050400002C0C12CD12C61E072E0C4010E94140B9B
:10505000009721F004960E94622102C060E070E097
:105060009701A601D50157968D919C9158970E9462
:10507000E911D501ED91FC910190F081E02D48EB13
:105080005BE060E070E0C5010995DEC069E372E0B5
:10509000CE018B579F4F0E94F139892B09F058C0E0
:1050A0008FE992E09A83898325961FAE1EAE2597DD
:1050B0004AE0BE016B5B7F4FCE0101960E94EF0A72
:1050C0004C01FC0180819181892B09F4BDC064E011
:1050D00072E0C4010E94140B009729F004960E940C
:1050E00062218B0102C000E010E066EB72E0C401B7
:1050F0000E94140B009729F004960E9462217B0104
:1051000002C0E12CF12C66E072E0C4010E94140B95
:10511000009729F004960E9462216B0102C0C12C05
:10512000D12C68EC71E0C4010E94140B009721F0AF
:1051300004960E94622102C060E070E09701A6011F
:10514000D50157968D919C9158970E949F1191CFB0
:105150006FE272E0CE018B579F4F0E94F139892B8D
:1051600009F04AC08FE992E09A83898325961FAEA1
:105170001EAE25974AE0BE016B5B7F4FCE010196C4
:105180000E94EF0A8C01FC0180819181892B09F436
:105190005BC068E072E0C8010E94140B009759F0F0
:1051A00004960E94622121E0672B682B692B09F489
:1051B00020E0622F01C060E0D50157968D919C914F
:1051C00058970E94851165EB72E0C8010E94140B8C
:1051D000009759F004960E94622121E0672B682B0A
:1051E000692B09F420E0622F01C060E0F501878996
:1051F000908D0E948A113DCF63E272E0CE018B5701
:105200009F4F0E94F139892B81F4CE018B5B9F4F18
:105210000E949139AB01BC01CE0101960E94FB0EA8
:10522000CE0101960E94A10F0FC06CE172E0CE0189
:105230008B579F4F0E94F139892B31F4BE016B5B74
:105240007F4FC5010E946424CC55DF4F0FB6F89400
:10525000DEBF0FBECDBFDF91CF911F910F91FF90A9
:10526000EF90DF90CF90BF90AF909F908F907F9006
:105270006F905F9008951F920F920FB60F921124B6
:105280002F933F938F939F93AF93BF938091C104CC
:105290009091C204A091C304B091C4043091C004A1
:1052A00023E0230F2D3720F40196A11DB11D05C069
:1052B00026E8230F0296A11DB11D2093C004809300
:1052C000C1049093C204A093C304B093C40480911A
:1052D000C5049091C604A091C704B091C80401967A
:1052E000A11DB11D8093C5049093C604A093C7046B
:1052F000B093C804BF91AF919F918F913F912F912F
:105300000F900FBE0F901F9018952FB7F8946091D3
:10531000C1047091C2048091C3049091C4042FBF52
:105320000895789484B5826084BD84B5816084BD1D
:1053300085B5826085BD85B5816085BDEEE6F0E00E
:10534000808181608083E1E8F0E01082808182606A
:105350008083808181608083E0E8F0E080818160EB
:105360008083E1EBF0E0808184608083E0EBF0E01B
:10537000808181608083EAE7F0E0808184608083BF
:105380008081826080838081816080838081806869
:1053900080831092C10008958E3008F08E5087707F
:1053A0002091060190E4299F90011124822B809383
:1053B0007C0080917A00806480937A0080917A00EA
:1053C00086FDFCCF809178002091790090E0922BAF
:1053D0000895833081F028F4813099F08230A1F073
:1053E00008958730A9F08830B9F08430D1F48091E5
:1053F00080008F7D03C0809180008F778093800034
:10540000089584B58F7702C084B58F7D84BD0895DB
:105410008091B0008F7703C08091B0008F7D809322
:10542000B0000895CF93DF9390E0FC01EB57FC4F61
:105430002491FC01E756FC4F8491882349F190E0C8
:10544000880F991FFC01EF53FC4FA591B49189542B
:105450009C4FFC01C591D4919FB7611108C0F8948D
:105460008C91209582238C93888182230AC062309C
:1054700051F4F8948C91322F309583238C9388814A
:10548000822B888304C0F8948C91822B8C939FBFCD
:10549000DF91CF9108950F931F93CF93DF931F92C6
:1054A000CDB7DEB7282F30E0F901EF58FC4F8491DB
:1054B000F901EB57FC4F1491F901E756FC4F0491A9
:1054C0000023C9F0882321F069830E94E9296981BA
:1054D000E02FF0E0EE0FFF1FE954FC4FA591B491CF
:1054E0009FB7F8948C91611103C01095812301C07E
:1054F000812B8C939FBF0F90DF91CF911F910F91C4
:105500000895FC01818D228D90E0805C9F4F821B6D
:1055100091098F7399270895FC01918D828D9817B9
:1055200031F0828DE80FF11D858D90E008958FEFA9
:105530009FEF0895FC01918D828D981761F0828D07
:10554000DF01A80FB11D5D968C91928D9F5F9F73B7
:10555000928F90E008958FEF9FEF08958EE19CE287
:10556000892B49F087EA94E0892B29F00E941E2CB0
:1055700081110C94A7040895FC01848DDF01A80F0C
:10558000B11DA35ABF4F2C91848D90E001968F736B
:105590009927848FA689B7892C93A089B1898C918A
:1055A00080648C93938D848D981306C00288F38950
:1055B000E02D80818F7D80830895CF93DF93EC0170
:1055C000888D8823C9F0EA89FB89808185FD05C023
:1055D000A889B9898C9186FD0FC00FB607FCF5CF5D
:1055E000808185FFF2CFA889B9898C9185FFEDCFA5
:1055F000CE010E94BC2AE7CFDF91CF910895CF92D0
:10560000DF92FF920F931F93CF93DF931F92CDB73B
:10561000DEB76C0181E0D60158968C9358975B9663
:105620009C915B975C968C915C97981307C0509601
:10563000ED91FC915197808185FD2EC0F601038D7F
:1056400010E00F5F1F4F0F731127F02EF601848DAE
:10565000F81211C00FB607FCF9CFD6015096ED91A4
:10566000FC915197808185FFF1CFC60169830E942B
:10567000BC2A6981EBCF838DE80FF11DE35AFF4F00
:105680006083D6015B960C935B975296ED91FC91EB
:105690005397808180620CC0D6015696ED91FC91A3
:1056A000579760835096ED91FC915197808180646B
:1056B000808381E090E00F90DF91CF911F910F9157
:1056C000FF90DF90CF900895BF92CF92DF92EF923C
:1056D000FF92CF93DF93EC016A017B01B22EE88940
:1056E000F98982E08083411581EE580761057105D3
:1056F000A1F060E079E08DE390E0A70196010E94BF
:10570000A8342150310941095109569547953795DB
:105710002795211580E1380798F0E889F9891082EA
:1057200060E874E88EE190E0A70196010E94A83439
:1057300021503109410951095695479537952795CB
:10574000EC85FD853083EE85FF852083188EEC89FE
:10575000FD89B082EA89FB89808180618083EA8942
:10576000FB89808188608083EA89FB8980818068E9
:105770008083EA89FB8980818F7D8083DF91CF914F
:10578000FF90EF90DF90CF90BF9008951F920F92FF
:105790000FB60F9211242F938F939F93EF93FF9344
:1057A000E091D904F091DA048081E091DF04F09176
:1057B000E00482FD12C090818091E2048F5F8F73BC
:1057C0002091E304821751F0E091E204F0E0E75306
:1057D000FB4F958F8093E20401C08081FF91EF9190
:1057E0009F918F912F910F900FBE0F901F90189542
:1057F0001F920F920FB60F9211242F933F934F9346
:105800005F936F937F938F939F93AF93BF93EF9328
:10581000FF9389EC94E00E94BC2AFF91EF91BF9125
:10582000AF919F918F917F916F915F914F913F9138
:105830002F910F900FBE0F901F90189589EC94E058
:105840000E94812A21E0892B09F420E0822F08950B
:105850001092CC041092CB0488EE93E0A0E0B0E06C
:105860008093CD049093CE04A093CF04B093D00442
:1058700085EA92E09093CA048093C90485EC90E095
:105880009093D6048093D50484EC90E09093D80450
:105890008093D70480EC90E09093DA048093D9044D
:1058A00081EC90E09093DC048093DB0482EC90E048
:1058B0009093DE048093DD0486EC90E09093E00406
:1058C0008093DF041092E2041092E3041092E40447
:1058D0001092E504089508950E9491290E946B2C6E
:1058E0000E943203CEEADAE20E94E8042097E1F354
:1058F0000E94AE2AF9CF0C9409350C94A135CF92B1
:10590000DF92EF92FF920F931F93CF93DF937C016F
:105910006A01EB0100E010E00C151D0571F06991C2
:10592000D701ED91FC910190F081E02DC70109951F
:10593000892B19F00F5F1F4FEFCFC801DF91CF9177
:105940001F910F91FF90EF90DF90CF900895611518
:10595000710581F0DB010D900020E9F7AD014150A8
:105960005109461B570BDC01ED91FC910280F3813C
:10597000E02D099480E090E00895EF92FF920F935C
:105980001F93CF93DF938C017B01C0E0D0E0F70140
:10599000EC0FFD1F6491662359F0F801A081B181DD
:1059A000ED91FC91C8010995892B11F02196EFCF5B
:1059B000CE01DF91CF911F910F91FF90EF9008954D
:1059C000DC01ED91FC91DB0114964D915C911597F2
:1059D0006D917C910280F381E02D09940C94A72CA9
:1059E000DC01ED91FC910190F081E02D099461EBD7
:1059F00072E00C94A72C0F931F93CF93DF93EC01CD
:105A00000E94BD2C8C01CE010E94F72C800F911FAB
:105A1000DF91CF911F910F9108950F931F93CF9313
:105A2000DF93EC010E94E02C8C01CE010E94F72C48
:105A3000800F911FDF91CF911F910F9108950F93C8
:105A40001F93CF93DF93EC010E94A72C8C01CE0112
:105A50000E94F72C800F911FDF91CF911F910F9122
:105A600008958F929F92AF92BF92DF92EF92FF9232
:105A70000F931F93CF93DF93CDB7DEB7A1970FB6E8
:105A8000F894DEBF0FBECDBF7C01F42FD52ECB0125
:105A900019A2223008F42AE08E010F5D1F4F822EDA
:105AA000912CA12CB12C6F2F7D2DA50194010E946A
:105AB000A834F22FD32ECA01015011096A3014F410
:105AC000E0E301C0E7E3E60FD801EC93232B242B9E
:105AD000252B49F7B801C7010E94A72CA1960FB644
